{
  "contractName": "Marketplace",
  "abi": [
    {
      "inputs": [
        {
          "internalType": "address",
          "name": "_owner",
          "type": "address"
        },
        {
          "internalType": "address payable",
          "name": "_treasury",
          "type": "address"
        }
      ],
      "stateMutability": "nonpayable",
      "type": "constructor"
    },
    {
      "anonymous": false,
      "inputs": [
        {
          "indexed": false,
          "internalType": "contract IToken",
          "name": "token",
          "type": "address"
        },
        {
          "indexed": false,
          "internalType": "address",
          "name": "who",
          "type": "address"
        }
      ],
      "name": "BlacklistedToken",
      "type": "event"
    },
    {
      "anonymous": false,
      "inputs": [
        {
          "indexed": false,
          "internalType": "address",
          "name": "account",
          "type": "address"
        },
        {
          "indexed": false,
          "internalType": "uint256",
          "name": "value",
          "type": "uint256"
        }
      ],
      "name": "Donated",
      "type": "event"
    },
    {
      "anonymous": false,
      "inputs": [
        {
          "indexed": false,
          "internalType": "uint256",
          "name": "orderId",
          "type": "uint256"
        },
        {
          "indexed": false,
          "internalType": "string",
          "name": "fromSymbol",
          "type": "string"
        },
        {
          "indexed": false,
          "internalType": "string",
          "name": "toSymbol",
          "type": "string"
        }
      ],
      "name": "OrderCreated",
      "type": "event"
    },
    {
      "anonymous": false,
      "inputs": [
        {
          "indexed": false,
          "internalType": "uint256",
          "name": "orderId",
          "type": "uint256"
        },
        {
          "indexed": false,
          "internalType": "enum IOrder.Status",
          "name": "fromStatus",
          "type": "uint8"
        },
        {
          "indexed": false,
          "internalType": "enum IOrder.Status",
          "name": "toStatus",
          "type": "uint8"
        }
      ],
      "name": "OrderUpdated",
      "type": "event"
    },
    {
      "anonymous": false,
      "inputs": [
        {
          "indexed": true,
          "internalType": "address",
          "name": "previousOwner",
          "type": "address"
        },
        {
          "indexed": true,
          "internalType": "address",
          "name": "newOwner",
          "type": "address"
        }
      ],
      "name": "OwnershipTransferred",
      "type": "event"
    },
    {
      "anonymous": false,
      "inputs": [
        {
          "indexed": false,
          "internalType": "address",
          "name": "account",
          "type": "address"
        }
      ],
      "name": "Paused",
      "type": "event"
    },
    {
      "anonymous": false,
      "inputs": [
        {
          "indexed": false,
          "internalType": "address",
          "name": "receiver",
          "type": "address"
        },
        {
          "indexed": false,
          "internalType": "uint256",
          "name": "reward",
          "type": "uint256"
        }
      ],
      "name": "Reward",
      "type": "event"
    },
    {
      "anonymous": false,
      "inputs": [
        {
          "indexed": false,
          "internalType": "contract IToken",
          "name": "token",
          "type": "address"
        },
        {
          "indexed": false,
          "internalType": "uint256",
          "name": "reward",
          "type": "uint256"
        },
        {
          "indexed": false,
          "internalType": "address",
          "name": "who",
          "type": "address"
        }
      ],
      "name": "RewardUpdated",
      "type": "event"
    },
    {
      "anonymous": false,
      "inputs": [
        {
          "indexed": false,
          "internalType": "contract IToken",
          "name": "token",
          "type": "address"
        },
        {
          "indexed": false,
          "internalType": "address",
          "name": "who",
          "type": "address"
        }
      ],
      "name": "UnblacklistedToken",
      "type": "event"
    },
    {
      "anonymous": false,
      "inputs": [
        {
          "indexed": false,
          "internalType": "address",
          "name": "account",
          "type": "address"
        }
      ],
      "name": "Unpaused",
      "type": "event"
    },
    {
      "stateMutability": "payable",
      "type": "fallback",
      "payable": true
    },
    {
      "inputs": [],
      "name": "MINTER_ROLE",
      "outputs": [
        {
          "internalType": "bytes32",
          "name": "",
          "type": "bytes32"
        }
      ],
      "stateMutability": "view",
      "type": "function",
      "constant": true
    },
    {
      "inputs": [],
      "name": "blacklistedTokensCount",
      "outputs": [
        {
          "internalType": "uint256",
          "name": "",
          "type": "uint256"
        }
      ],
      "stateMutability": "view",
      "type": "function",
      "constant": true
    },
    {
      "inputs": [],
      "name": "lastOrderId",
      "outputs": [
        {
          "internalType": "uint256",
          "name": "",
          "type": "uint256"
        }
      ],
      "stateMutability": "view",
      "type": "function",
      "constant": true
    },
    {
      "inputs": [],
      "name": "owner",
      "outputs": [
        {
          "internalType": "address",
          "name": "",
          "type": "address"
        }
      ],
      "stateMutability": "view",
      "type": "function",
      "constant": true
    },
    {
      "inputs": [],
      "name": "paused",
      "outputs": [
        {
          "internalType": "bool",
          "name": "",
          "type": "bool"
        }
      ],
      "stateMutability": "view",
      "type": "function",
      "constant": true
    },
    {
      "inputs": [],
      "name": "renounceOwnership",
      "outputs": [],
      "stateMutability": "nonpayable",
      "type": "function"
    },
    {
      "inputs": [],
      "name": "reward",
      "outputs": [
        {
          "internalType": "uint256",
          "name": "",
          "type": "uint256"
        }
      ],
      "stateMutability": "view",
      "type": "function",
      "constant": true
    },
    {
      "inputs": [],
      "name": "rewardsCount",
      "outputs": [
        {
          "internalType": "uint256",
          "name": "",
          "type": "uint256"
        }
      ],
      "stateMutability": "view",
      "type": "function",
      "constant": true
    },
    {
      "inputs": [],
      "name": "rewardsValue",
      "outputs": [
        {
          "internalType": "uint256",
          "name": "",
          "type": "uint256"
        }
      ],
      "stateMutability": "view",
      "type": "function",
      "constant": true
    },
    {
      "inputs": [],
      "name": "token",
      "outputs": [
        {
          "internalType": "contract IToken",
          "name": "",
          "type": "address"
        }
      ],
      "stateMutability": "view",
      "type": "function",
      "constant": true
    },
    {
      "inputs": [
        {
          "internalType": "address",
          "name": "newOwner",
          "type": "address"
        }
      ],
      "name": "transferOwnership",
      "outputs": [],
      "stateMutability": "nonpayable",
      "type": "function"
    },
    {
      "inputs": [],
      "name": "treasury",
      "outputs": [
        {
          "internalType": "address payable",
          "name": "",
          "type": "address"
        }
      ],
      "stateMutability": "view",
      "type": "function",
      "constant": true
    },
    {
      "stateMutability": "payable",
      "type": "receive",
      "payable": true
    },
    {
      "inputs": [
        {
          "internalType": "uint256",
          "name": "orderId",
          "type": "uint256"
        }
      ],
      "name": "orderExists",
      "outputs": [
        {
          "internalType": "bool",
          "name": "",
          "type": "bool"
        }
      ],
      "stateMutability": "view",
      "type": "function",
      "constant": true
    },
    {
      "inputs": [
        {
          "internalType": "uint256",
          "name": "orderId",
          "type": "uint256"
        }
      ],
      "name": "getOrder",
      "outputs": [
        {
          "components": [
            {
              "internalType": "contract IToken",
              "name": "from",
              "type": "address"
            },
            {
              "internalType": "uint256",
              "name": "fromAmount",
              "type": "uint256"
            },
            {
              "internalType": "contract IToken",
              "name": "to",
              "type": "address"
            },
            {
              "internalType": "uint256",
              "name": "toAmount",
              "type": "uint256"
            },
            {
              "internalType": "string",
              "name": "fromSymbol",
              "type": "string"
            },
            {
              "internalType": "uint256",
              "name": "fromDecimals",
              "type": "uint256"
            },
            {
              "internalType": "string",
              "name": "toSymbol",
              "type": "string"
            },
            {
              "internalType": "uint256",
              "name": "toDecimals",
              "type": "uint256"
            },
            {
              "internalType": "address",
              "name": "owner",
              "type": "address"
            },
            {
              "internalType": "bool",
              "name": "allowPartial",
              "type": "bool"
            },
            {
              "internalType": "uint256",
              "name": "id",
              "type": "uint256"
            },
            {
              "internalType": "bool",
              "name": "transacting",
              "type": "bool"
            },
            {
              "internalType": "enum IOrder.Status",
              "name": "status",
              "type": "uint8"
            },
            {
              "internalType": "uint256",
              "name": "completedAmount",
              "type": "uint256"
            }
          ],
          "internalType": "struct IOrder.Order",
          "name": "order",
          "type": "tuple"
        }
      ],
      "stateMutability": "view",
      "type": "function",
      "constant": true
    },
    {
      "inputs": [
        {
          "internalType": "uint256",
          "name": "orderId",
          "type": "uint256"
        }
      ],
      "name": "isOrderActive",
      "outputs": [
        {
          "internalType": "bool",
          "name": "",
          "type": "bool"
        }
      ],
      "stateMutability": "view",
      "type": "function",
      "constant": true
    },
    {
      "inputs": [
        {
          "internalType": "contract IToken",
          "name": "_token",
          "type": "address"
        }
      ],
      "name": "isTokenBlacklisted",
      "outputs": [
        {
          "internalType": "bool",
          "name": "",
          "type": "bool"
        }
      ],
      "stateMutability": "view",
      "type": "function",
      "constant": true
    },
    {
      "inputs": [
        {
          "internalType": "enum IOrder.Status",
          "name": "status",
          "type": "uint8"
        }
      ],
      "name": "stats",
      "outputs": [
        {
          "internalType": "uint256",
          "name": "",
          "type": "uint256"
        }
      ],
      "stateMutability": "view",
      "type": "function",
      "constant": true
    },
    {
      "inputs": [
        {
          "internalType": "address",
          "name": "user",
          "type": "address"
        },
        {
          "internalType": "contract IToken",
          "name": "from",
          "type": "address"
        },
        {
          "internalType": "uint256",
          "name": "additionalAmount",
          "type": "uint256"
        }
      ],
      "name": "requiredUserTokenAllowance",
      "outputs": [
        {
          "internalType": "uint256",
          "name": "allowance",
          "type": "uint256"
        }
      ],
      "stateMutability": "view",
      "type": "function",
      "constant": true
    },
    {
      "inputs": [
        {
          "internalType": "address",
          "name": "user",
          "type": "address"
        }
      ],
      "name": "listActiveUserOrders",
      "outputs": [
        {
          "components": [
            {
              "internalType": "contract IToken",
              "name": "from",
              "type": "address"
            },
            {
              "internalType": "uint256",
              "name": "fromAmount",
              "type": "uint256"
            },
            {
              "internalType": "contract IToken",
              "name": "to",
              "type": "address"
            },
            {
              "internalType": "uint256",
              "name": "toAmount",
              "type": "uint256"
            },
            {
              "internalType": "string",
              "name": "fromSymbol",
              "type": "string"
            },
            {
              "internalType": "uint256",
              "name": "fromDecimals",
              "type": "uint256"
            },
            {
              "internalType": "string",
              "name": "toSymbol",
              "type": "string"
            },
            {
              "internalType": "uint256",
              "name": "toDecimals",
              "type": "uint256"
            },
            {
              "internalType": "address",
              "name": "owner",
              "type": "address"
            },
            {
              "internalType": "bool",
              "name": "allowPartial",
              "type": "bool"
            },
            {
              "internalType": "uint256",
              "name": "id",
              "type": "uint256"
            },
            {
              "internalType": "bool",
              "name": "transacting",
              "type": "bool"
            },
            {
              "internalType": "enum IOrder.Status",
              "name": "status",
              "type": "uint8"
            },
            {
              "internalType": "uint256",
              "name": "completedAmount",
              "type": "uint256"
            }
          ],
          "internalType": "struct IOrder.Order[]",
          "name": "userOrders",
          "type": "tuple[]"
        }
      ],
      "stateMutability": "view",
      "type": "function",
      "constant": true
    },
    {
      "inputs": [
        {
          "internalType": "uint256",
          "name": "offset",
          "type": "uint256"
        },
        {
          "internalType": "uint256",
          "name": "size",
          "type": "uint256"
        },
        {
          "internalType": "bool",
          "name": "listOnlyActive",
          "type": "bool"
        },
        {
          "internalType": "string",
          "name": "matchSymbol",
          "type": "string"
        }
      ],
      "name": "listOrders",
      "outputs": [
        {
          "components": [
            {
              "internalType": "contract IToken",
              "name": "from",
              "type": "address"
            },
            {
              "internalType": "uint256",
              "name": "fromAmount",
              "type": "uint256"
            },
            {
              "internalType": "contract IToken",
              "name": "to",
              "type": "address"
            },
            {
              "internalType": "uint256",
              "name": "toAmount",
              "type": "uint256"
            },
            {
              "internalType": "string",
              "name": "fromSymbol",
              "type": "string"
            },
            {
              "internalType": "uint256",
              "name": "fromDecimals",
              "type": "uint256"
            },
            {
              "internalType": "string",
              "name": "toSymbol",
              "type": "string"
            },
            {
              "internalType": "uint256",
              "name": "toDecimals",
              "type": "uint256"
            },
            {
              "internalType": "address",
              "name": "owner",
              "type": "address"
            },
            {
              "internalType": "bool",
              "name": "allowPartial",
              "type": "bool"
            },
            {
              "internalType": "uint256",
              "name": "id",
              "type": "uint256"
            },
            {
              "internalType": "bool",
              "name": "transacting",
              "type": "bool"
            },
            {
              "internalType": "enum IOrder.Status",
              "name": "status",
              "type": "uint8"
            },
            {
              "internalType": "uint256",
              "name": "completedAmount",
              "type": "uint256"
            }
          ],
          "internalType": "struct IOrder.Order[]",
          "name": "page",
          "type": "tuple[]"
        },
        {
          "internalType": "uint256",
          "name": "newOffset",
          "type": "uint256"
        },
        {
          "internalType": "uint256",
          "name": "entries",
          "type": "uint256"
        }
      ],
      "stateMutability": "view",
      "type": "function",
      "constant": true
    },
    {
      "inputs": [
        {
          "internalType": "uint256",
          "name": "orderId",
          "type": "uint256"
        },
        {
          "internalType": "uint256",
          "name": "amount",
          "type": "uint256"
        }
      ],
      "name": "orderPayoffAmount",
      "outputs": [
        {
          "internalType": "uint256",
          "name": "payoffAmount",
          "type": "uint256"
        }
      ],
      "stateMutability": "view",
      "type": "function",
      "constant": true
    },
    {
      "inputs": [
        {
          "internalType": "contract IToken",
          "name": "from",
          "type": "address"
        },
        {
          "internalType": "uint256",
          "name": "fromAmount",
          "type": "uint256"
        },
        {
          "internalType": "contract IToken",
          "name": "to",
          "type": "address"
        },
        {
          "internalType": "uint256",
          "name": "toAmount",
          "type": "uint256"
        },
        {
          "internalType": "bool",
          "name": "allowPartial",
          "type": "bool"
        }
      ],
      "name": "createOrder",
      "outputs": [
        {
          "internalType": "uint256",
          "name": "orderId",
          "type": "uint256"
        }
      ],
      "stateMutability": "nonpayable",
      "type": "function"
    },
    {
      "inputs": [
        {
          "internalType": "uint256",
          "name": "orderId",
          "type": "uint256"
        }
      ],
      "name": "closeOrder",
      "outputs": [
        {
          "internalType": "bool",
          "name": "",
          "type": "bool"
        }
      ],
      "stateMutability": "nonpayable",
      "type": "function"
    },
    {
      "inputs": [
        {
          "internalType": "uint256",
          "name": "orderId",
          "type": "uint256"
        },
        {
          "internalType": "uint256",
          "name": "amount",
          "type": "uint256"
        },
        {
          "internalType": "address",
          "name": "wallet",
          "type": "address"
        }
      ],
      "name": "claimOrder",
      "outputs": [
        {
          "internalType": "bool",
          "name": "",
          "type": "bool"
        }
      ],
      "stateMutability": "nonpayable",
      "type": "function"
    },
    {
      "inputs": [
        {
          "internalType": "contract IToken",
          "name": "_token",
          "type": "address"
        },
        {
          "internalType": "uint256",
          "name": "_reward",
          "type": "uint256"
        }
      ],
      "name": "updateReward",
      "outputs": [],
      "stateMutability": "nonpayable",
      "type": "function"
    },
    {
      "inputs": [
        {
          "internalType": "contract IToken",
          "name": "_token",
          "type": "address"
        },
        {
          "internalType": "bool",
          "name": "state",
          "type": "bool"
        }
      ],
      "name": "blacklistToken",
      "outputs": [],
      "stateMutability": "nonpayable",
      "type": "function"
    },
    {
      "inputs": [
        {
          "internalType": "bool",
          "name": "state",
          "type": "bool"
        }
      ],
      "name": "freeze",
      "outputs": [],
      "stateMutability": "nonpayable",
      "type": "function"
    }
  ],
  "bytecode": "0x60a06040523480156200001157600080fd5b506040516200416238038062004162833981016040819052620000349162000247565b60006200004964010000000062000159810204565b60008054600160a060020a031916600160a060020a03831690811782556040519293509160008051602062004142833981519152908290a3506000805460a060020a60ff0219169055600160a060020a038116620000de576040517f08c379a0000000000000000000000000000000000000000000000000000000008152600401620000d590620002e2565b60405180910390fd5b600160a060020a03821662000121576040517f08c379a0000000000000000000000000000000000000000000000000000000008152600401620000d59062000319565b6c01000000000000000000000000600160a060020a0382160260805262000151826401000000006200015d810204565b50506200039e565b3390565b6200017064010000000062000159810204565b600054600160a060020a03908116911614620001ba576040517f08c379a0000000000000000000000000000000000000000000000000000000008152600401620000d59062000350565b600160a060020a038116620001fd576040517f08c379a0000000000000000000000000000000000000000000000000000000008152600401620000d59062000285565b60008054604051600160a060020a03808516939216916000805160206200414283398151915291a360008054600160a060020a031916600160a060020a0392909216919091179055565b600080604083850312156200025a578182fd5b8251620002678162000385565b60208401519092506200027a8162000385565b809150509250929050565b60208082526026908201527f4f776e61626c653a206e6577206f776e657220697320746865207a65726f206160408201527f6464726573730000000000000000000000000000000000000000000000000000606082015260800190565b6020808252601f908201527f496e76616c69642074726561737572792077616c6c6574206164647265737300604082015260600190565b60208082526015908201527f496e76616c6964206f776e657220616464726573730000000000000000000000604082015260600190565b6020808252818101527f4f776e61626c653a2063616c6c6572206973206e6f7420746865206f776e6572604082015260600190565b600160a060020a03811681146200039b57600080fd5b50565b6080516c010000000000000000000000009004613d6f620003d3600039806101b6528061024e52806114fd5250613d6f6000f3fe6080604052600436106101a45760003560e060020a900480638699a65f116100f0578063c5a5cd691161008e578063d539139311610068578063d53913931461056e578063d6e4358514610583578063f2fde38b146105a3578063fc0c546a146105c357610241565b8063c5a5cd6914610501578063ce9be9ba14610521578063d09ef2411461054157610241565b8063b0f8bb12116100ca578063b0f8bb121461047f578063b5bf15e51461049f578063c028c838146104bf578063c4d5d0dd146104ec57610241565b80638699a65f146104355780638da5cb5b1461044a5780639c5bbcf91461045f57610241565b80633012b94e1161015d57806361d027b31161013757806361d027b3146103af578063715018a6146103d157806382545978146103e657806386317b961461041557610241565b80633012b94e146103655780635662ecc7146103855780635c975abb1461039a57610241565b8063069d6d1c14610296578063121025fe146102cc578063190e4c55146102ee5780631a39912514610310578063228cb733146103305780632ad54a921461034557610241565b3661024157604051600160a060020a037f000000000000000000000000000000000000000000000000000000000000000016903480156108fc02916000818181858888f193505050501580156101fe573d6000803e3d6000fd5b507f2a01595cddf097c90216094025db714da3f4e5bd8877b56ba86a24ecead8e5436102286105d8565b3460405161023792919061330f565b60405180910390a1005b604051600160a060020a037f000000000000000000000000000000000000000000000000000000000000000016903480156108fc02916000818181858888f193505050501580156101fe573d6000803e3d6000fd5b3480156102a257600080fd5b506102b66102b1366004613011565b6105dc565b6040516102c39190613384565b60405180910390f35b3480156102d857600080fd5b506102e161075b565b6040516102c3919061338f565b3480156102fa57600080fd5b5061030e610309366004612eb9565b610761565b005b34801561031c57600080fd5b5061030e61032b366004612ef1565b610863565b34801561033c57600080fd5b506102e1610a03565b34801561035157600080fd5b506102e1610360366004612f1c565b610a09565b34801561037157600080fd5b506102b6610380366004613062565b6111a8565b34801561039157600080fd5b506102e16114e5565b3480156103a657600080fd5b506102b66114eb565b3480156103bb57600080fd5b506103c46114fb565b6040516102c391906132e1565b3480156103dd57600080fd5b5061030e61151f565b3480156103f257600080fd5b5061040661040136600461309a565b6115ae565b6040516102c39392919061335f565b34801561042157600080fd5b506102b6610430366004613011565b611a98565b34801561044157600080fd5b506102e1611ab2565b34801561045657600080fd5b506103c4611ab8565b34801561046b57600080fd5b506102e161047a366004612f7a565b611ac7565b34801561048b57600080fd5b506102e161049a366004612e41565b611afa565b3480156104ab57600080fd5b5061030e6104ba366004612e81565b611d95565b3480156104cb57600080fd5b506104df6104da366004612e25565b611deb565b6040516102c3919061334c565b3480156104f857600080fd5b506102e16120b4565b34801561050d57600080fd5b506102e161051c366004613041565b6120ba565b34801561052d57600080fd5b506102b661053c366004612e25565b612158565b34801561054d57600080fd5b5061056161055c366004613011565b612176565b6040516102c39190613c21565b34801561057a57600080fd5b506102e161237a565b34801561058f57600080fd5b506102b661059e366004613011565b61239e565b3480156105af57600080fd5b5061030e6105be366004612e25565b6123f8565b3480156105cf57600080fd5b506103c46124c1565b3390565b6000818152600660205260408120600a0154829060ff161561061c5760405160e560020a62461bcd028152600401610613906138d1565b60405180910390fd5b600081815260066020526040808220600a01805460ff1916600117905584825290206009015483906106635760405160e560020a62461bcd0281526004016106139061399a565b60026000828152600660205260409020600a0154610100900460ff16600381111561068a57fe5b141580156106bd575060036000828152600660205260409020600a0154610100900460ff1660038111156106ba57fe5b14155b6106dc5760405160e560020a62461bcd028152600401610613906134b0565b6106e46105d8565b600085815260066020526040902060080154600160a060020a039081169116146107235760405160e560020a62461bcd028152600401610613906137ba565b600084815260066020526040902061073c9060036124d0565b506000908152600660205260409020600a01805460ff19169055919050565b60095481565b6107696105d8565b600054600160a060020a039081169116146107995760405160e560020a62461bcd02815260040161061390613908565b600160a060020a0382166000908152600a60205260409020805460ff19168215801591909117909155610814576009805460010190557fb0dff05d63bda79ce2b542fd08755b28bc58bca10a39883608bb71f687edfdf7826107f96105d8565b6040516108079291906132f5565b60405180910390a161085f565b600980546000190190557f51ebcd2e6a7592e9883b86a58bb3dcaeb7aa87e0475fb26ff0a1eadba26dcfe4826108486105d8565b6040516108569291906132f5565b60405180910390a15b5050565b61086b6105d8565b600054600160a060020a0390811691161461089b5760405160e560020a62461bcd02815260040161061390613908565b600160a060020a0382166108c45760405160e560020a62461bcd02815260040161061390613af9565b6040517f91d14854000000000000000000000000000000000000000000000000000000008152600160a060020a038316906391d148549061092b907f9f2df0fed2c77648de5860a4cc508cd0818c85b8b8a1ab4ceeef8d981c8956a6903090600401613398565b602060405180830381600087803b15801561094557600080fd5b505af1158015610959573d6000803e3d6000fd5b505050506040513d601f19601f8201168201806040525081019061097d9190612e9d565b61099c5760405160e560020a62461bcd02815260040161061390613479565b6001805473ffffffffffffffffffffffffffffffffffffffff1916600160a060020a03841617905560028190557fc8d71d1dc9e781ced39e0ea7e9acc09b0a1a07e73daf21d78f651b2e4a37c52e82826109f46105d8565b604051610856939291906133af565b60025481565b6000805460a060020a900460ff1615610a375760405160e560020a62461bcd02815260040161061390613783565b85610a4181612158565b15610a615760405160e560020a62461bcd0281526004016106139061374c565b84610a6b81612158565b15610a8b5760405160e560020a62461bcd0281526004016106139061374c565b600087118015610a9b5750600085115b610aba5760405160e560020a62461bcd0281526004016106139061356a565b85600160a060020a031688600160a060020a03161415610aef5760405160e560020a62461bcd028152600401610613906139d1565b610af888612618565b610b175760405160e560020a62461bcd028152600401610613906135d8565b610b2086612618565b610b3f5760405160e560020a62461bcd028152600401610613906135a1565b606088600160a060020a03166395d89b416040518163ffffffff1660e060020a028152600401600060405180830381600087803b158015610b7f57600080fd5b505af1158015610b93573d6000803e3d6000fd5b505050506040513d6000823e601f3d908101601f19168201604052610bbb9190810190612f99565b9050600089600160a060020a031663313ce5676040518163ffffffff1660e060020a028152600401602060405180830381600087803b158015610bfd57600080fd5b505af1158015610c11573d6000803e3d6000fd5b505050506040513d601f19601f82011682018060405250810190610c359190613029565b9050606088600160a060020a03166395d89b416040518163ffffffff1660e060020a028152600401600060405180830381600087803b158015610c7757600080fd5b505af1158015610c8b573d6000803e3d6000fd5b505050506040513d6000823e601f3d908101601f19168201604052610cb39190810190612f99565b905060008b600160a060020a031663313ce5676040518163ffffffff1660e060020a028152600401602060405180830381600087803b158015610cf557600080fd5b505af1158015610d09573d6000803e3d6000fd5b505050506040513d601f19601f82011682018060405250810190610d2d9190613029565b905060008451118015610d405750600083115b610d5f5760405160e560020a62461bcd02815260040161061390613874565b60008251118015610d705750600081115b610d8f5760405160e560020a62461bcd02815260040161061390613a9c565b610da1610d9a6105d8565b8d8d611afa565b8c600160a060020a031663dd62ed3e610db86105d8565b306040518363ffffffff1660e060020a028152600401610dd99291906132f5565b60206040518083038186803b158015610df157600080fd5b505afa158015610e05573d6000803e3d6000fd5b505050506040513d601f19601f82011682018060405250810190610e299190613029565b1015610e4a5760405160e560020a62461bcd02815260040161061390613692565b8a8c600160a060020a03166370a08231610e626105d8565b6040518263ffffffff1660e060020a028152600401610e8191906132e1565b60206040518083038186803b158015610e9957600080fd5b505afa158015610ead573d6000803e3d6000fd5b505050506040513d601f19601f82011682018060405250810190610ed19190613029565b1015610ef25760405160e560020a62461bcd02815260040161061390613635565b6005600081546001019190508190559650604051806101c001604052808d600160a060020a031681526020018c81526020018b600160a060020a031681526020018a8152602001858152602001848152602001838152602001828152602001610f596105d8565b600160a060020a03168152891515602082015260408101899052600060608201819052608090910190815260006020918201819052898152600682526040908190208351815473ffffffffffffffffffffffffffffffffffffffff19908116600160a060020a03928316178355858501516001840155928501516002830180549094169116179091556060830151600382015560808301518051919261100792600485019290910190612d23565b5060a0820151600582015560c0820151805161102d916006840191602090910190612d23565b5060e082015160078201556101008083015160088301805461012086015173ffffffffffffffffffffffffffffffffffffffff19909116600160a060020a039093169290921774ff0000000000000000000000000000000000000000191660a060020a921515929092029190911790556101408301516009830155610160830151600a8301805460ff1916911515919091178082556101808501519261ff0019909116908360038111156110dd57fe5b02179055506101a09190910151600b90910155600080805260086020527f5eff886ea0ce6ca488a3d6e336d6c0f75f46d19b42c06ce5ee98e42c96d256c78054600101905560079061112d6105d8565b600160a060020a03168152602080820192909252604090810160009081208054600181018255908252929020909101889055517f89f897c504b69b59ad55283ab53153437d5edca35a5463384eb830075f50d8849061119190899087908690613c5f565b60405180910390a150505050505095945050505050565b6000805460a060020a900460ff16156111d65760405160e560020a62461bcd02815260040161061390613783565b6000848152600660205260409020600a0154849060ff161561120d5760405160e560020a62461bcd028152600401610613906138d1565b600081815260066020526040808220600a01805460ff1916600117905586825290206009015485906112545760405160e560020a62461bcd0281526004016106139061399a565b60026000828152600660205260409020600a0154610100900460ff16600381111561127b57fe5b141580156112ae575060036000828152600660205260409020600a0154610100900460ff1660038111156112ab57fe5b14155b6112cd5760405160e560020a62461bcd028152600401610613906134b0565b60008681526006602052604090206008810154600160a060020a038681169116141561130e5760405160e560020a62461bcd02815260040161061390613b30565b6008810154600160a060020a03166113246105d8565b600160a060020a0316141561134e5760405160e560020a62461bcd02815260040161061390613817565b600061135a88886120ba565b60028301549091508190600160a060020a031663dd62ed3e61137a6105d8565b306040518363ffffffff1660e060020a02815260040161139b9291906132f5565b60206040518083038186803b1580156113b357600080fd5b505afa1580156113c7573d6000803e3d6000fd5b505050506040513d601f19601f820116820180604052508101906113eb9190613029565b101561140c5760405160e560020a62461bcd02815260040161061390613a3f565b600b8201805488019081905560018301546000911461142c57600161142f565b60025b905061143b83826124d0565b6114646114466105d8565b60088501546002860154600160a060020a039081169291168561261e565b6008830154835461148391600160a060020a039182169116898b61261e565b600281600381111561149157fe5b14156114ae5760088301546114ae90600160a060020a03166126ac565b6114be6114b96105d8565b6126ac565b505050600091825250600660205260409020600a01805460ff191690555060019392505050565b60055481565b60005460a060020a900460ff1690565b7f000000000000000000000000000000000000000000000000000000000000000081565b6115276105d8565b600054600160a060020a039081169116146115575760405160e560020a62461bcd02815260040161061390613908565b60008054604051600160a060020a03909116907f8be0079c531659141344cd1fd0a4f28419497f9722a3daafe3b4186f6b6457e0908390a36000805473ffffffffffffffffffffffffffffffffffffffff19169055565b606060008060648611156115d75760405160e560020a62461bcd02815260040161061390613bea565b8567ffffffffffffffff811180156115ee57600080fd5b5060405190808252806020026020018201604052801561162857816020015b611615612d9d565b81526020019060019003908161160d5790505b50925060005b86811015611a8d576005548882019081106116495750611a8d565b60055481900387158061166057506116608161239e565b8015611867575060008181526006602090815260409182902082516101c0810184528154600160a060020a03908116825260018084015483860152600280850154909216838701526003840154606084015260048401805487516101009382161593909302600019011692909204601f81018690048602820186019096528581526118679592946080860193919291908301828280156117415780601f1061171657610100808354040283529160200191611741565b820191906000526020600020905b81548152906001019060200180831161172457829003601f168201915b5050509183525050600582015460208083019190915260068301805460408051601f600260001961010060018716150201909416939093049283018590048502810185018252828152940193928301828280156117df5780601f106117b4576101008083540402835291602001916117df565b820191906000526020600020905b8154815290600101906020018083116117c257829003601f168201915b5050509183525050600782015460208201526008820154600160a060020a038116604083015260ff60a060020a90910481161515606083015260098301546080830152600a830154808216151560a084015260c090920191610100900416600381111561184857fe5b600381111561185357fe5b8152602001600b8201548152505088612783565b15611a835760008181526006602090815260409182902082516101c0810184528154600160a060020a039081168252600180840154838601526002808501549092168387015260038401546060840152600484018054875161010082851615026000190190911693909304601f81018790048702840187019097528683528882019b509901989194929360808601939192919083018282801561194b5780601f106119205761010080835404028352916020019161194b565b820191906000526020600020905b81548152906001019060200180831161192e57829003601f168201915b5050509183525050600582015460208083019190915260068301805460408051601f600260001961010060018716150201909416939093049283018590048502810185018252828152940193928301828280156119e95780601f106119be576101008083540402835291602001916119e9565b820191906000526020600020905b8154815290600101906020018083116119cc57829003601f168201915b5050509183525050600782015460208201526008820154600160a060020a038116604083015260ff60a060020a90910481161515606083015260098301546080830152600a830154808216151560a084015260c0909201916101009004166003811115611a5257fe5b6003811115611a5d57fe5b8152602001600b82015481525050868481518110611a7757fe5b60200260200101819052505b505060010161162e565b509450945094915050565b60008181526006602052604090206009015415155b919050565b60035481565b600054600160a060020a031690565b600060086000836003811115611ad957fe5b6003811115611ae457fe5b8152602001908152602001600020549050919050565b6000805b600160a060020a038516600090815260076020526040902054811015611d8d57600160a060020a0385166000908152600760205260408120805483908110611b4257fe5b90600052602060002001549050611b57612d9d565b60008281526006602090815260409182902082516101c0810184528154600160a060020a03908116825260018084015483860152600280850154909216838701526003840154606084015260048401805487516101009382161593909302600019011692909204601f810186900486028201860190965285815291949293608086019390830182828015611c2c5780601f10611c0157610100808354040283529160200191611c2c565b820191906000526020600020905b815481529060010190602001808311611c0f57829003601f168201915b5050509183525050600582015460208083019190915260068301805460408051601f60026000196101006001871615020190941693909304928301859004850281018501825282815294019392830182828015611cca5780601f10611c9f57610100808354040283529160200191611cca565b820191906000526020600020905b815481529060010190602001808311611cad57829003601f168201915b5050509183525050600782015460208201526008820154600160a060020a038116604083015260ff60a060020a90910481161515606083015260098301546080830152600a830154808216151560a084015260c0909201916101009004166003811115611d3357fe5b6003811115611d3e57fe5b8152602001600b82015481525050905085600160a060020a03168160000151600160a060020a031614611d72575050611d85565b806101a001518160200151038401935050505b600101611afe565b500192915050565b611d9d6105d8565b600054600160a060020a03908116911614611dcd5760405160e560020a62461bcd02815260040161061390613908565b8015611de057611ddb6127b0565b611de8565b611de8612841565b50565b600160a060020a0381166000908152600760205260409020546060908067ffffffffffffffff81118015611e1e57600080fd5b50604051908082528060200260200182016040528015611e5857816020015b611e45612d9d565b815260200190600190039081611e3d5790505b50915060005b818110156120ad57600160a060020a0384166000908152600760205260408120805483908110611e8a57fe5b6000918252602080832091909101548083526006825260409283902083516101c0810185528154600160a060020a03908116825260018084015483870152600280850154909216838801526003840154606084015260048401805488516101009382161593909302600019011692909204601f81018790048702820187019097528681529396509094919360808601939290830182828015611f6d5780601f10611f4257610100808354040283529160200191611f6d565b820191906000526020600020905b815481529060010190602001808311611f5057829003601f168201915b5050509183525050600582015460208083019190915260068301805460408051601f6002600019610100600187161502019094169390930492830185900485028101850182528281529401939283018282801561200b5780601f10611fe05761010080835404028352916020019161200b565b820191906000526020600020905b815481529060010190602001808311611fee57829003601f168201915b5050509183525050600782015460208201526008820154600160a060020a038116604083015260ff60a060020a90910481161515606083015260098301546080830152600a830154808216151560a084015260c090920191610100900416600381111561207457fe5b600381111561207f57fe5b8152602001600b8201548152505084838151811061209957fe5b602090810291909101015250600101611e5e565b5050919050565b60045481565b600082815260066020526040812082158015906120e1575080600b01548160010154038311155b6121005760405160e560020a62461bcd0281526004016106139061341c565b600881015460a060020a900460ff168061211d5750806001015483145b61213c5760405160e560020a62461bcd028152600401610613906136ef565b8060010154816003015484028161214f57fe5b04949350505050565b600160a060020a03166000908152600a602052604090205460ff1690565b61217e612d9d565b60008281526006602090815260409182902082516101c0810184528154600160a060020a03908116825260018084015483860152600280850154909216838701526003840154606084015260048401805487516101009382161593909302600019011692909204601f8101869004860282018601909652858152919492936080860193908301828280156122535780601f1061222857610100808354040283529160200191612253565b820191906000526020600020905b81548152906001019060200180831161223657829003601f168201915b5050509183525050600582015460208083019190915260068301805460408051601f600260001961010060018716150201909416939093049283018590048502810185018252828152940193928301828280156122f15780601f106122c6576101008083540402835291602001916122f1565b820191906000526020600020905b8154815290600101906020018083116122d457829003601f168201915b5050509183525050600782015460208201526008820154600160a060020a038116604083015260ff60a060020a90910481161515606083015260098301546080830152600a830154808216151560a084015260c090920191610100900416600381111561235a57fe5b600381111561236557fe5b8152602001600b820154815250509050919050565b7f9f2df0fed2c77648de5860a4cc508cd0818c85b8b8a1ab4ceeef8d981c8956a681565b6000818152600660205260408120600a0154610100900460ff166123c183611a98565b80156123d9575060028160038111156123d657fe5b14155b80156123f1575060038160038111156123ee57fe5b14155b9392505050565b6124006105d8565b600054600160a060020a039081169116146124305760405160e560020a62461bcd02815260040161061390613908565b600160a060020a0381166124595760405160e560020a62461bcd0281526004016106139061350d565b60008054604051600160a060020a03808516939216917f8be0079c531659141344cd1fd0a4f28419497f9722a3daafe3b4186f6b6457e091a36000805473ffffffffffffffffffffffffffffffffffffffff1916600160a060020a0392909216919091179055565b600154600160a060020a031681565b600a8201805461010080820460ff16928492909161ff0019909116908360038111156124f857fe5b02179055506008600082600381111561250d57fe5b600381111561251857fe5b815260208101919091526040016000908120805460001901905560089083600381111561254157fe5b600381111561254c57fe5b8152602081019190915260400160002080546001019055600282600381111561257157fe5b14806125885750600382600381111561258657fe5b145b156125d457600883015460098401546000916125af91600160a060020a03909116906128b4565b915050806125d25760405160e560020a62461bcd0281526004016106139061393d565b505b7fbd63b5282661ee29288057b2d23c1d8f53d1623238e656d3ab0313766e232cfe8360090154828460405161260b93929190613c34565b60405180910390a1505050565b3b151590565b6126a6846323b872dd60e060020a0285858560405160240161264293929190613328565b60408051601f198184030181529190526020810180517bffffffffffffffffffffffffffffffffffffffffffffffffffffffff167fffffffff0000000000000000000000000000000000000000000000000000000090931692909217909152612a0d565b50505050565b60025415611de8576001546002546040517f40c10f19000000000000000000000000000000000000000000000000000000008152600160a060020a03909216916340c10f19916127019185919060040161330f565b600060405180830381600087803b15801561271b57600080fd5b505af115801561272f573d6000803e3d6000fd5b5050600380546001019055505060025460048054820190556040517f619caafabdd75649b302ba8419e48cccf64f37f1983ac4727cfb38b57703ffc9916127789184919061330f565b60405180910390a150565b6000612793836080015183612aa4565b806127a757506127a78360c0015183612aa4565b90505b92915050565b60005460a060020a900460ff16156127dd5760405160e560020a62461bcd02815260040161061390613783565b6000805474ff0000000000000000000000000000000000000000191660a060020a1790557f62e78cea01bee320cd4e420270b5ea74000d11b0c9f74754ebdbfc544b05a25861282a6105d8565b60405161283791906132e1565b60405180910390a1565b60005460a060020a900460ff1661286d5760405160e560020a62461bcd028152600401610613906133e5565b6000805474ff0000000000000000000000000000000000000000191690557f5db9ee0a495bf2e6ff9c91a7834c1ba4fdd244a5e8aa4e537bd38aeae4b073aa61282a6105d8565b60008060005b600160a060020a03851660009081526007602052604090205481101561292657600160a060020a038516600090815260076020526040902080548591908390811061290157fe5b9060005260206000200154141561291e5760019150809250612926565b6001016128ba565b508061293157612a06565b815b600160a060020a038516600090815260076020526040902054600019018110156129cd57600160a060020a038516600090815260076020526040902080546001830190811061297e57fe5b90600052602060002001546007600087600160a060020a0316600160a060020a0316815260200190815260200160002082815481106129b957fe5b600091825260209091200155600101612933565b50600160a060020a03841660009081526007602052604090208054806129ef57fe5b600190038181906000526020600020016000905590555b9250929050565b6060612a62826040518060400160405280602081526020017f5361666545524332303a206c6f772d6c6576656c2063616c6c206661696c656481525085600160a060020a0316612b8b9092919063ffffffff16565b805190915015612a9f5780806020019051810190612a809190612e9d565b612a9f5760405160e560020a62461bcd02815260040161061390613b8d565b505050565b81516000908390612ab95760019150506127aa565b8260005b8151835103811015612b8257600160005b8351811015612b6857612afd848281518110612ae657fe5b602001015160f860020a900460f860020a02612ba2565b7effffffffffffffffffffffffffffffffffffffffffffffffffffffffffffff1916612b308683860181518110612ae657fe5b7fff000000000000000000000000000000000000000000000000000000000000001614612b605760009150612b68565b600101612ace565b508015612b79576001945050612b82565b50600101612abd565b50505092915050565b6060612b9a8484600085612c59565b949350505050565b60007f61000000000000000000000000000000000000000000000000000000000000007fff00000000000000000000000000000000000000000000000000000000000000831610801590612c3857507f7a000000000000000000000000000000000000000000000000000000000000007fff00000000000000000000000000000000000000000000000000000000000000831611155b15612c555760208260f860020a90040360f860020a029050611aad565b5090565b6060612c6485612618565b612c835760405160e560020a62461bcd02815260040161061390613a08565b6000606086600160a060020a03168587604051612ca091906132c5565b60006040518083038185875af1925050503d8060008114612cdd576040519150601f19603f3d011682016040523d82523d6000602084013e612ce2565b606091505b50915091508115612cf6579150612b9a9050565b805115612d065780518082602001fd5b8360405160e560020a62461bcd02815260040161061391906133d2565b828054600181600116156101000203166002900490600052602060002090601f016020900481019282601f10612d6457805160ff1916838001178555612d91565b82800160010185558215612d91579182015b82811115612d91578251825591602001919060010190612d76565b50612c55929150612e10565b604080516101c08101825260008082526020820181905291810182905260608082018390526080820181905260a0820183905260c082015260e081018290526101008101829052610120810182905261014081018290526101608101829052906101808201908152602001600081525090565b5b80821115612c555760008155600101612e11565b600060208284031215612e36578081fd5b81356123f181613d16565b600080600060608486031215612e55578182fd5b8335612e6081613d16565b92506020840135612e7081613d16565b929592945050506040919091013590565b600060208284031215612e92578081fd5b81356123f181613d2b565b600060208284031215612eae578081fd5b81516123f181613d2b565b60008060408385031215612ecb578182fd5b8235612ed681613d16565b91506020830135612ee681613d2b565b809150509250929050565b60008060408385031215612f03578182fd5b8235612f0e81613d16565b946020939093013593505050565b600080600080600060a08688031215612f33578081fd5b8535612f3e81613d16565b9450602086013593506040860135612f5581613d16565b9250606086013591506080860135612f6c81613d2b565b809150509295509295909350565b600060208284031215612f8b578081fd5b8135600481106123f1578182fd5b600060208284031215612faa578081fd5b815167ffffffffffffffff811115612fc0578182fd5b8201601f81018413612fd0578182fd5b8051612fe3612fde82613cbb565b613c94565b818152856020838501011115612ff7578384fd5b613008826020830160208601613cea565b95945050505050565b600060208284031215613022578081fd5b5035919050565b60006020828403121561303a578081fd5b5051919050565b60008060408385031215613053578182fd5b50508035926020909101359150565b600080600060608486031215613076578283fd5b8335925060208401359150604084013561308f81613d16565b809150509250925092565b600080600080608085870312156130af578182fd5b843593506020850135925060408501356130c881613d2b565b9150606085013567ffffffffffffffff8111156130e3578182fd5b8501601f810187136130f3578182fd5b8035613101612fde82613cbb565b818152886020838501011115613115578384fd5b81602084016020830137908101602001929092525092959194509250565b600160a060020a03169052565b6000815180845260208085018081965082840281019150828601855b858110156131865782840389526131748483516131d3565b9885019893509084019060010161315c565b5091979650505050505050565b15159052565b600481106131a357fe5b9052565b600081518084526131bf816020860160208601613cea565b601f01601f19169290920160200192915050565b60006101c06131e3848451613133565b6020830151602085015260408301516131ff6040860182613133565b50606083015160608501526080830151816080860152613221828601826131a7565b91505060a083015160a085015260c083015184820360c086015261324582826131a7565b91505060e083015160e08501526101008084015161326582870182613133565b50506101208084015161327a82870182613193565b505061014083810151908501526101608084015161329a82870182613193565b5050610180808401516132af82870182613199565b50506101a0928301519390920192909252919050565b600082516132d7818460208701613cea565b9190910192915050565b600160a060020a0391909116815260200190565b600160a060020a0392831681529116602082015260400190565b600160a060020a03929092168252602082015260400190565b600160a060020a039384168152919092166020820152604081019190915260600190565b6000602082526127a76020830184613140565b6000606082526133726060830186613140565b60208301949094525060400152919050565b901515815260200190565b90815260200190565b918252600160a060020a0316602082015260400190565b600160a060020a0393841681526020810192909252909116604082015260600190565b6000602082526127a760208301846131a7565b60208082526014908201527f5061757361626c653a206e6f7420706175736564000000000000000000000000604082015260600190565b60208082526034908201527f416d6f756e74206973206569746865722030206f72206772656174657220746860408201527f616e20746865206f6e6520617661696c61626c65000000000000000000000000606082015260800190565b6020808252601b908201527f4d61726b6574706c616365206973206e6f742061206d696e7465720000000000604082015260600190565b60208082526024908201527f4f726465722069732065697468657220636f6d706c65746564206f7220636c6f60408201527f7365642e00000000000000000000000000000000000000000000000000000000606082015260800190565b60208082526026908201527f4f776e61626c653a206e6577206f776e657220697320746865207a65726f206160408201527f6464726573730000000000000000000000000000000000000000000000000000606082015260800190565b60208082526014908201527f416d6f756e74732063616e206e6f742062652030000000000000000000000000604082015260600190565b6020808252601f908201527f546f6b656e2027746f272073686f756c64206265206120636f6e747261637400604082015260600190565b60208082526021908201527f546f6b656e202766726f6d272073686f756c64206265206120636f6e7472616360408201527f7400000000000000000000000000000000000000000000000000000000000000606082015260800190565b6020808252602f908201527f5573657220646f6573206e6f7420686f6c64207468652064657369726564206160408201527f6d6f756e74206f6620746f6b656e730000000000000000000000000000000000606082015260800190565b6020808252603d908201527f4d61726b6574706c616365206e6f7420616c6c6f77656420746f207370656e6460408201527f20746865206465736972656420616d6f756e74206f6620746f6b656e73000000606082015260800190565b60208082526023908201527f4f7264657220646f6573206e6f7420616c6c6f77207061727469616c2062757960408201527f6f75740000000000000000000000000000000000000000000000000000000000606082015260800190565b60208082526015908201527f546f6b656e20697320626c61636b6c69737465642e0000000000000000000000604082015260600190565b60208082526010908201527f5061757361626c653a2070617573656400000000000000000000000000000000604082015260600190565b60208082526025908201527f4f72646572207570646174657320616c6c6f776564206279206f726e6572732060408201527f6f6e6c7921000000000000000000000000000000000000000000000000000000606082015260800190565b60208082526029908201527f596f752063616e206e6f742074726967676572206275796261636b2066726f6d60408201527f20796f757273656c660000000000000000000000000000000000000000000000606082015260800190565b60208082526027908201527f546f6b656e202766726f6d27206973206e6f7420612076616c6964204552433260408201527f3020746f6b656e00000000000000000000000000000000000000000000000000606082015260800190565b6020808252601a908201527f5265656e7472616e6379206973206e6f7420616c6c6f7765642e000000000000604082015260600190565b6020808252818101527f4f776e61626c653a2063616c6c6572206973206e6f7420746865206f776e6572604082015260600190565b60208082526032908201527f4f72646572206973206e6f7420666f756e64206173206163746976652e20536860408201527f6f756c64206e657665722068617070656e210000000000000000000000000000606082015260800190565b60208082526015908201527f4f7264657220646f6573206e6f742065786973742e0000000000000000000000604082015260600190565b60208082526019908201527f546f6b656e2063616e206e6f74206265207468652073616d6500000000000000604082015260600190565b6020808252601d908201527f416464726573733a2063616c6c20746f206e6f6e2d636f6e7472616374000000604082015260600190565b60208082526039908201527f4d61726b6574706c616365206e6f7420616c6c6f77656420746f207370656e6460408201527f206465736972656420616d6f756e74206f6620746f6b656e7300000000000000606082015260800190565b60208082526025908201527f546f6b656e2027746f27206973206e6f7420612076616c69642045524332302060408201527f746f6b656e000000000000000000000000000000000000000000000000000000606082015260800190565b60208082526015908201527f496e76616c696420746f6b656e20616464726573730000000000000000000000604082015260600190565b60208082526021908201527f596f752063616e206e6f74206275796261636b2066726f6d20796f757273656c60408201527f6600000000000000000000000000000000000000000000000000000000000000606082015260800190565b6020808252602a908201527f5361666545524332303a204552433230206f7065726174696f6e20646964206e60408201527f6f74207375636365656400000000000000000000000000000000000000000000606082015260800190565b60208082526014908201527f4d617820706167652073697a6520697320313030000000000000000000000000604082015260600190565b6000602082526127a760208301846131d3565b83815260608101613c4484613cdf565b6020830152613c5283613cdf565b6040830152949350505050565b600084825260606020830152613c7860608301856131a7565b8281036040840152613c8a81856131a7565b9695505050505050565b60405181810167ffffffffffffffff81118282101715613cb357600080fd5b604052919050565b600067ffffffffffffffff821115613cd1578081fd5b50601f01601f191660200190565b8060048110611aad57fe5b60005b83811015613d05578181015183820152602001613ced565b838111156126a65750506000910152565b600160a060020a0381168114611de857600080fd5b8015158114611de857600080fdfea2646970667358221220044c6c59039b39f502a34f60dc0cd04c1e2308b566cb181d9e0176f6659d738764736f6c634300060c00338be0079c531659141344cd1fd0a4f28419497f9722a3daafe3b4186f6b6457e0",
  "immutableReferences": {
    "110": [
      {
        "length": 32,
        "start": 438
      },
      {
        "length": 32,
        "start": 590
      },
      {
        "length": 32,
        "start": 5373
      }
    ]
  },
  "source": "// SPDX-License-Identifier: MIT\npragma solidity >=0.6.0 <0.8.0;\npragma experimental ABIEncoderV2;\n\nimport \"@openzeppelin/contracts/token/ERC20/SafeERC20.sol\";\nimport \"@openzeppelin/contracts/access/Ownable.sol\";\nimport \"@openzeppelin/contracts/utils/Pausable.sol\";\nimport \"@openzeppelin/contracts/math/SafeMath.sol\";\nimport \"@openzeppelin/contracts/utils/Address.sol\";\nimport \"./IOrder.sol\";\nimport \"./IToken.sol\";\n\ncontract Marketplace is Ownable, Pausable {\n  using SafeMath for uint;\n  using SafeERC20 for IToken;\n\n  bytes32 public constant MINTER_ROLE = keccak256(\"MINTER_ROLE\");\n\n  // @dev treasury wallet to forward donated eth to\n  address payable public immutable treasury;\n\n  // @dev reward token\n  IToken public token;\n\n  // @dev amount tokens to reward for a closed order\n  uint public reward;\n\n  // @dev amount of distributed rewards\n  uint public rewardsCount;\n\n  // @dev value of distributed rewarrds\n  uint public rewardsValue;\n\n  // @dev order if incrementer\n  uint public lastOrderId;\n\n  // @dev orders book\n  mapping (uint => IOrder.Order) orders;\n\n  // @dev active orders of an user\n  mapping (address => uint[]) userActiveOrders;\n\n  // @dev orders status\n  mapping (IOrder.Status => uint) ordersStats;\n\n  // @dev blacklisted tokens count\n  uint public blacklistedTokensCount;\n\n  // @dev token addresses that are blacklisted\n  mapping (IToken => bool) blacklistedTokens;\n\n  /**\n   * @dev Emitted when the donation of `value` received from `account`.\n   */\n  event Donated(address account, uint value);\n\n  /**\n   * @dev Emitted when a `token` gets blacklisted by `who`.\n   */\n  event BlacklistedToken(IToken token, address who);\n\n  /**\n   * @dev Emitted when a `token` gets un-blacklisted by `who`.\n   */\n  event UnblacklistedToken(IToken token, address who);\n\n  /**\n   * @dev Emitted when reward `token` and a `reward` amount apecified by `who`.\n   */\n  event RewardUpdated(IToken token, uint reward, address who);\n\n  /**\n   * @dev Emitted when `receiver` rewarded with `reward` amount of tokens.\n   */\n  event Reward(address receiver, uint reward);\n\n  /**\n   * @dev Order updated\n   */\n  event OrderCreated(uint orderId, string fromSymbol, string toSymbol);\n\n  /**\n   * @dev Order updated\n   */\n  event OrderUpdated(uint orderId, IOrder.Status fromStatus, IOrder.Status toStatus);\n\n  /**\n   * @dev check if `token` is not blacklisted\n   */\n  modifier isNotBlacklisted(IToken _token) {\n    require(\n      isTokenBlacklisted(_token) == false,\n      \"Token is blacklisted.\"\n    );\n    _;\n  }\n\n  modifier orderReentrancyGuard(uint orderId) {\n    require(\n      orders[orderId].transacting == false,\n      \"Reentrancy is not allowed.\"\n    );\n    orders[orderId].transacting = true;\n    _;\n    orders[orderId].transacting = false;\n  }\n\n  modifier orderOpen(uint orderId) {\n    require(\n      orders[orderId].id > 0,\n      \"Order does not exist.\"\n    );\n    require(\n      orders[orderId].status != IOrder.Status.Completed\n        && orders[orderId].status != IOrder.Status.Closed,\n      \"Order is either completed or closed.\"\n    );\n    _;\n  }\n\n  constructor(\n    address _owner,\n    address payable _treasury\n  ) public {\n    require(_treasury != address(0), \"Invalid treasury wallet address\");\n    require(_owner != address(0), \"Invalid owner address\");\n\n    treasury = _treasury;\n    transferOwnership(_owner);\n  }\n\n  function orderExists(uint orderId) public view returns (bool) {\n    return orders[orderId].id > 0;\n  }\n\n  function getOrder(uint orderId) public view returns (IOrder.Order memory order) {\n    order = orders[orderId];\n  }\n\n  function isOrderActive(uint orderId) public view returns (bool) {\n    IOrder.Status status = orders[orderId].status;\n\n    return orderExists(orderId)\n      && status != IOrder.Status.Completed\n      && status != IOrder.Status.Closed;\n  }\n\n  function isTokenBlacklisted(IToken _token) public view returns (bool) {\n    return blacklistedTokens[_token];\n  }\n\n  function stats(IOrder.Status status) public view returns (uint) {\n    return ordersStats[status];\n  }\n\n  function requiredUserTokenAllowance(address user, IToken from, uint additionalAmount) public view\n  returns (uint allowance) {\n    for (uint i = 0; i < userActiveOrders[user].length; i++) {\n      uint orderId = userActiveOrders[user][i]; \n      IOrder.Order memory order = orders[orderId];\n\n      if (address(order.from) != address(from)) {\n        continue;\n      }\n\n      allowance += order.fromAmount - order.completedAmount;\n    }\n\n    return allowance + additionalAmount;\n  }\n\n  function listActiveUserOrders(address user) public view\n  returns (IOrder.Order[] memory userOrders) {\n    uint count = userActiveOrders[user].length;\n    userOrders = new IOrder.Order[](count);\n\n    for (uint i = 0; i < count; i++) {\n      uint orderId = userActiveOrders[user][i]; \n      userOrders[i] = orders[orderId];\n    }\n  }\n\n  function listOrders(uint offset, uint size, bool listOnlyActive, string memory matchSymbol) public view\n  returns (IOrder.Order[] memory page, uint newOffset, uint entries) {\n    require(size <= 100, \"Max page size is 100\");\n    page = new IOrder.Order[](size);\n\n    for (uint i = 0; i < size; i++) {\n      uint y = offset + i;\n\n      if (y >= lastOrderId) {\n        break;\n      }\n\n      uint orderId = lastOrderId - y;\n\n      if ((!listOnlyActive || isOrderActive(orderId))\n        && _matchOrderTokens(orders[orderId], matchSymbol)) {\n        entries++;\n        newOffset = y + 1;\n        page[i] = orders[orderId];\n      }\n    }\n  }\n\n  function orderPayoffAmount(uint orderId, uint amount) public view returns (uint payoffAmount) {\n    IOrder.Order storage order = orders[orderId];\n    require(\n      amount > 0 && amount <= (order.fromAmount - order.completedAmount),\n      \"Amount is either 0 or greater than the one available\"\n    );\n    require(order.allowPartial || amount == order.fromAmount, \"Order does not allow partial buyout\");\n\n    payoffAmount = amount * order.toAmount / order.fromAmount;\n  }\n\n  function createOrder(\n    IToken from,\n    uint fromAmount,\n    IToken to,\n    uint toAmount,\n    bool allowPartial\n  ) public\n  whenNotPaused isNotBlacklisted(from) isNotBlacklisted(to)\n  returns (uint orderId) {\n    require(fromAmount > 0 && toAmount > 0, \"Amounts can not be 0\");\n    require(address(from) != address(to), \"Token can not be the same\");\n    require(Address.isContract(address(from)), \"Token 'from' should be a contract\");\n    require(Address.isContract(address(to)), \"Token 'to' should be a contract\");\n\n    string memory fromSymbol = from.symbol();\n    uint fromDecimals = from.decimals();\n    string memory toSymbol = to.symbol();\n    uint toDecimals = from.decimals();\n\n    require(bytes(fromSymbol).length > 0 && fromDecimals > 0, \"Token 'from' is not a valid ERC20 token\");\n    require(bytes(toSymbol).length > 0 && toDecimals> 0, \"Token 'to' is not a valid ERC20 token\");\n    require(\n      from.allowance(_msgSender(), address(this)) >= requiredUserTokenAllowance(_msgSender(), from, fromAmount),\n      \"Marketplace not allowed to spend the desired amount of tokens\"\n    );\n    require(\n      from.balanceOf(_msgSender()) >= fromAmount,\n      \"User does not hold the desired amount of tokens\"\n    );\n\n    orderId = ++lastOrderId;\n    orders[orderId] = IOrder.Order(\n      from,\n      fromAmount,\n      to,\n      toAmount,\n      fromSymbol,\n      fromDecimals,\n      toSymbol,\n      toDecimals,\n      _msgSender(),\n      allowPartial,\n      orderId, // id\n      false, // transacting\n      IOrder.Status.Open, // status\n      0 // completedAmount\n    );\n    ordersStats[IOrder.Status.Open]++;\n    userActiveOrders[_msgSender()].push(orderId);\n\n    emit OrderCreated(orderId, fromSymbol, toSymbol);\n  }\n\n  function closeOrder(uint orderId) public\n  orderReentrancyGuard(orderId) orderOpen(orderId)\n  returns (bool) {\n    require(orders[orderId].owner == _msgSender(), \"Order updates allowed by orners only!\");\n\n    _updateOrder(orders[orderId], IOrder.Status.Closed);\n  }\n\n  function claimOrder(uint orderId, uint amount, address wallet) public\n  whenNotPaused orderReentrancyGuard(orderId) orderOpen(orderId)\n  returns (bool) {\n    IOrder.Order storage order = orders[orderId];\n\n    require(wallet != order.owner, \"You can not buyback from yourself\");\n    require(_msgSender() != order.owner, \"You can not trigger buyback from yourself\");\n\n    uint payoffAmount = orderPayoffAmount(orderId, amount);\n    \n    require(\n      order.to.allowance(_msgSender(), address(this)) >= payoffAmount,\n      \"Marketplace not allowed to spend desired amount of tokens\"\n    );\n\n    order.completedAmount += amount;\n    IOrder.Status newStatus = order.completedAmount == order.fromAmount\n      ? IOrder.Status.Completed\n      : IOrder.Status.PartiallyCompleted;\n    \n    _updateOrder(order, newStatus);\n\n    order.to.safeTransferFrom(_msgSender(), order.owner, payoffAmount);\n    order.from.safeTransferFrom(order.owner, wallet, amount);\n    \n    // send rewards\n    if (newStatus == IOrder.Status.Completed) {\n      _reward(order.owner);\n    }\n    _reward(_msgSender());\n\n    return true;\n  }\n\n  /**\n   * @dev Update closed order reward\n   */\n  function updateReward(IToken _token, uint _reward) public onlyOwner {\n    require(address(_token) != address(0), \"Invalid token address\");\n    require(_token.hasRole(MINTER_ROLE, address(this)), \"Marketplace is not a minter\");\n\n    token = _token;\n    reward = _reward;\n\n    emit RewardUpdated(_token, _reward, _msgSender());\n  }\n\n  /**\n   * @dev Blacklist a token\n   */\n  function blacklistToken(IToken _token, bool state) public onlyOwner {\n    blacklistedTokens[_token] = state;\n\n    if (state) {\n      blacklistedTokensCount++;\n      emit BlacklistedToken(_token, _msgSender());\n    } else {\n      blacklistedTokensCount--;\n      emit UnblacklistedToken(_token, _msgSender());\n    }\n  }\n\n  function freeze(bool state) public onlyOwner {\n    if (state) {\n      _pause();\n    } else {\n      _unpause();\n    }\n  }\n\n  function _matchOrderTokens(IOrder.Order memory order, string memory symbol) internal pure returns (bool) {\n    return _matchString(order.fromSymbol, symbol) || _matchString(order.toSymbol, symbol);\n  }\n\n  function _matchString(string memory where, string memory what) internal pure returns (bool found) {\n    bytes memory whereBytes = bytes(where);\n\n    if (whereBytes.length == 0) {\n      return true;\n    }\n\n    bytes memory whatBytes = bytes(what);\n\n    for (uint i = 0; i < whereBytes.length - whatBytes.length; i++) {\n      bool flag = true;\n\n      for (uint j = 0; j < whatBytes.length; j++) {\n        if (_upperCaseByte(whereBytes[i + j]) != _upperCaseByte(whatBytes[j])) {\n          flag = false;\n          break;\n        }\n      }\n\n      if (flag) {\n        found = true;\n        break;\n      }\n    }\n  }\n\n  function _upperCaseByte(bytes1 _b1) internal pure returns (bytes1) {\n    if (_b1 >= 0x61 && _b1 <= 0x7A) {\n      return bytes1(uint8(_b1) - 32);\n    }\n\n    return _b1;\n  }\n\n  function _updateOrder(IOrder.Order storage order, IOrder.Status toStatus) internal {\n    IOrder.Status fromStatus = order.status;\n\n    order.status = toStatus;\n    ordersStats[fromStatus]--;\n    ordersStats[toStatus]++;\n\n    if (toStatus == IOrder.Status.Completed || toStatus == IOrder.Status.Closed) {\n      (,bool found) = _removeActiveOrder(order.owner, order.id);\n      require(found, \"Order is not found as active. Should never happen!\");\n    }\n\n    emit OrderUpdated(order.id, fromStatus, toStatus);\n  }\n\n  /**\n   * Removes an order from active user orders\n   */\n  function _removeActiveOrder(address user, uint orderId) internal returns (uint index, bool found) {\n    for (uint i = 0; i < userActiveOrders[user].length; i++){\n      if (userActiveOrders[user][i] == orderId) {\n        found = true;\n        index = i;\n        break;\n      }\n    }\n\n    if (!found) {\n      return (index, found);\n    }\n\n    for (uint i = index; i < userActiveOrders[user].length - 1; i++){\n      userActiveOrders[user][i] = userActiveOrders[user][i + 1];\n    }\n\n    userActiveOrders[user].pop();\n  }\n\n  /**\n   * @dev transfer reward for a closed order\n   */\n  function _reward(address receiver) internal {\n    if (reward > 0) {\n      token.mint(receiver, reward);\n      rewardsCount++;\n      rewardsValue += reward;\n      emit Reward(receiver, reward);\n    }\n  }\n\n  /**\n   * @dev This function is called for all messages sent to\n   * this contract, except plain Ether transfers\n   * (there is no other function except the receive function).\n   * Any call with non-empty calldata to this contract will execute\n   * the fallback function (even if Ether is sent along with the call).\n   */\n  fallback() external payable {\n    treasury.transfer(msg.value);\n    emit Donated(_msgSender(), msg.value);\n  }\n\n  /**\n   * @dev This function is called for plain Ether transfers, i.e.\n   * for every call with empty calldata.\n   */\n  receive() external payable {\n    treasury.transfer(msg.value);\n    emit Donated(_msgSender(), msg.value);\n  }\n}\n",
  "sourcePath": "/home/alex/Projects/erc.money-app/contracts/Marketplace.sol",
  "compiler": {
    "name": "solc",
    "version": "0.6.12+commit.27d51765.Emscripten.clang"
  },
  "schemaVersion": "3.3.2",
  "updatedAt": "2020-11-30T09:26:08.609Z",
  "networkType": "ethereum",
  "devdoc": {
    "events": {
      "BlacklistedToken(address,address)": {
        "details": "Emitted when a `token` gets blacklisted by `who`."
      },
      "Donated(address,uint256)": {
        "details": "Emitted when the donation of `value` received from `account`."
      },
      "OrderCreated(uint256,string,string)": {
        "details": "Order updated"
      },
      "OrderUpdated(uint256,uint8,uint8)": {
        "details": "Order updated"
      },
      "Reward(address,uint256)": {
        "details": "Emitted when `receiver` rewarded with `reward` amount of tokens."
      },
      "RewardUpdated(address,uint256,address)": {
        "details": "Emitted when reward `token` and a `reward` amount apecified by `who`."
      },
      "UnblacklistedToken(address,address)": {
        "details": "Emitted when a `token` gets un-blacklisted by `who`."
      }
    },
    "kind": "dev",
    "methods": {
      "blacklistToken(address,bool)": {
        "details": "Blacklist a token"
      },
      "owner()": {
        "details": "Returns the address of the current owner."
      },
      "paused()": {
        "details": "Returns true if the contract is paused, and false otherwise."
      },
      "renounceOwnership()": {
        "details": "Leaves the contract without owner. It will not be possible to call `onlyOwner` functions anymore. Can only be called by the current owner. NOTE: Renouncing ownership will leave the contract without an owner, thereby removing any functionality that is only available to the owner."
      },
      "transferOwnership(address)": {
        "details": "Transfers ownership of the contract to a new account (`newOwner`). Can only be called by the current owner."
      },
      "updateReward(address,uint256)": {
        "details": "Update closed order reward"
      }
    },
    "version": 1
  },
  "userdoc": {
    "kind": "user",
    "methods": {},
    "version": 1
  }
}