{
  "contractName": "Marketplace",
  "abi": [
    {
      "inputs": [
        {
          "internalType": "address",
          "name": "_owner",
          "type": "address"
        },
        {
          "internalType": "address payable",
          "name": "_treasury",
          "type": "address"
        }
      ],
      "stateMutability": "nonpayable",
      "type": "constructor"
    },
    {
      "anonymous": false,
      "inputs": [
        {
          "indexed": false,
          "internalType": "contract IToken",
          "name": "token",
          "type": "address"
        },
        {
          "indexed": false,
          "internalType": "address",
          "name": "who",
          "type": "address"
        }
      ],
      "name": "BlacklistedToken",
      "type": "event"
    },
    {
      "anonymous": false,
      "inputs": [
        {
          "indexed": false,
          "internalType": "address",
          "name": "account",
          "type": "address"
        },
        {
          "indexed": false,
          "internalType": "uint256",
          "name": "value",
          "type": "uint256"
        }
      ],
      "name": "Donated",
      "type": "event"
    },
    {
      "anonymous": false,
      "inputs": [
        {
          "indexed": false,
          "internalType": "uint256",
          "name": "orderId",
          "type": "uint256"
        }
      ],
      "name": "OrderCreated",
      "type": "event"
    },
    {
      "anonymous": false,
      "inputs": [
        {
          "indexed": false,
          "internalType": "uint256",
          "name": "orderId",
          "type": "uint256"
        },
        {
          "indexed": false,
          "internalType": "enum IOrder.Status",
          "name": "fromStatus",
          "type": "uint8"
        },
        {
          "indexed": false,
          "internalType": "enum IOrder.Status",
          "name": "toStatus",
          "type": "uint8"
        }
      ],
      "name": "OrderUpdated",
      "type": "event"
    },
    {
      "anonymous": false,
      "inputs": [
        {
          "indexed": true,
          "internalType": "address",
          "name": "previousOwner",
          "type": "address"
        },
        {
          "indexed": true,
          "internalType": "address",
          "name": "newOwner",
          "type": "address"
        }
      ],
      "name": "OwnershipTransferred",
      "type": "event"
    },
    {
      "anonymous": false,
      "inputs": [
        {
          "indexed": false,
          "internalType": "address",
          "name": "account",
          "type": "address"
        }
      ],
      "name": "Paused",
      "type": "event"
    },
    {
      "anonymous": false,
      "inputs": [
        {
          "indexed": false,
          "internalType": "address",
          "name": "receiver",
          "type": "address"
        },
        {
          "indexed": false,
          "internalType": "uint256",
          "name": "reward",
          "type": "uint256"
        }
      ],
      "name": "Reward",
      "type": "event"
    },
    {
      "anonymous": false,
      "inputs": [
        {
          "indexed": false,
          "internalType": "contract IToken",
          "name": "token",
          "type": "address"
        },
        {
          "indexed": false,
          "internalType": "uint256",
          "name": "reward",
          "type": "uint256"
        },
        {
          "indexed": false,
          "internalType": "address",
          "name": "who",
          "type": "address"
        }
      ],
      "name": "RewardUpdated",
      "type": "event"
    },
    {
      "anonymous": false,
      "inputs": [
        {
          "indexed": false,
          "internalType": "contract IToken",
          "name": "token",
          "type": "address"
        },
        {
          "indexed": false,
          "internalType": "address",
          "name": "who",
          "type": "address"
        }
      ],
      "name": "UnblacklistedToken",
      "type": "event"
    },
    {
      "anonymous": false,
      "inputs": [
        {
          "indexed": false,
          "internalType": "address",
          "name": "account",
          "type": "address"
        }
      ],
      "name": "Unpaused",
      "type": "event"
    },
    {
      "stateMutability": "payable",
      "type": "fallback",
      "payable": true
    },
    {
      "inputs": [],
      "name": "MINTER_ROLE",
      "outputs": [
        {
          "internalType": "bytes32",
          "name": "",
          "type": "bytes32"
        }
      ],
      "stateMutability": "view",
      "type": "function",
      "constant": true
    },
    {
      "inputs": [],
      "name": "blacklistedTokensCount",
      "outputs": [
        {
          "internalType": "uint256",
          "name": "",
          "type": "uint256"
        }
      ],
      "stateMutability": "view",
      "type": "function",
      "constant": true
    },
    {
      "inputs": [],
      "name": "lastOrderId",
      "outputs": [
        {
          "internalType": "uint256",
          "name": "",
          "type": "uint256"
        }
      ],
      "stateMutability": "view",
      "type": "function",
      "constant": true
    },
    {
      "inputs": [],
      "name": "owner",
      "outputs": [
        {
          "internalType": "address",
          "name": "",
          "type": "address"
        }
      ],
      "stateMutability": "view",
      "type": "function",
      "constant": true
    },
    {
      "inputs": [],
      "name": "paused",
      "outputs": [
        {
          "internalType": "bool",
          "name": "",
          "type": "bool"
        }
      ],
      "stateMutability": "view",
      "type": "function",
      "constant": true
    },
    {
      "inputs": [],
      "name": "renounceOwnership",
      "outputs": [],
      "stateMutability": "nonpayable",
      "type": "function"
    },
    {
      "inputs": [],
      "name": "reward",
      "outputs": [
        {
          "internalType": "uint256",
          "name": "",
          "type": "uint256"
        }
      ],
      "stateMutability": "view",
      "type": "function",
      "constant": true
    },
    {
      "inputs": [],
      "name": "rewardsCount",
      "outputs": [
        {
          "internalType": "uint256",
          "name": "",
          "type": "uint256"
        }
      ],
      "stateMutability": "view",
      "type": "function",
      "constant": true
    },
    {
      "inputs": [],
      "name": "rewardsValue",
      "outputs": [
        {
          "internalType": "uint256",
          "name": "",
          "type": "uint256"
        }
      ],
      "stateMutability": "view",
      "type": "function",
      "constant": true
    },
    {
      "inputs": [],
      "name": "token",
      "outputs": [
        {
          "internalType": "contract IToken",
          "name": "",
          "type": "address"
        }
      ],
      "stateMutability": "view",
      "type": "function",
      "constant": true
    },
    {
      "inputs": [
        {
          "internalType": "address",
          "name": "newOwner",
          "type": "address"
        }
      ],
      "name": "transferOwnership",
      "outputs": [],
      "stateMutability": "nonpayable",
      "type": "function"
    },
    {
      "inputs": [],
      "name": "treasury",
      "outputs": [
        {
          "internalType": "address payable",
          "name": "",
          "type": "address"
        }
      ],
      "stateMutability": "view",
      "type": "function",
      "constant": true
    },
    {
      "stateMutability": "payable",
      "type": "receive",
      "payable": true
    },
    {
      "inputs": [
        {
          "internalType": "uint256",
          "name": "orderId",
          "type": "uint256"
        }
      ],
      "name": "orderExists",
      "outputs": [
        {
          "internalType": "bool",
          "name": "",
          "type": "bool"
        }
      ],
      "stateMutability": "view",
      "type": "function",
      "constant": true
    },
    {
      "inputs": [
        {
          "internalType": "uint256",
          "name": "orderId",
          "type": "uint256"
        }
      ],
      "name": "getOrder",
      "outputs": [
        {
          "components": [
            {
              "internalType": "contract IToken",
              "name": "from",
              "type": "address"
            },
            {
              "internalType": "uint256",
              "name": "fromAmount",
              "type": "uint256"
            },
            {
              "internalType": "contract IToken",
              "name": "to",
              "type": "address"
            },
            {
              "internalType": "uint256",
              "name": "toAmount",
              "type": "uint256"
            },
            {
              "internalType": "string",
              "name": "fromSymbol",
              "type": "string"
            },
            {
              "internalType": "uint256",
              "name": "fromDecimals",
              "type": "uint256"
            },
            {
              "internalType": "string",
              "name": "toSymbol",
              "type": "string"
            },
            {
              "internalType": "uint256",
              "name": "toDecimals",
              "type": "uint256"
            },
            {
              "internalType": "address",
              "name": "owner",
              "type": "address"
            },
            {
              "internalType": "bool",
              "name": "allowPartial",
              "type": "bool"
            },
            {
              "internalType": "uint256",
              "name": "id",
              "type": "uint256"
            },
            {
              "internalType": "bool",
              "name": "transacting",
              "type": "bool"
            },
            {
              "internalType": "enum IOrder.Status",
              "name": "status",
              "type": "uint8"
            },
            {
              "internalType": "uint256",
              "name": "completedAmount",
              "type": "uint256"
            }
          ],
          "internalType": "struct IOrder.Order",
          "name": "order",
          "type": "tuple"
        }
      ],
      "stateMutability": "view",
      "type": "function",
      "constant": true
    },
    {
      "inputs": [
        {
          "internalType": "uint256",
          "name": "orderId",
          "type": "uint256"
        }
      ],
      "name": "isOrderActive",
      "outputs": [
        {
          "internalType": "bool",
          "name": "",
          "type": "bool"
        }
      ],
      "stateMutability": "view",
      "type": "function",
      "constant": true
    },
    {
      "inputs": [
        {
          "internalType": "contract IToken",
          "name": "_token",
          "type": "address"
        }
      ],
      "name": "isTokenBlacklisted",
      "outputs": [
        {
          "internalType": "bool",
          "name": "",
          "type": "bool"
        }
      ],
      "stateMutability": "view",
      "type": "function",
      "constant": true
    },
    {
      "inputs": [
        {
          "internalType": "enum IOrder.Status",
          "name": "status",
          "type": "uint8"
        }
      ],
      "name": "stats",
      "outputs": [
        {
          "internalType": "uint256",
          "name": "",
          "type": "uint256"
        }
      ],
      "stateMutability": "view",
      "type": "function",
      "constant": true
    },
    {
      "inputs": [
        {
          "internalType": "address",
          "name": "user",
          "type": "address"
        }
      ],
      "name": "listActiveUserOrders",
      "outputs": [
        {
          "components": [
            {
              "internalType": "contract IToken",
              "name": "from",
              "type": "address"
            },
            {
              "internalType": "uint256",
              "name": "fromAmount",
              "type": "uint256"
            },
            {
              "internalType": "contract IToken",
              "name": "to",
              "type": "address"
            },
            {
              "internalType": "uint256",
              "name": "toAmount",
              "type": "uint256"
            },
            {
              "internalType": "string",
              "name": "fromSymbol",
              "type": "string"
            },
            {
              "internalType": "uint256",
              "name": "fromDecimals",
              "type": "uint256"
            },
            {
              "internalType": "string",
              "name": "toSymbol",
              "type": "string"
            },
            {
              "internalType": "uint256",
              "name": "toDecimals",
              "type": "uint256"
            },
            {
              "internalType": "address",
              "name": "owner",
              "type": "address"
            },
            {
              "internalType": "bool",
              "name": "allowPartial",
              "type": "bool"
            },
            {
              "internalType": "uint256",
              "name": "id",
              "type": "uint256"
            },
            {
              "internalType": "bool",
              "name": "transacting",
              "type": "bool"
            },
            {
              "internalType": "enum IOrder.Status",
              "name": "status",
              "type": "uint8"
            },
            {
              "internalType": "uint256",
              "name": "completedAmount",
              "type": "uint256"
            }
          ],
          "internalType": "struct IOrder.Order[]",
          "name": "userOrders",
          "type": "tuple[]"
        }
      ],
      "stateMutability": "view",
      "type": "function",
      "constant": true
    },
    {
      "inputs": [
        {
          "internalType": "uint256",
          "name": "offset",
          "type": "uint256"
        },
        {
          "internalType": "uint256",
          "name": "size",
          "type": "uint256"
        },
        {
          "internalType": "bool",
          "name": "listOnlyActive",
          "type": "bool"
        }
      ],
      "name": "listOrders",
      "outputs": [
        {
          "components": [
            {
              "internalType": "contract IToken",
              "name": "from",
              "type": "address"
            },
            {
              "internalType": "uint256",
              "name": "fromAmount",
              "type": "uint256"
            },
            {
              "internalType": "contract IToken",
              "name": "to",
              "type": "address"
            },
            {
              "internalType": "uint256",
              "name": "toAmount",
              "type": "uint256"
            },
            {
              "internalType": "string",
              "name": "fromSymbol",
              "type": "string"
            },
            {
              "internalType": "uint256",
              "name": "fromDecimals",
              "type": "uint256"
            },
            {
              "internalType": "string",
              "name": "toSymbol",
              "type": "string"
            },
            {
              "internalType": "uint256",
              "name": "toDecimals",
              "type": "uint256"
            },
            {
              "internalType": "address",
              "name": "owner",
              "type": "address"
            },
            {
              "internalType": "bool",
              "name": "allowPartial",
              "type": "bool"
            },
            {
              "internalType": "uint256",
              "name": "id",
              "type": "uint256"
            },
            {
              "internalType": "bool",
              "name": "transacting",
              "type": "bool"
            },
            {
              "internalType": "enum IOrder.Status",
              "name": "status",
              "type": "uint8"
            },
            {
              "internalType": "uint256",
              "name": "completedAmount",
              "type": "uint256"
            }
          ],
          "internalType": "struct IOrder.Order[]",
          "name": "page",
          "type": "tuple[]"
        },
        {
          "internalType": "uint256",
          "name": "newOffset",
          "type": "uint256"
        },
        {
          "internalType": "uint256",
          "name": "entries",
          "type": "uint256"
        }
      ],
      "stateMutability": "view",
      "type": "function",
      "constant": true
    },
    {
      "inputs": [
        {
          "internalType": "uint256",
          "name": "orderId",
          "type": "uint256"
        },
        {
          "internalType": "uint256",
          "name": "amount",
          "type": "uint256"
        }
      ],
      "name": "orderPayoffAmount",
      "outputs": [
        {
          "internalType": "uint256",
          "name": "payoffAmount",
          "type": "uint256"
        }
      ],
      "stateMutability": "view",
      "type": "function",
      "constant": true
    },
    {
      "inputs": [
        {
          "internalType": "contract IToken",
          "name": "from",
          "type": "address"
        },
        {
          "internalType": "uint256",
          "name": "fromAmount",
          "type": "uint256"
        },
        {
          "internalType": "contract IToken",
          "name": "to",
          "type": "address"
        },
        {
          "internalType": "uint256",
          "name": "toAmount",
          "type": "uint256"
        },
        {
          "internalType": "bool",
          "name": "allowPartial",
          "type": "bool"
        }
      ],
      "name": "createOrder",
      "outputs": [
        {
          "internalType": "uint256",
          "name": "orderId",
          "type": "uint256"
        }
      ],
      "stateMutability": "nonpayable",
      "type": "function"
    },
    {
      "inputs": [
        {
          "internalType": "uint256",
          "name": "orderId",
          "type": "uint256"
        }
      ],
      "name": "closeOrder",
      "outputs": [
        {
          "internalType": "bool",
          "name": "",
          "type": "bool"
        }
      ],
      "stateMutability": "nonpayable",
      "type": "function"
    },
    {
      "inputs": [
        {
          "internalType": "uint256",
          "name": "orderId",
          "type": "uint256"
        },
        {
          "internalType": "uint256",
          "name": "amount",
          "type": "uint256"
        },
        {
          "internalType": "address",
          "name": "wallet",
          "type": "address"
        }
      ],
      "name": "claimOrder",
      "outputs": [
        {
          "internalType": "bool",
          "name": "",
          "type": "bool"
        }
      ],
      "stateMutability": "nonpayable",
      "type": "function"
    },
    {
      "inputs": [
        {
          "internalType": "contract IToken",
          "name": "_token",
          "type": "address"
        },
        {
          "internalType": "uint256",
          "name": "_reward",
          "type": "uint256"
        }
      ],
      "name": "updateReward",
      "outputs": [],
      "stateMutability": "nonpayable",
      "type": "function"
    },
    {
      "inputs": [
        {
          "internalType": "contract IToken",
          "name": "_token",
          "type": "address"
        },
        {
          "internalType": "bool",
          "name": "state",
          "type": "bool"
        }
      ],
      "name": "blacklistToken",
      "outputs": [],
      "stateMutability": "nonpayable",
      "type": "function"
    },
    {
      "inputs": [
        {
          "internalType": "bool",
          "name": "state",
          "type": "bool"
        }
      ],
      "name": "freeze",
      "outputs": [],
      "stateMutability": "nonpayable",
      "type": "function"
    }
  ],
  "bytecode": "0x60806040523480156200001157600080fd5b506040516200390d3803806200390d833981016040819052620000349162000246565b60006200004964010000000062000158810204565b60008054600160a060020a031916600160a060020a038316908117825560405192935091600080516020620038ed833981519152908290a3506000805460a060020a60ff0219169055600160a060020a038116620000de576040517f08c379a0000000000000000000000000000000000000000000000000000000008152600401620000d590620002e1565b60405180910390fd5b600160a060020a03821662000121576040517f08c379a0000000000000000000000000000000000000000000000000000000008152600401620000d59062000318565b60018054600160a060020a031916600160a060020a03831617905562000150826401000000006200015c810204565b50506200039d565b3390565b6200016f64010000000062000158810204565b600054600160a060020a03908116911614620001b9576040517f08c379a0000000000000000000000000000000000000000000000000000000008152600401620000d5906200034f565b600160a060020a038116620001fc576040517f08c379a0000000000000000000000000000000000000000000000000000000008152600401620000d59062000284565b60008054604051600160a060020a0380851693921691600080516020620038ed83398151915291a360008054600160a060020a031916600160a060020a0392909216919091179055565b6000806040838503121562000259578182fd5b8251620002668162000384565b6020840151909250620002798162000384565b809150509250929050565b60208082526026908201527f4f776e61626c653a206e6577206f776e657220697320746865207a65726f206160408201527f6464726573730000000000000000000000000000000000000000000000000000606082015260800190565b6020808252601f908201527f496e76616c69642074726561737572792077616c6c6574206164647265737300604082015260600190565b60208082526015908201527f496e76616c6964206f776e657220616464726573730000000000000000000000604082015260600190565b6020808252818101527f4f776e61626c653a2063616c6c6572206973206e6f7420746865206f776e6572604082015260600190565b600160a060020a03811681146200039a57600080fd5b50565b61354080620003ad6000396000f3fe6080604052600436106101895760003560e060020a900480638699a65f116100d5578063c5a5cd691161008e578063d539139311610068578063d5391393146104fb578063d6e4358514610510578063f2fde38b14610530578063fc0c546a146105505761020a565b8063c5a5cd691461048e578063ce9be9ba146104ae578063d09ef241146104ce5761020a565b80638699a65f146103e25780638da5cb5b146103f75780639c5bbcf91461040c578063b5bf15e51461042c578063c028c8381461044c578063c4d5d0dd146104795761020a565b80633012b94e116101425780635c975abb1161011c5780635c975abb1461037657806361d027b31461038b578063715018a6146103ad57806386317b96146103c25761020a565b80633012b94e146103125780635289ecd7146103325780635662ecc7146103615761020a565b8063069d6d1c14610243578063121025fe14610279578063190e4c551461029b5780631a399125146102bd578063228cb733146102dd5780632ad54a92146102f25761020a565b3661020a57600154604051600160a060020a03909116903480156108fc02916000818181858888f193505050501580156101c7573d6000803e3d6000fd5b507f2a01595cddf097c90216094025db714da3f4e5bd8877b56ba86a24ecead8e5436101f1610565565b34604051610200929190612c8c565b60405180910390a1005b600154604051600160a060020a03909116903480156108fc02916000818181858888f193505050501580156101c7573d6000803e3d6000fd5b34801561024f57600080fd5b5061026361025e3660046129f7565b610569565b6040516102709190612d01565b60405180910390f35b34801561028557600080fd5b5061028e6106e8565b6040516102709190612d0c565b3480156102a757600080fd5b506102bb6102b636600461287c565b6106ee565b005b3480156102c957600080fd5b506102bb6102d83660046128b4565b6107f0565b3480156102e957600080fd5b5061028e610990565b3480156102fe57600080fd5b5061028e61030d3660046128df565b610996565b34801561031e57600080fd5b5061026361032d366004612a48565b61123e565b34801561033e57600080fd5b5061035261034d366004612a80565b611567565b60405161027093929190612cdc565b34801561036d57600080fd5b5061028e611849565b34801561038257600080fd5b5061026361184f565b34801561039757600080fd5b506103a061185f565b6040516102709190612c5e565b3480156103b957600080fd5b506102bb61186e565b3480156103ce57600080fd5b506102636103dd3660046129f7565b6118fd565b3480156103ee57600080fd5b5061028e611917565b34801561040357600080fd5b506103a061191d565b34801561041857600080fd5b5061028e61042736600461293d565b61192c565b34801561043857600080fd5b506102bb610447366004612844565b61195f565b34801561045857600080fd5b5061046c610467366004612828565b6119b5565b6040516102709190612cc9565b34801561048557600080fd5b5061028e611c7e565b34801561049a57600080fd5b5061028e6104a9366004612a27565b611c84565b3480156104ba57600080fd5b506102636104c9366004612828565b611d22565b3480156104da57600080fd5b506104ee6104e93660046129f7565b611d40565b6040516102709190613472565b34801561050757600080fd5b5061028e611f44565b34801561051c57600080fd5b5061026361052b3660046129f7565b611f68565b34801561053c57600080fd5b506102bb61054b366004612828565b611fc2565b34801561055c57600080fd5b506103a061208b565b3390565b6000818152600760205260408120600a0154829060ff16156105a95760405160e560020a62461bcd0281526004016105a090613111565b60405180910390fd5b600081815260076020526040808220600a01805460ff1916600117905584825290206009015483906105f05760405160e560020a62461bcd0281526004016105a0906131da565b60026000828152600760205260409020600a0154610100900460ff16600381111561061757fe5b1415801561064a575060036000828152600760205260409020600a0154610100900460ff16600381111561064757fe5b14155b6106695760405160e560020a62461bcd0281526004016105a090612e2d565b610671610565565b600085815260076020526040902060080154600160a060020a039081169116146106b05760405160e560020a62461bcd0281526004016105a090613057565b60008481526007602052604090206106c990600361209a565b506000908152600760205260409020600a01805460ff19169055919050565b600a5481565b6106f6610565565b600054600160a060020a039081169116146107265760405160e560020a62461bcd0281526004016105a090613148565b600160a060020a0382166000908152600b60205260409020805460ff191682158015919091179091556107a157600a805460010190557fb0dff05d63bda79ce2b542fd08755b28bc58bca10a39883608bb71f687edfdf782610786610565565b604051610794929190612c72565b60405180910390a16107ec565b600a80546000190190557f51ebcd2e6a7592e9883b86a58bb3dcaeb7aa87e0475fb26ff0a1eadba26dcfe4826107d5610565565b6040516107e3929190612c72565b60405180910390a15b5050565b6107f8610565565b600054600160a060020a039081169116146108285760405160e560020a62461bcd0281526004016105a090613148565b600160a060020a0382166108515760405160e560020a62461bcd0281526004016105a0906132dc565b6040517f91d14854000000000000000000000000000000000000000000000000000000008152600160a060020a038316906391d14854906108b8907f9f2df0fed2c77648de5860a4cc508cd0818c85b8b8a1ab4ceeef8d981c8956a6903090600401612d15565b602060405180830381600087803b1580156108d257600080fd5b505af11580156108e6573d6000803e3d6000fd5b505050506040513d601f19601f8201168201806040525081019061090a9190612860565b6109295760405160e560020a62461bcd0281526004016105a090612df6565b6002805473ffffffffffffffffffffffffffffffffffffffff1916600160a060020a03841617905560038190557fc8d71d1dc9e781ced39e0ea7e9acc09b0a1a07e73daf21d78f651b2e4a37c52e8282610981610565565b6040516107e393929190612d2c565b60035481565b6000805460a060020a900460ff16156109c45760405160e560020a62461bcd0281526004016105a090613020565b856109ce81611d22565b156109ee5760405160e560020a62461bcd0281526004016105a090612fe9565b846109f881611d22565b15610a185760405160e560020a62461bcd0281526004016105a090612fe9565b600087118015610a285750600085115b610a475760405160e560020a62461bcd0281526004016105a090612ee7565b85600160a060020a031688600160a060020a03161415610a7c5760405160e560020a62461bcd0281526004016105a090613211565b600160a060020a038816610aa55760405160e560020a62461bcd0281526004016105a090612f55565b600160a060020a038616610ace5760405160e560020a62461bcd0281526004016105a0906133cd565b600088600160a060020a03166395d89b416040518163ffffffff1660e060020a028152600401600060405180830381600087803b158015610b0e57600080fd5b505af1158015610b22573d6000803e3d6000fd5b505050506040513d6000823e601f3d908101601f19168201604052610b4a919081019061295c565b51118015610bcd5750600088600160a060020a031663313ce5676040518163ffffffff1660e060020a028152600401602060405180830381600087803b158015610b9357600080fd5b505af1158015610ba7573d6000803e3d6000fd5b505050506040513d601f19601f82011682018060405250810190610bcb9190612a0f565b115b610bec5760405160e560020a62461bcd0281526004016105a09061343b565b600086600160a060020a03166395d89b416040518163ffffffff1660e060020a028152600401600060405180830381600087803b158015610c2c57600080fd5b505af1158015610c40573d6000803e3d6000fd5b505050506040513d6000823e601f3d908101601f19168201604052610c68919081019061295c565b51118015610ceb5750600086600160a060020a031663313ce5676040518163ffffffff1660e060020a028152600401602060405180830381600087803b158015610cb157600080fd5b505af1158015610cc5573d6000803e3d6000fd5b505050506040513d601f19601f82011682018060405250810190610ce99190612a0f565b115b610d0a5760405160e560020a62461bcd0281526004016105a090612f1e565b8688600160a060020a031663dd62ed3e610d22610565565b306040518363ffffffff1660e060020a028152600401610d43929190612c72565b60206040518083038186803b158015610d5b57600080fd5b505afa158015610d6f573d6000803e3d6000fd5b505050506040513d601f19601f82011682018060405250810190610d939190612a0f565b1015610db45760405160e560020a62461bcd0281526004016105a09061327f565b6006600081546001019190508190559250604051806101c0016040528089600160a060020a0316815260200188815260200187600160a060020a0316815260200186815260200189600160a060020a03166395d89b416040518163ffffffff1660e060020a028152600401600060405180830381600087803b158015610e3957600080fd5b505af1158015610e4d573d6000803e3d6000fd5b505050506040513d6000823e601f3d908101601f19168201604052610e75919081019061295c565b815260200189600160a060020a031663313ce5676040518163ffffffff1660e060020a028152600401602060405180830381600087803b158015610eb857600080fd5b505af1158015610ecc573d6000803e3d6000fd5b505050506040513d601f19601f82011682018060405250810190610ef09190612a0f565b815260200187600160a060020a03166395d89b416040518163ffffffff1660e060020a028152600401600060405180830381600087803b158015610f3357600080fd5b505af1158015610f47573d6000803e3d6000fd5b505050506040513d6000823e601f3d908101601f19168201604052610f6f919081019061295c565b815260200187600160a060020a031663313ce5676040518163ffffffff1660e060020a028152600401602060405180830381600087803b158015610fb257600080fd5b505af1158015610fc6573d6000803e3d6000fd5b505050506040513d601f19601f82011682018060405250810190610fea9190612a0f565b8152602001610ff7610565565b600160a060020a03168152851515602082015260408101859052600060608201819052608090910190815260006020918201819052858152600782526040908190208351815473ffffffffffffffffffffffffffffffffffffffff19908116600160a060020a0392831617835585850151600184015592850151600283018054909416911617909155606083015160038201556080830151805191926110a592600485019290910190612722565b5060a0820151600582015560c082015180516110cb916006840191602090910190612722565b5060e082015160078201556101008083015160088301805461012086015173ffffffffffffffffffffffffffffffffffffffff19909116600160a060020a039093169290921774ff0000000000000000000000000000000000000000191660a060020a921515929092029190911790556101408301516009830155610160830151600a8301805460ff1916911515919091178082556101808501519261ff00199091169083600381111561117b57fe5b02179055506101a09190910151600b90910155600080805260096020527fec8156718a8372b1db44bb411437d0870f3e3790d4a08526d024ce1b0b668f6b805460010190556008906111cb610565565b600160a060020a03168152602080820192909252604090810160009081208054600181018255908252929020909101849055517f7e82078c35b6665b9d320ebeaa6c266960fad5b802c5558cf7df60c4769af95b9061122b908590612d0c565b60405180910390a1505095945050505050565b6000805460a060020a900460ff161561126c5760405160e560020a62461bcd0281526004016105a090613020565b6000848152600760205260409020600a0154849060ff16156112a35760405160e560020a62461bcd0281526004016105a090613111565b600081815260076020526040808220600a01805460ff1916600117905586825290206009015485906112ea5760405160e560020a62461bcd0281526004016105a0906131da565b60026000828152600760205260409020600a0154610100900460ff16600381111561131157fe5b14158015611344575060036000828152600760205260409020600a0154610100900460ff16600381111561134157fe5b14155b6113635760405160e560020a62461bcd0281526004016105a090612e2d565b60008681526007602052604090206008810154600160a060020a03868116911614156113a45760405160e560020a62461bcd0281526004016105a090613313565b6008810154600160a060020a03166113ba610565565b600160a060020a031614156113e45760405160e560020a62461bcd0281526004016105a0906130b4565b60006113f08888611c84565b60028301549091508190600160a060020a031663dd62ed3e611410610565565b306040518363ffffffff1660e060020a028152600401611431929190612c72565b60206040518083038186803b15801561144957600080fd5b505afa15801561145d573d6000803e3d6000fd5b505050506040513d601f19601f820116820180604052508101906114819190612a0f565b10156114a25760405160e560020a62461bcd0281526004016105a09061327f565b600b820180548801908190556001830154600091146114c25760016114c5565b60025b90506114d1838261209a565b6114fa6114dc610565565b60088501546002860154600160a060020a03908116929116856121e2565b6008830154835461151991600160a060020a039182169116898b6121e2565b600883015461153090600160a060020a0316612270565b61154061153b610565565b612270565b505050600091825250600760205260409020600a01805460ff191690555060019392505050565b606060008060648511156115905760405160e560020a62461bcd0281526004016105a090613404565b8467ffffffffffffffff811180156115a757600080fd5b506040519080825280602002602001820160405280156115e157816020015b6115ce6127a0565b8152602001906001900390816115c65790505b50925060005b8581101561183f57600654878201908110611602575061183f565b600654819003861580611619575061161981611f68565b156118355760008181526007602090815260409182902082516101c0810184528154600160a060020a039081168252600180840154838601526002808501549092168387015260038401546060840152600484018054875161010082851615026000190190911693909304601f81018790048702840187019097528683528188019b50990198919492936080860193919291908301828280156116fd5780601f106116d2576101008083540402835291602001916116fd565b820191906000526020600020905b8154815290600101906020018083116116e057829003601f168201915b5050509183525050600582015460208083019190915260068301805460408051601f6002600019610100600187161502019094169390930492830185900485028101850182528281529401939283018282801561179b5780601f106117705761010080835404028352916020019161179b565b820191906000526020600020905b81548152906001019060200180831161177e57829003601f168201915b5050509183525050600782015460208201526008820154600160a060020a038116604083015260ff60a060020a90910481161515606083015260098301546080830152600a830154808216151560a084015260c090920191610100900416600381111561180457fe5b600381111561180f57fe5b8152602001600b8201548152505086848151811061182957fe5b60200260200101819052505b50506001016115e7565b5093509350939050565b60065481565b60005460a060020a900460ff1690565b600154600160a060020a031681565b611876610565565b600054600160a060020a039081169116146118a65760405160e560020a62461bcd0281526004016105a090613148565b60008054604051600160a060020a03909116907f8be0079c531659141344cd1fd0a4f28419497f9722a3daafe3b4186f6b6457e0908390a36000805473ffffffffffffffffffffffffffffffffffffffff19169055565b60008181526007602052604090206009015415155b919050565b60045481565b600054600160a060020a031690565b60006009600083600381111561193e57fe5b600381111561194957fe5b8152602001908152602001600020549050919050565b611967610565565b600054600160a060020a039081169116146119975760405160e560020a62461bcd0281526004016105a090613148565b80156119aa576119a5612347565b6119b2565b6119b26123d8565b50565b600160a060020a0381166000908152600860205260409020546060908067ffffffffffffffff811180156119e857600080fd5b50604051908082528060200260200182016040528015611a2257816020015b611a0f6127a0565b815260200190600190039081611a075790505b50915060005b81811015611c7757600160a060020a0384166000908152600860205260408120805483908110611a5457fe5b6000918252602080832091909101548083526007825260409283902083516101c0810185528154600160a060020a03908116825260018084015483870152600280850154909216838801526003840154606084015260048401805488516101009382161593909302600019011692909204601f81018790048702820187019097528681529396509094919360808601939290830182828015611b375780601f10611b0c57610100808354040283529160200191611b37565b820191906000526020600020905b815481529060010190602001808311611b1a57829003601f168201915b5050509183525050600582015460208083019190915260068301805460408051601f60026000196101006001871615020190941693909304928301859004850281018501825282815294019392830182828015611bd55780601f10611baa57610100808354040283529160200191611bd5565b820191906000526020600020905b815481529060010190602001808311611bb857829003601f168201915b5050509183525050600782015460208201526008820154600160a060020a038116604083015260ff60a060020a90910481161515606083015260098301546080830152600a830154808216151560a084015260c0909201916101009004166003811115611c3e57fe5b6003811115611c4957fe5b8152602001600b82015481525050848381518110611c6357fe5b602090810291909101015250600101611a28565b5050919050565b60055481565b60008281526007602052604081208215801590611cab575080600b01548160010154038311155b611cca5760405160e560020a62461bcd0281526004016105a090612d99565b600881015460a060020a900460ff1680611ce75750806001015483145b611d065760405160e560020a62461bcd0281526004016105a090612f8c565b80600101548160030154840281611d1957fe5b04949350505050565b600160a060020a03166000908152600b602052604090205460ff1690565b611d486127a0565b60008281526007602090815260409182902082516101c0810184528154600160a060020a03908116825260018084015483860152600280850154909216838701526003840154606084015260048401805487516101009382161593909302600019011692909204601f810186900486028201860190965285815291949293608086019390830182828015611e1d5780601f10611df257610100808354040283529160200191611e1d565b820191906000526020600020905b815481529060010190602001808311611e0057829003601f168201915b5050509183525050600582015460208083019190915260068301805460408051601f60026000196101006001871615020190941693909304928301859004850281018501825282815294019392830182828015611ebb5780601f10611e9057610100808354040283529160200191611ebb565b820191906000526020600020905b815481529060010190602001808311611e9e57829003601f168201915b5050509183525050600782015460208201526008820154600160a060020a038116604083015260ff60a060020a90910481161515606083015260098301546080830152600a830154808216151560a084015260c0909201916101009004166003811115611f2457fe5b6003811115611f2f57fe5b8152602001600b820154815250509050919050565b7f9f2df0fed2c77648de5860a4cc508cd0818c85b8b8a1ab4ceeef8d981c8956a681565b6000818152600760205260408120600a0154610100900460ff16611f8b836118fd565b8015611fa357506002816003811115611fa057fe5b14155b8015611fbb57506003816003811115611fb857fe5b14155b9392505050565b611fca610565565b600054600160a060020a03908116911614611ffa5760405160e560020a62461bcd0281526004016105a090613148565b600160a060020a0381166120235760405160e560020a62461bcd0281526004016105a090612e8a565b60008054604051600160a060020a03808516939216917f8be0079c531659141344cd1fd0a4f28419497f9722a3daafe3b4186f6b6457e091a36000805473ffffffffffffffffffffffffffffffffffffffff1916600160a060020a0392909216919091179055565b600254600160a060020a031681565b600a8201805461010080820460ff16928492909161ff0019909116908360038111156120c257fe5b0217905550600960008260038111156120d757fe5b60038111156120e257fe5b815260208101919091526040016000908120805460001901905560099083600381111561210b57fe5b600381111561211657fe5b8152602081019190915260400160002080546001019055600282600381111561213b57fe5b14806121525750600382600381111561215057fe5b145b1561219e576008830154600984015460009161217991600160a060020a039091169061244b565b9150508061219c5760405160e560020a62461bcd0281526004016105a09061317d565b505b7fbd63b5282661ee29288057b2d23c1d8f53d1623238e656d3ab0313766e232cfe836009015482846040516121d593929190613485565b60405180910390a1505050565b61226a846323b872dd60e060020a0285858560405160240161220693929190612ca5565b60408051601f198184030181529190526020810180517bffffffffffffffffffffffffffffffffffffffffffffffffffffffff167fffffffff00000000000000000000000000000000000000000000000000000000909316929092179091526125a4565b50505050565b600354156119b2576002546003546040517f40c10f19000000000000000000000000000000000000000000000000000000008152600160a060020a03909216916340c10f19916122c591859190600401612c8c565b600060405180830381600087803b1580156122df57600080fd5b505af11580156122f3573d6000803e3d6000fd5b5050600480546001019055505060035460058054820190556040517f619caafabdd75649b302ba8419e48cccf64f37f1983ac4727cfb38b57703ffc99161233c91849190612c8c565b60405180910390a150565b60005460a060020a900460ff16156123745760405160e560020a62461bcd0281526004016105a090613020565b6000805474ff0000000000000000000000000000000000000000191660a060020a1790557f62e78cea01bee320cd4e420270b5ea74000d11b0c9f74754ebdbfc544b05a2586123c1610565565b6040516123ce9190612c5e565b60405180910390a1565b60005460a060020a900460ff166124045760405160e560020a62461bcd0281526004016105a090612d62565b6000805474ff0000000000000000000000000000000000000000191690557f5db9ee0a495bf2e6ff9c91a7834c1ba4fdd244a5e8aa4e537bd38aeae4b073aa6123c1610565565b60008060005b600160a060020a0385166000908152600860205260409020548110156124bd57600160a060020a038516600090815260086020526040902080548591908390811061249857fe5b906000526020600020015414156124b557600191508092506124bd565b600101612451565b50806124c85761259d565b815b600160a060020a0385166000908152600860205260409020546000190181101561256457600160a060020a038516600090815260086020526040902080546001830190811061251557fe5b90600052602060002001546008600087600160a060020a0316600160a060020a03168152602001908152602001600020828154811061255057fe5b6000918252602090912001556001016124ca565b50600160a060020a038416600090815260086020526040902080548061258657fe5b600190038181906000526020600020016000905590555b9250929050565b60606125f9826040518060400160405280602081526020017f5361666545524332303a206c6f772d6c6576656c2063616c6c206661696c656481525085600160a060020a031661263b9092919063ffffffff16565b80519091501561263657808060200190518101906126179190612860565b6126365760405160e560020a62461bcd0281526004016105a090613370565b505050565b606061264a8484600085612652565b949350505050565b606061265d8561271c565b61267c5760405160e560020a62461bcd0281526004016105a090613248565b6000606086600160a060020a031685876040516126999190612c42565b60006040518083038185875af1925050503d80600081146126d6576040519150601f19603f3d011682016040523d82523d6000602084013e6126db565b606091505b509150915081156126ef57915061264a9050565b8051156126ff5780518082602001fd5b8360405160e560020a62461bcd0281526004016105a09190612d4f565b3b151590565b828054600181600116156101000203166002900490600052602060002090601f016020900481019282601f1061276357805160ff1916838001178555612790565b82800160010185558215612790579182015b82811115612790578251825591602001919060010190612775565b5061279c929150612813565b5090565b604080516101c08101825260008082526020820181905291810182905260608082018390526080820181905260a0820183905260c082015260e081018290526101008101829052610120810182905261014081018290526101608101829052906101808201908152602001600081525090565b5b8082111561279c5760008155600101612814565b600060208284031215612839578081fd5b8135611fbb816134e7565b600060208284031215612855578081fd5b8135611fbb816134fc565b600060208284031215612871578081fd5b8151611fbb816134fc565b6000806040838503121561288e578081fd5b8235612899816134e7565b915060208301356128a9816134fc565b809150509250929050565b600080604083850312156128c6578182fd5b82356128d1816134e7565b946020939093013593505050565b600080600080600060a086880312156128f6578081fd5b8535612901816134e7565b9450602086013593506040860135612918816134e7565b925060608601359150608086013561292f816134fc565b809150509295509295909350565b60006020828403121561294e578081fd5b813560048110611fbb578182fd5b60006020828403121561296d578081fd5b815167ffffffffffffffff80821115612984578283fd5b818401915084601f830112612997578283fd5b8151818111156129a5578384fd5b604051601f8201601f1916810160200183811182821017156129c5578586fd5b6040528181528382016020018710156129dc578485fd5b6129ed8260208301602087016134bb565b9695505050505050565b600060208284031215612a08578081fd5b5035919050565b600060208284031215612a20578081fd5b5051919050565b60008060408385031215612a39578182fd5b50508035926020909101359150565b600080600060608486031215612a5c578283fd5b83359250602084013591506040840135612a75816134e7565b809150509250925092565b600080600060608486031215612a94578283fd5b83359250602084013591506040840135612a75816134fc565b600160a060020a03169052565b60008282518085526020808601955080818302840101818601855b84811015612b0357601f19868403018952612af1838351612b50565b98840198925090830190600101612ad5565b5090979650505050505050565b15159052565b60048110612b2057fe5b9052565b60008151808452612b3c8160208601602086016134bb565b601f01601f19169290920160200192915050565b60006101c0612b60848451612aad565b602083015160208501526040830151612b7c6040860182612aad565b50606083015160608501526080830151816080860152612b9e82860182612b24565b91505060a083015160a085015260c083015184820360c0860152612bc28282612b24565b91505060e083015160e085015261010080840151612be282870182612aad565b505061012080840151612bf782870182612b10565b5050610140838101519085015261016080840151612c1782870182612b10565b505061018080840151612c2c82870182612b16565b50506101a0928301519390920192909252919050565b60008251612c548184602087016134bb565b9190910192915050565b600160a060020a0391909116815260200190565b600160a060020a0392831681529116602082015260400190565b600160a060020a03929092168252602082015260400190565b600160a060020a039384168152919092166020820152604081019190915260600190565b600060208252611fbb6020830184612aba565b600060608252612cef6060830186612aba565b60208301949094525060400152919050565b901515815260200190565b90815260200190565b918252600160a060020a0316602082015260400190565b600160a060020a0393841681526020810192909252909116604082015260600190565b600060208252611fbb6020830184612b24565b60208082526014908201527f5061757361626c653a206e6f7420706175736564000000000000000000000000604082015260600190565b60208082526034908201527f416d6f756e74206973206569746865722030206f72206772656174657220746860408201527f616e20746865206f6e6520617661696c61626c65000000000000000000000000606082015260800190565b6020808252601b908201527f4d61726b6574706c616365206973206e6f742061206d696e7465720000000000604082015260600190565b60208082526024908201527f4f726465722069732065697468657220636f6d706c65746564206f7220636c6f60408201527f7365642e00000000000000000000000000000000000000000000000000000000606082015260800190565b60208082526026908201527f4f776e61626c653a206e6577206f776e657220697320746865207a65726f206160408201527f6464726573730000000000000000000000000000000000000000000000000000606082015260800190565b60208082526014908201527f416d6f756e74732063616e206e6f742062652030000000000000000000000000604082015260600190565b6020808252601d908201527f546f206973206e6f7420612076616c696420455243323020746f6b656e000000604082015260600190565b60208082526019908201527f546f6b656e202766726f6d272073686f756c6420657869737400000000000000604082015260600190565b60208082526023908201527f4f7264657220646f6573206e6f7420616c6c6f77207061727469616c2062757960408201527f6f75740000000000000000000000000000000000000000000000000000000000606082015260800190565b60208082526015908201527f546f6b656e20697320626c61636b6c69737465642e0000000000000000000000604082015260600190565b60208082526010908201527f5061757361626c653a2070617573656400000000000000000000000000000000604082015260600190565b60208082526025908201527f4f72646572207570646174657320616c6c6f776564206279206f726e6572732060408201527f6f6e6c7921000000000000000000000000000000000000000000000000000000606082015260800190565b60208082526029908201527f596f752063616e206e6f742074726967676572206275796261636b2066726f6d60408201527f20796f757273656c660000000000000000000000000000000000000000000000606082015260800190565b6020808252601a908201527f5265656e7472616e6379206973206e6f7420616c6c6f7765642e000000000000604082015260600190565b6020808252818101527f4f776e61626c653a2063616c6c6572206973206e6f7420746865206f776e6572604082015260600190565b60208082526032908201527f4f72646572206973206e6f7420666f756e64206173206163746976652e20536860408201527f6f756c64206e657665722068617070656e210000000000000000000000000000606082015260800190565b60208082526015908201527f4f7264657220646f6573206e6f742065786973742e0000000000000000000000604082015260600190565b60208082526019908201527f546f6b656e2063616e206e6f74206265207468652073616d6500000000000000604082015260600190565b6020808252601d908201527f416464726573733a2063616c6c20746f206e6f6e2d636f6e7472616374000000604082015260600190565b60208082526039908201527f4d61726b6574706c616365206e6f7420616c6c6f77656420746f207370656e6460408201527f206465736972656420616d6f756e74206f6620746f6b656e7300000000000000606082015260800190565b60208082526015908201527f496e76616c696420746f6b656e20616464726573730000000000000000000000604082015260600190565b60208082526021908201527f596f752063616e206e6f74206275796261636b2066726f6d20796f757273656c60408201527f6600000000000000000000000000000000000000000000000000000000000000606082015260800190565b6020808252602a908201527f5361666545524332303a204552433230206f7065726174696f6e20646964206e60408201527f6f74207375636365656400000000000000000000000000000000000000000000606082015260800190565b60208082526017908201527f546f6b656e2027746f272073686f756c64206578697374000000000000000000604082015260600190565b60208082526014908201527f4d617820706167652073697a6520697320313030000000000000000000000000604082015260600190565b6020808252601f908201527f46726f6d206973206e6f7420612076616c696420455243323020746f6b656e00604082015260600190565b600060208252611fbb6020830184612b50565b83815260608101613495846134b0565b60208301526134a3836134b0565b6040830152949350505050565b806004811061191257fe5b60005b838110156134d65781810151838201526020016134be565b8381111561226a5750506000910152565b600160a060020a03811681146119b257600080fd5b80151581146119b257600080fdfea2646970667358221220348dad9e9f5ca637fc0967d56e5db9fcbd296b017fefe56fd2cfcb3558d2f63b64736f6c634300060c00338be0079c531659141344cd1fd0a4f28419497f9722a3daafe3b4186f6b6457e0",
  "immutableReferences": {},
  "source": "// SPDX-License-Identifier: MIT\npragma solidity >=0.6.0 <0.8.0;\npragma experimental ABIEncoderV2;\n\nimport \"@openzeppelin/contracts/token/ERC20/SafeERC20.sol\";\nimport \"@openzeppelin/contracts/access/Ownable.sol\";\nimport \"@openzeppelin/contracts/utils/Pausable.sol\";\nimport \"@openzeppelin/contracts/math/SafeMath.sol\";\nimport \"./IOrder.sol\";\nimport \"./IToken.sol\";\n\ncontract Marketplace is Ownable, Pausable {\n  using SafeMath for uint;\n  using SafeERC20 for IToken;\n\n  bytes32 public constant MINTER_ROLE = keccak256(\"MINTER_ROLE\");\n\n  // @dev treasury wallet to forward donated eth to\n  address payable public treasury;\n\n  // @dev reward token\n  IToken public token;\n\n  // @dev amount tokens to reward for a closed order\n  uint public reward;\n\n  // @dev amount of distributed rewards\n  uint public rewardsCount;\n\n  // @dev value of distributed rewarrds\n  uint public rewardsValue;\n\n  // @dev order if incrementer\n  uint public lastOrderId;\n\n  // @dev orders book\n  mapping (uint => IOrder.Order) orders;\n\n  // @dev active orders of an user\n  mapping (address => uint[]) userActiveOrders;\n\n  // @dev orders status\n  mapping (IOrder.Status => uint) ordersStats;\n\n  // @dev blacklisted tokens count\n  uint public blacklistedTokensCount;\n\n  // @dev token addresses that are blacklisted\n  mapping (IToken => bool) blacklistedTokens;\n\n  /**\n   * @dev Emitted when the donation of `value` received from `account`.\n   */\n  event Donated(address account, uint value);\n\n  /**\n   * @dev Emitted when a `token` gets blacklisted by `who`.\n   */\n  event BlacklistedToken(IToken token, address who);\n\n  /**\n   * @dev Emitted when a `token` gets un-blacklisted by `who`.\n   */\n  event UnblacklistedToken(IToken token, address who);\n\n  /**\n   * @dev Emitted when reward `token` and a `reward` amount apecified by `who`.\n   */\n  event RewardUpdated(IToken token, uint reward, address who);\n\n  /**\n   * @dev Emitted when `receiver` rewarded with `reward` amount of tokens.\n   */\n  event Reward(address receiver, uint reward);\n\n  /**\n   * @dev Order updated\n   */\n  event OrderCreated(uint orderId);\n\n  /**\n   * @dev Order updated\n   */\n  event OrderUpdated(uint orderId, IOrder.Status fromStatus, IOrder.Status toStatus);\n\n  /**\n   * @dev check if `token` is not blacklisted\n   */\n  modifier isNotBlacklisted(IToken _token) {\n    require(\n      isTokenBlacklisted(_token) == false,\n      \"Token is blacklisted.\"\n    );\n    _;\n  }\n\n  modifier orderReentrancyGuard(uint orderId) {\n    require(\n      orders[orderId].transacting == false,\n      \"Reentrancy is not allowed.\"\n    );\n    orders[orderId].transacting = true;\n    _;\n    orders[orderId].transacting = false;\n  }\n\n  modifier orderOpen(uint orderId) {\n    require(\n      orders[orderId].id > 0,\n      \"Order does not exist.\"\n    );\n    require(\n      orders[orderId].status != IOrder.Status.Completed\n        && orders[orderId].status != IOrder.Status.Closed,\n      \"Order is either completed or closed.\"\n    );\n    _;\n  }\n\n  constructor(\n    address _owner,\n    address payable _treasury\n  ) public {\n    require(_treasury != address(0), \"Invalid treasury wallet address\");\n    require(_owner != address(0), \"Invalid owner address\");\n\n    treasury = _treasury;\n    transferOwnership(_owner);\n  }\n\n  function orderExists(uint orderId) public view returns (bool) {\n    return orders[orderId].id > 0;\n  }\n\n  function getOrder(uint orderId) public view returns (IOrder.Order memory order) {\n    order = orders[orderId];\n  }\n\n  function isOrderActive(uint orderId) public view returns (bool) {\n    IOrder.Status status = orders[orderId].status;\n\n    return orderExists(orderId)\n      && status != IOrder.Status.Completed\n      && status != IOrder.Status.Closed;\n  }\n\n  function isTokenBlacklisted(IToken _token) public view returns (bool) {\n    return blacklistedTokens[_token];\n  }\n\n  function stats(IOrder.Status status) public view returns (uint) {\n    return ordersStats[status];\n  }\n\n  function listActiveUserOrders(address user) public view\n  returns (IOrder.Order[] memory userOrders){\n    uint count = userActiveOrders[user].length;\n    userOrders = new IOrder.Order[](count);\n\n    for (uint i = 0; i < count; i++) {\n      uint orderId = userActiveOrders[user][i]; \n      userOrders[i] = orders[orderId];\n    }\n  }\n\n  function listOrders(uint offset, uint size, bool listOnlyActive) public view\n  returns (IOrder.Order[] memory page, uint newOffset, uint entries) {\n    require(size <= 100, \"Max page size is 100\");\n    page = new IOrder.Order[](size);\n\n    for (uint i = 0; i < size; i++) {\n      uint y = offset + i;\n\n      if (y >= lastOrderId) {\n        break;\n      }\n\n      uint orderId = lastOrderId - y;\n\n      if (!listOnlyActive || isOrderActive(orderId)) {\n        entries++;\n        newOffset = orderId + 1;\n        page[i] = orders[orderId];\n      }\n    }\n  }\n\n  function orderPayoffAmount(uint orderId, uint amount) public view returns (uint payoffAmount) {\n    IOrder.Order storage order = orders[orderId];\n    require(\n      amount > 0 && amount <= (order.fromAmount - order.completedAmount),\n      \"Amount is either 0 or greater than the one available\"\n    );\n    require(order.allowPartial || amount == order.fromAmount, \"Order does not allow partial buyout\");\n\n    payoffAmount = amount * order.toAmount / order.fromAmount;\n  }\n\n  function createOrder(\n    IToken from,\n    uint fromAmount,\n    IToken to,\n    uint toAmount,\n    bool allowPartial\n  ) public\n  whenNotPaused isNotBlacklisted(from) isNotBlacklisted(to)\n  returns (uint orderId) {\n    require(fromAmount > 0 && toAmount > 0, \"Amounts can not be 0\");\n    require(address(from) != address(to), \"Token can not be the same\");\n    require(address(from) != address(0), \"Token 'from' should exist\");\n    require(address(to) != address(0), \"Token 'to' should exist\");\n    require(bytes(from.symbol()).length > 0 && from.decimals() > 0, \"From is not a valid ERC20 token\");\n    require(bytes(to.symbol()).length > 0 && to.decimals() > 0, \"To is not a valid ERC20 token\");\n    require(\n      from.allowance(_msgSender(), address(this)) >= fromAmount,\n      \"Marketplace not allowed to spend desired amount of tokens\"\n    );\n\n    orderId = ++lastOrderId;\n    orders[orderId] = IOrder.Order(\n      from,\n      fromAmount,\n      to,\n      toAmount,\n      from.symbol(),\n      from.decimals(),\n      to.symbol(),\n      to.decimals(),\n      _msgSender(),\n      allowPartial,\n      orderId, // id\n      false, // transacting\n      IOrder.Status.Open, // status\n      0 // completedAmount\n    );\n    ordersStats[IOrder.Status.Open]++;\n    userActiveOrders[_msgSender()].push(orderId);\n\n    emit OrderCreated(orderId);\n  }\n\n  function closeOrder(uint orderId) public\n  orderReentrancyGuard(orderId) orderOpen(orderId)\n  returns (bool) {\n    require(orders[orderId].owner == _msgSender(), \"Order updates allowed by orners only!\");\n\n    _updateOrder(orders[orderId], IOrder.Status.Closed);\n  }\n\n  function claimOrder(uint orderId, uint amount, address wallet) public\n  whenNotPaused orderReentrancyGuard(orderId) orderOpen(orderId)\n  returns (bool) {\n    IOrder.Order storage order = orders[orderId];\n\n    require(wallet != order.owner, \"You can not buyback from yourself\");\n    require(_msgSender() != order.owner, \"You can not trigger buyback from yourself\");\n\n    uint payoffAmount = orderPayoffAmount(orderId, amount);\n    \n    require(\n      order.to.allowance(_msgSender(), address(this)) >= payoffAmount,\n      \"Marketplace not allowed to spend desired amount of tokens\"\n    );\n\n    order.completedAmount += amount;\n    IOrder.Status newStatus = order.completedAmount == order.fromAmount\n      ? IOrder.Status.Completed\n      : IOrder.Status.PartiallyCompleted;\n    \n    _updateOrder(order, newStatus);\n\n    order.to.safeTransferFrom(_msgSender(), order.owner, payoffAmount);\n    order.from.safeTransferFrom(order.owner, wallet, amount);\n    \n    // send rewards\n    _reward(order.owner);\n    _reward(_msgSender());\n\n    return true;\n  }\n\n  /**\n   * @dev Update closed order reward\n   */\n  function updateReward(IToken _token, uint _reward) public onlyOwner {\n    require(address(_token) != address(0), \"Invalid token address\");\n    require(_token.hasRole(MINTER_ROLE, address(this)), \"Marketplace is not a minter\");\n\n    token = _token;\n    reward = _reward;\n\n    emit RewardUpdated(_token, _reward, _msgSender());\n  }\n\n  /**\n   * @dev Blacklist a token\n   */\n  function blacklistToken(IToken _token, bool state) public onlyOwner {\n    blacklistedTokens[_token] = state;\n\n    if (state) {\n      blacklistedTokensCount++;\n      emit BlacklistedToken(_token, _msgSender());\n    } else {\n      blacklistedTokensCount--;\n      emit UnblacklistedToken(_token, _msgSender());\n    }\n  }\n\n  function freeze(bool state) public onlyOwner {\n    if (state) {\n      _pause();\n    } else {\n      _unpause();\n    }\n  }\n\n  function _updateOrder(IOrder.Order storage order, IOrder.Status toStatus) internal {\n    IOrder.Status fromStatus = order.status;\n\n    order.status = toStatus;\n    ordersStats[fromStatus]--;\n    ordersStats[toStatus]++;\n\n    if (toStatus == IOrder.Status.Completed || toStatus == IOrder.Status.Closed) {\n      (,bool found) = _removeActiveOrder(order.owner, order.id);\n      require(found, \"Order is not found as active. Should never happen!\");\n    }\n\n    emit OrderUpdated(order.id, fromStatus, toStatus);\n  }\n\n  /**\n   * Removes an order from active user orders\n   */\n  function _removeActiveOrder(address user, uint orderId) internal returns (uint index, bool found) {\n    for (uint i = 0; i < userActiveOrders[user].length; i++){\n      if (userActiveOrders[user][i] == orderId) {\n        found = true;\n        index = i;\n        break;\n      }\n    }\n\n    if (!found) {\n      return (index, found);\n    }\n\n    for (uint i = index; i < userActiveOrders[user].length - 1; i++){\n      userActiveOrders[user][i] = userActiveOrders[user][i + 1];\n    }\n\n    userActiveOrders[user].pop();\n  }\n\n  /**\n   * @dev transfer reward for a closed order\n   */\n  function _reward(address receiver) internal {\n    if (reward > 0) {\n      token.mint(receiver, reward);\n      rewardsCount++;\n      rewardsValue += reward;\n      emit Reward(receiver, reward);\n    }\n  }\n\n  /**\n   * @dev This function is called for all messages sent to\n   * this contract, except plain Ether transfers\n   * (there is no other function except the receive function).\n   * Any call with non-empty calldata to this contract will execute\n   * the fallback function (even if Ether is sent along with the call).\n   */\n  fallback() external payable {\n    treasury.transfer(msg.value);\n    emit Donated(_msgSender(), msg.value);\n  }\n\n  /**\n   * @dev This function is called for plain Ether transfers, i.e.\n   * for every call with empty calldata.\n   */\n  receive() external payable {\n    treasury.transfer(msg.value);\n    emit Donated(_msgSender(), msg.value);\n  }\n}\n",
  "sourcePath": "/home/alex/Projects/erc.money-app/contracts/Marketplace.sol",
  "compiler": {
    "name": "solc",
    "version": "0.6.12+commit.27d51765.Emscripten.clang"
  },
  "schemaVersion": "3.3.2",
  "updatedAt": "2020-11-14T04:05:27.251Z",
  "networkType": "ethereum",
  "devdoc": {
    "events": {
      "BlacklistedToken(address,address)": {
        "details": "Emitted when a `token` gets blacklisted by `who`."
      },
      "Donated(address,uint256)": {
        "details": "Emitted when the donation of `value` received from `account`."
      },
      "OrderCreated(uint256)": {
        "details": "Order updated"
      },
      "OrderUpdated(uint256,uint8,uint8)": {
        "details": "Order updated"
      },
      "Reward(address,uint256)": {
        "details": "Emitted when `receiver` rewarded with `reward` amount of tokens."
      },
      "RewardUpdated(address,uint256,address)": {
        "details": "Emitted when reward `token` and a `reward` amount apecified by `who`."
      },
      "UnblacklistedToken(address,address)": {
        "details": "Emitted when a `token` gets un-blacklisted by `who`."
      }
    },
    "kind": "dev",
    "methods": {
      "blacklistToken(address,bool)": {
        "details": "Blacklist a token"
      },
      "owner()": {
        "details": "Returns the address of the current owner."
      },
      "paused()": {
        "details": "Returns true if the contract is paused, and false otherwise."
      },
      "renounceOwnership()": {
        "details": "Leaves the contract without owner. It will not be possible to call `onlyOwner` functions anymore. Can only be called by the current owner. NOTE: Renouncing ownership will leave the contract without an owner, thereby removing any functionality that is only available to the owner."
      },
      "transferOwnership(address)": {
        "details": "Transfers ownership of the contract to a new account (`newOwner`). Can only be called by the current owner."
      },
      "updateReward(address,uint256)": {
        "details": "Update closed order reward"
      }
    },
    "version": 1
  },
  "userdoc": {
    "kind": "user",
    "methods": {},
    "version": 1
  }
}