{
  "contractName": "Marketplace",
  "abi": [
    {
      "inputs": [
        {
          "internalType": "address",
          "name": "_owner",
          "type": "address"
        },
        {
          "internalType": "address payable",
          "name": "_treasury",
          "type": "address"
        }
      ],
      "stateMutability": "nonpayable",
      "type": "constructor"
    },
    {
      "anonymous": false,
      "inputs": [
        {
          "indexed": false,
          "internalType": "contract IToken",
          "name": "token",
          "type": "address"
        },
        {
          "indexed": false,
          "internalType": "address",
          "name": "who",
          "type": "address"
        }
      ],
      "name": "BlacklistedToken",
      "type": "event"
    },
    {
      "anonymous": false,
      "inputs": [
        {
          "indexed": false,
          "internalType": "address",
          "name": "account",
          "type": "address"
        },
        {
          "indexed": false,
          "internalType": "uint256",
          "name": "value",
          "type": "uint256"
        }
      ],
      "name": "Donated",
      "type": "event"
    },
    {
      "anonymous": false,
      "inputs": [
        {
          "indexed": false,
          "internalType": "uint256",
          "name": "orderId",
          "type": "uint256"
        },
        {
          "indexed": false,
          "internalType": "string",
          "name": "fromSymbol",
          "type": "string"
        },
        {
          "indexed": false,
          "internalType": "string",
          "name": "toSymbol",
          "type": "string"
        }
      ],
      "name": "OrderCreated",
      "type": "event"
    },
    {
      "anonymous": false,
      "inputs": [
        {
          "indexed": false,
          "internalType": "uint256",
          "name": "orderId",
          "type": "uint256"
        },
        {
          "indexed": false,
          "internalType": "enum IOrder.Status",
          "name": "fromStatus",
          "type": "uint8"
        },
        {
          "indexed": false,
          "internalType": "enum IOrder.Status",
          "name": "toStatus",
          "type": "uint8"
        }
      ],
      "name": "OrderUpdated",
      "type": "event"
    },
    {
      "anonymous": false,
      "inputs": [
        {
          "indexed": true,
          "internalType": "address",
          "name": "previousOwner",
          "type": "address"
        },
        {
          "indexed": true,
          "internalType": "address",
          "name": "newOwner",
          "type": "address"
        }
      ],
      "name": "OwnershipTransferred",
      "type": "event"
    },
    {
      "anonymous": false,
      "inputs": [
        {
          "indexed": false,
          "internalType": "address",
          "name": "account",
          "type": "address"
        }
      ],
      "name": "Paused",
      "type": "event"
    },
    {
      "anonymous": false,
      "inputs": [
        {
          "indexed": false,
          "internalType": "address",
          "name": "receiver",
          "type": "address"
        },
        {
          "indexed": false,
          "internalType": "uint256",
          "name": "reward",
          "type": "uint256"
        }
      ],
      "name": "Reward",
      "type": "event"
    },
    {
      "anonymous": false,
      "inputs": [
        {
          "indexed": false,
          "internalType": "contract IToken",
          "name": "token",
          "type": "address"
        },
        {
          "indexed": false,
          "internalType": "uint256",
          "name": "reward",
          "type": "uint256"
        },
        {
          "indexed": false,
          "internalType": "address",
          "name": "who",
          "type": "address"
        }
      ],
      "name": "RewardUpdated",
      "type": "event"
    },
    {
      "anonymous": false,
      "inputs": [
        {
          "indexed": false,
          "internalType": "contract IToken",
          "name": "token",
          "type": "address"
        },
        {
          "indexed": false,
          "internalType": "address",
          "name": "who",
          "type": "address"
        }
      ],
      "name": "UnblacklistedToken",
      "type": "event"
    },
    {
      "anonymous": false,
      "inputs": [
        {
          "indexed": false,
          "internalType": "address",
          "name": "account",
          "type": "address"
        }
      ],
      "name": "Unpaused",
      "type": "event"
    },
    {
      "stateMutability": "payable",
      "type": "fallback",
      "payable": true
    },
    {
      "inputs": [],
      "name": "MINTER_ROLE",
      "outputs": [
        {
          "internalType": "bytes32",
          "name": "",
          "type": "bytes32"
        }
      ],
      "stateMutability": "view",
      "type": "function",
      "constant": true
    },
    {
      "inputs": [],
      "name": "blacklistedTokensCount",
      "outputs": [
        {
          "internalType": "uint256",
          "name": "",
          "type": "uint256"
        }
      ],
      "stateMutability": "view",
      "type": "function",
      "constant": true
    },
    {
      "inputs": [],
      "name": "lastOrderId",
      "outputs": [
        {
          "internalType": "uint256",
          "name": "",
          "type": "uint256"
        }
      ],
      "stateMutability": "view",
      "type": "function",
      "constant": true
    },
    {
      "inputs": [],
      "name": "owner",
      "outputs": [
        {
          "internalType": "address",
          "name": "",
          "type": "address"
        }
      ],
      "stateMutability": "view",
      "type": "function",
      "constant": true
    },
    {
      "inputs": [],
      "name": "paused",
      "outputs": [
        {
          "internalType": "bool",
          "name": "",
          "type": "bool"
        }
      ],
      "stateMutability": "view",
      "type": "function",
      "constant": true
    },
    {
      "inputs": [],
      "name": "renounceOwnership",
      "outputs": [],
      "stateMutability": "nonpayable",
      "type": "function"
    },
    {
      "inputs": [],
      "name": "reward",
      "outputs": [
        {
          "internalType": "uint256",
          "name": "",
          "type": "uint256"
        }
      ],
      "stateMutability": "view",
      "type": "function",
      "constant": true
    },
    {
      "inputs": [],
      "name": "rewardsCount",
      "outputs": [
        {
          "internalType": "uint256",
          "name": "",
          "type": "uint256"
        }
      ],
      "stateMutability": "view",
      "type": "function",
      "constant": true
    },
    {
      "inputs": [],
      "name": "rewardsValue",
      "outputs": [
        {
          "internalType": "uint256",
          "name": "",
          "type": "uint256"
        }
      ],
      "stateMutability": "view",
      "type": "function",
      "constant": true
    },
    {
      "inputs": [],
      "name": "token",
      "outputs": [
        {
          "internalType": "contract IToken",
          "name": "",
          "type": "address"
        }
      ],
      "stateMutability": "view",
      "type": "function",
      "constant": true
    },
    {
      "inputs": [
        {
          "internalType": "address",
          "name": "newOwner",
          "type": "address"
        }
      ],
      "name": "transferOwnership",
      "outputs": [],
      "stateMutability": "nonpayable",
      "type": "function"
    },
    {
      "inputs": [],
      "name": "treasury",
      "outputs": [
        {
          "internalType": "address payable",
          "name": "",
          "type": "address"
        }
      ],
      "stateMutability": "view",
      "type": "function",
      "constant": true
    },
    {
      "stateMutability": "payable",
      "type": "receive",
      "payable": true
    },
    {
      "inputs": [
        {
          "internalType": "uint256",
          "name": "orderId",
          "type": "uint256"
        }
      ],
      "name": "orderExists",
      "outputs": [
        {
          "internalType": "bool",
          "name": "",
          "type": "bool"
        }
      ],
      "stateMutability": "view",
      "type": "function",
      "constant": true
    },
    {
      "inputs": [
        {
          "internalType": "uint256",
          "name": "orderId",
          "type": "uint256"
        }
      ],
      "name": "getOrder",
      "outputs": [
        {
          "components": [
            {
              "internalType": "contract IToken",
              "name": "from",
              "type": "address"
            },
            {
              "internalType": "uint256",
              "name": "fromAmount",
              "type": "uint256"
            },
            {
              "internalType": "contract IToken",
              "name": "to",
              "type": "address"
            },
            {
              "internalType": "uint256",
              "name": "toAmount",
              "type": "uint256"
            },
            {
              "internalType": "string",
              "name": "fromSymbol",
              "type": "string"
            },
            {
              "internalType": "uint256",
              "name": "fromDecimals",
              "type": "uint256"
            },
            {
              "internalType": "string",
              "name": "toSymbol",
              "type": "string"
            },
            {
              "internalType": "uint256",
              "name": "toDecimals",
              "type": "uint256"
            },
            {
              "internalType": "address",
              "name": "owner",
              "type": "address"
            },
            {
              "internalType": "bool",
              "name": "allowPartial",
              "type": "bool"
            },
            {
              "internalType": "uint256",
              "name": "id",
              "type": "uint256"
            },
            {
              "internalType": "bool",
              "name": "transacting",
              "type": "bool"
            },
            {
              "internalType": "enum IOrder.Status",
              "name": "status",
              "type": "uint8"
            },
            {
              "internalType": "uint256",
              "name": "completedAmount",
              "type": "uint256"
            }
          ],
          "internalType": "struct IOrder.Order",
          "name": "order",
          "type": "tuple"
        }
      ],
      "stateMutability": "view",
      "type": "function",
      "constant": true
    },
    {
      "inputs": [
        {
          "internalType": "uint256",
          "name": "orderId",
          "type": "uint256"
        }
      ],
      "name": "isOrderActive",
      "outputs": [
        {
          "internalType": "bool",
          "name": "",
          "type": "bool"
        }
      ],
      "stateMutability": "view",
      "type": "function",
      "constant": true
    },
    {
      "inputs": [
        {
          "internalType": "contract IToken",
          "name": "_token",
          "type": "address"
        }
      ],
      "name": "isTokenBlacklisted",
      "outputs": [
        {
          "internalType": "bool",
          "name": "",
          "type": "bool"
        }
      ],
      "stateMutability": "view",
      "type": "function",
      "constant": true
    },
    {
      "inputs": [
        {
          "internalType": "enum IOrder.Status",
          "name": "status",
          "type": "uint8"
        }
      ],
      "name": "stats",
      "outputs": [
        {
          "internalType": "uint256",
          "name": "",
          "type": "uint256"
        }
      ],
      "stateMutability": "view",
      "type": "function",
      "constant": true
    },
    {
      "inputs": [
        {
          "internalType": "address",
          "name": "user",
          "type": "address"
        },
        {
          "internalType": "contract IToken",
          "name": "from",
          "type": "address"
        },
        {
          "internalType": "uint256",
          "name": "additionalAmount",
          "type": "uint256"
        }
      ],
      "name": "requiredUserTokenAllowance",
      "outputs": [
        {
          "internalType": "uint256",
          "name": "allowance",
          "type": "uint256"
        }
      ],
      "stateMutability": "view",
      "type": "function",
      "constant": true
    },
    {
      "inputs": [
        {
          "internalType": "address",
          "name": "user",
          "type": "address"
        }
      ],
      "name": "listActiveUserOrders",
      "outputs": [
        {
          "components": [
            {
              "internalType": "contract IToken",
              "name": "from",
              "type": "address"
            },
            {
              "internalType": "uint256",
              "name": "fromAmount",
              "type": "uint256"
            },
            {
              "internalType": "contract IToken",
              "name": "to",
              "type": "address"
            },
            {
              "internalType": "uint256",
              "name": "toAmount",
              "type": "uint256"
            },
            {
              "internalType": "string",
              "name": "fromSymbol",
              "type": "string"
            },
            {
              "internalType": "uint256",
              "name": "fromDecimals",
              "type": "uint256"
            },
            {
              "internalType": "string",
              "name": "toSymbol",
              "type": "string"
            },
            {
              "internalType": "uint256",
              "name": "toDecimals",
              "type": "uint256"
            },
            {
              "internalType": "address",
              "name": "owner",
              "type": "address"
            },
            {
              "internalType": "bool",
              "name": "allowPartial",
              "type": "bool"
            },
            {
              "internalType": "uint256",
              "name": "id",
              "type": "uint256"
            },
            {
              "internalType": "bool",
              "name": "transacting",
              "type": "bool"
            },
            {
              "internalType": "enum IOrder.Status",
              "name": "status",
              "type": "uint8"
            },
            {
              "internalType": "uint256",
              "name": "completedAmount",
              "type": "uint256"
            }
          ],
          "internalType": "struct IOrder.Order[]",
          "name": "userOrders",
          "type": "tuple[]"
        }
      ],
      "stateMutability": "view",
      "type": "function",
      "constant": true
    },
    {
      "inputs": [
        {
          "internalType": "uint256",
          "name": "offset",
          "type": "uint256"
        },
        {
          "internalType": "uint256",
          "name": "size",
          "type": "uint256"
        },
        {
          "internalType": "bool",
          "name": "listOnlyActive",
          "type": "bool"
        },
        {
          "internalType": "string",
          "name": "matchSymbol",
          "type": "string"
        }
      ],
      "name": "listOrders",
      "outputs": [
        {
          "components": [
            {
              "internalType": "contract IToken",
              "name": "from",
              "type": "address"
            },
            {
              "internalType": "uint256",
              "name": "fromAmount",
              "type": "uint256"
            },
            {
              "internalType": "contract IToken",
              "name": "to",
              "type": "address"
            },
            {
              "internalType": "uint256",
              "name": "toAmount",
              "type": "uint256"
            },
            {
              "internalType": "string",
              "name": "fromSymbol",
              "type": "string"
            },
            {
              "internalType": "uint256",
              "name": "fromDecimals",
              "type": "uint256"
            },
            {
              "internalType": "string",
              "name": "toSymbol",
              "type": "string"
            },
            {
              "internalType": "uint256",
              "name": "toDecimals",
              "type": "uint256"
            },
            {
              "internalType": "address",
              "name": "owner",
              "type": "address"
            },
            {
              "internalType": "bool",
              "name": "allowPartial",
              "type": "bool"
            },
            {
              "internalType": "uint256",
              "name": "id",
              "type": "uint256"
            },
            {
              "internalType": "bool",
              "name": "transacting",
              "type": "bool"
            },
            {
              "internalType": "enum IOrder.Status",
              "name": "status",
              "type": "uint8"
            },
            {
              "internalType": "uint256",
              "name": "completedAmount",
              "type": "uint256"
            }
          ],
          "internalType": "struct IOrder.Order[]",
          "name": "page",
          "type": "tuple[]"
        },
        {
          "internalType": "uint256",
          "name": "newOffset",
          "type": "uint256"
        },
        {
          "internalType": "uint256",
          "name": "entries",
          "type": "uint256"
        }
      ],
      "stateMutability": "view",
      "type": "function",
      "constant": true
    },
    {
      "inputs": [
        {
          "internalType": "uint256",
          "name": "orderId",
          "type": "uint256"
        },
        {
          "internalType": "uint256",
          "name": "amount",
          "type": "uint256"
        }
      ],
      "name": "orderPayoffAmount",
      "outputs": [
        {
          "internalType": "uint256",
          "name": "payoffAmount",
          "type": "uint256"
        }
      ],
      "stateMutability": "view",
      "type": "function",
      "constant": true
    },
    {
      "inputs": [
        {
          "internalType": "contract IToken",
          "name": "from",
          "type": "address"
        },
        {
          "internalType": "uint256",
          "name": "fromAmount",
          "type": "uint256"
        },
        {
          "internalType": "contract IToken",
          "name": "to",
          "type": "address"
        },
        {
          "internalType": "uint256",
          "name": "toAmount",
          "type": "uint256"
        },
        {
          "internalType": "bool",
          "name": "allowPartial",
          "type": "bool"
        }
      ],
      "name": "createOrder",
      "outputs": [
        {
          "internalType": "uint256",
          "name": "orderId",
          "type": "uint256"
        }
      ],
      "stateMutability": "nonpayable",
      "type": "function"
    },
    {
      "inputs": [
        {
          "internalType": "uint256",
          "name": "orderId",
          "type": "uint256"
        }
      ],
      "name": "closeOrder",
      "outputs": [
        {
          "internalType": "bool",
          "name": "",
          "type": "bool"
        }
      ],
      "stateMutability": "nonpayable",
      "type": "function"
    },
    {
      "inputs": [
        {
          "internalType": "uint256",
          "name": "orderId",
          "type": "uint256"
        },
        {
          "internalType": "uint256",
          "name": "amount",
          "type": "uint256"
        },
        {
          "internalType": "address",
          "name": "wallet",
          "type": "address"
        }
      ],
      "name": "claimOrder",
      "outputs": [
        {
          "internalType": "bool",
          "name": "",
          "type": "bool"
        }
      ],
      "stateMutability": "nonpayable",
      "type": "function"
    },
    {
      "inputs": [
        {
          "internalType": "contract IToken",
          "name": "_token",
          "type": "address"
        },
        {
          "internalType": "uint256",
          "name": "_reward",
          "type": "uint256"
        }
      ],
      "name": "updateReward",
      "outputs": [],
      "stateMutability": "nonpayable",
      "type": "function"
    },
    {
      "inputs": [
        {
          "internalType": "contract IToken",
          "name": "_token",
          "type": "address"
        },
        {
          "internalType": "bool",
          "name": "state",
          "type": "bool"
        }
      ],
      "name": "blacklistToken",
      "outputs": [],
      "stateMutability": "nonpayable",
      "type": "function"
    },
    {
      "inputs": [
        {
          "internalType": "bool",
          "name": "state",
          "type": "bool"
        }
      ],
      "name": "freeze",
      "outputs": [],
      "stateMutability": "nonpayable",
      "type": "function"
    }
  ],
  "bytecode": "0x60806040523480156200001157600080fd5b5060405162003f8a38038062003f8a833981016040819052620000349162000246565b60006200004964010000000062000158810204565b60008054600160a060020a031916600160a060020a03831690811782556040519293509160008051602062003f6a833981519152908290a3506000805460a060020a60ff0219169055600160a060020a038116620000de576040517f08c379a0000000000000000000000000000000000000000000000000000000008152600401620000d590620002e1565b60405180910390fd5b600160a060020a03821662000121576040517f08c379a0000000000000000000000000000000000000000000000000000000008152600401620000d59062000318565b60018054600160a060020a031916600160a060020a03831617905562000150826401000000006200015c810204565b50506200039d565b3390565b6200016f64010000000062000158810204565b600054600160a060020a03908116911614620001b9576040517f08c379a0000000000000000000000000000000000000000000000000000000008152600401620000d5906200034f565b600160a060020a038116620001fc576040517f08c379a0000000000000000000000000000000000000000000000000000000008152600401620000d59062000284565b60008054604051600160a060020a038085169392169160008051602062003f6a83398151915291a360008054600160a060020a031916600160a060020a0392909216919091179055565b6000806040838503121562000259578182fd5b8251620002668162000384565b6020840151909250620002798162000384565b809150509250929050565b60208082526026908201527f4f776e61626c653a206e6577206f776e657220697320746865207a65726f206160408201527f6464726573730000000000000000000000000000000000000000000000000000606082015260800190565b6020808252601f908201527f496e76616c69642074726561737572792077616c6c6574206164647265737300604082015260600190565b60208082526015908201527f496e76616c6964206f776e657220616464726573730000000000000000000000604082015260600190565b6020808252818101527f4f776e61626c653a2063616c6c6572206973206e6f7420746865206f776e6572604082015260600190565b600160a060020a03811681146200039a57600080fd5b50565b613bbd80620003ad6000396000f3fe6080604052600436106101a45760003560e060020a900480638699a65f116100f0578063c5a5cd691161008e578063d539139311610068578063d539139314610536578063d6e435851461054b578063f2fde38b1461056b578063fc0c546a1461058b57610225565b8063c5a5cd69146104c9578063ce9be9ba146104e9578063d09ef2411461050957610225565b8063b0f8bb12116100ca578063b0f8bb1214610447578063b5bf15e514610467578063c028c83814610487578063c4d5d0dd146104b457610225565b80638699a65f146103fd5780638da5cb5b146104125780639c5bbcf91461042757610225565b80633012b94e1161015d57806361d027b31161013757806361d027b314610377578063715018a61461039957806382545978146103ae57806386317b96146103dd57610225565b80633012b94e1461032d5780635662ecc71461034d5780635c975abb1461036257610225565b8063069d6d1c1461025e578063121025fe14610294578063190e4c55146102b65780631a399125146102d8578063228cb733146102f85780632ad54a921461030d57610225565b3661022557600154604051600160a060020a03909116903480156108fc02916000818181858888f193505050501580156101e2573d6000803e3d6000fd5b507f2a01595cddf097c90216094025db714da3f4e5bd8877b56ba86a24ecead8e54361020c6105a0565b3460405161021b929190613217565b60405180910390a1005b600154604051600160a060020a03909116903480156108fc02916000818181858888f193505050501580156101e2573d6000803e3d6000fd5b34801561026a57600080fd5b5061027e610279366004612f1c565b6105a4565b60405161028b919061328c565b60405180910390f35b3480156102a057600080fd5b506102a9610723565b60405161028b9190613297565b3480156102c257600080fd5b506102d66102d1366004612dc4565b610729565b005b3480156102e457600080fd5b506102d66102f3366004612dfc565b61082b565b34801561030457600080fd5b506102a96109cb565b34801561031957600080fd5b506102a9610328366004612e27565b6109d1565b34801561033957600080fd5b5061027e610348366004612f6d565b6110c8565b34801561035957600080fd5b506102a9611405565b34801561036e57600080fd5b5061027e61140b565b34801561038357600080fd5b5061038c61141b565b60405161028b91906131e9565b3480156103a557600080fd5b506102d661142a565b3480156103ba57600080fd5b506103ce6103c9366004612fa5565b6114b9565b60405161028b93929190613267565b3480156103e957600080fd5b5061027e6103f8366004612f1c565b6119a3565b34801561040957600080fd5b506102a96119bd565b34801561041e57600080fd5b5061038c6119c3565b34801561043357600080fd5b506102a9610442366004612e85565b6119d2565b34801561045357600080fd5b506102a9610462366004612d4c565b611a05565b34801561047357600080fd5b506102d6610482366004612d8c565b611ca0565b34801561049357600080fd5b506104a76104a2366004612d30565b611cf6565b60405161028b9190613254565b3480156104c057600080fd5b506102a9611fbf565b3480156104d557600080fd5b506102a96104e4366004612f4c565b611fc5565b3480156104f557600080fd5b5061027e610504366004612d30565b612063565b34801561051557600080fd5b50610529610524366004612f1c565b612081565b60405161028b9190613a6f565b34801561054257600080fd5b506102a9612285565b34801561055757600080fd5b5061027e610566366004612f1c565b6122a9565b34801561057757600080fd5b506102d6610586366004612d30565b612303565b34801561059757600080fd5b5061038c6123cc565b3390565b6000818152600760205260408120600a0154829060ff16156105e45760405160e560020a62461bcd0281526004016105db9061371f565b60405180910390fd5b600081815260076020526040808220600a01805460ff19166001179055848252902060090154839061062b5760405160e560020a62461bcd0281526004016105db906137e8565b60026000828152600760205260409020600a0154610100900460ff16600381111561065257fe5b14158015610685575060036000828152600760205260409020600a0154610100900460ff16600381111561068257fe5b14155b6106a45760405160e560020a62461bcd0281526004016105db906133b8565b6106ac6105a0565b600085815260076020526040902060080154600160a060020a039081169116146106eb5760405160e560020a62461bcd0281526004016105db90613608565b60008481526007602052604090206107049060036123db565b506000908152600760205260409020600a01805460ff19169055919050565b600a5481565b6107316105a0565b600054600160a060020a039081169116146107615760405160e560020a62461bcd0281526004016105db90613756565b600160a060020a0382166000908152600b60205260409020805460ff191682158015919091179091556107dc57600a805460010190557fb0dff05d63bda79ce2b542fd08755b28bc58bca10a39883608bb71f687edfdf7826107c16105a0565b6040516107cf9291906131fd565b60405180910390a1610827565b600a80546000190190557f51ebcd2e6a7592e9883b86a58bb3dcaeb7aa87e0475fb26ff0a1eadba26dcfe4826108106105a0565b60405161081e9291906131fd565b60405180910390a15b5050565b6108336105a0565b600054600160a060020a039081169116146108635760405160e560020a62461bcd0281526004016105db90613756565b600160a060020a03821661088c5760405160e560020a62461bcd0281526004016105db90613947565b6040517f91d14854000000000000000000000000000000000000000000000000000000008152600160a060020a038316906391d14854906108f3907f9f2df0fed2c77648de5860a4cc508cd0818c85b8b8a1ab4ceeef8d981c8956a69030906004016132a0565b602060405180830381600087803b15801561090d57600080fd5b505af1158015610921573d6000803e3d6000fd5b505050506040513d601f19601f820116820180604052508101906109459190612da8565b6109645760405160e560020a62461bcd0281526004016105db90613381565b6002805473ffffffffffffffffffffffffffffffffffffffff1916600160a060020a03841617905560038190557fc8d71d1dc9e781ced39e0ea7e9acc09b0a1a07e73daf21d78f651b2e4a37c52e82826109bc6105a0565b60405161081e939291906132b7565b60035481565b6000805460a060020a900460ff16156109ff5760405160e560020a62461bcd0281526004016105db906135d1565b85610a0981612063565b15610a295760405160e560020a62461bcd0281526004016105db9061359a565b84610a3381612063565b15610a535760405160e560020a62461bcd0281526004016105db9061359a565b600087118015610a635750600085115b610a825760405160e560020a62461bcd0281526004016105db90613472565b85600160a060020a031688600160a060020a03161415610ab75760405160e560020a62461bcd0281526004016105db9061381f565b610ac088612523565b610adf5760405160e560020a62461bcd0281526004016105db906134e0565b610ae886612523565b610b075760405160e560020a62461bcd0281526004016105db906134a9565b606088600160a060020a03166395d89b416040518163ffffffff1660e060020a028152600401600060405180830381600087803b158015610b4757600080fd5b505af1158015610b5b573d6000803e3d6000fd5b505050506040513d6000823e601f3d908101601f19168201604052610b839190810190612ea4565b9050600089600160a060020a031663313ce5676040518163ffffffff1660e060020a028152600401602060405180830381600087803b158015610bc557600080fd5b505af1158015610bd9573d6000803e3d6000fd5b505050506040513d601f19601f82011682018060405250810190610bfd9190612f34565b9050606088600160a060020a03166395d89b416040518163ffffffff1660e060020a028152600401600060405180830381600087803b158015610c3f57600080fd5b505af1158015610c53573d6000803e3d6000fd5b505050506040513d6000823e601f3d908101601f19168201604052610c7b9190810190612ea4565b905060008b600160a060020a031663313ce5676040518163ffffffff1660e060020a028152600401602060405180830381600087803b158015610cbd57600080fd5b505af1158015610cd1573d6000803e3d6000fd5b505050506040513d601f19601f82011682018060405250810190610cf59190612f34565b905060008451118015610d085750600083115b610d275760405160e560020a62461bcd0281526004016105db906136c2565b60008251118015610d385750600081115b610d575760405160e560020a62461bcd0281526004016105db906138ea565b610d69610d626105a0565b8d8d611a05565b8c600160a060020a031663dd62ed3e610d806105a0565b306040518363ffffffff1660e060020a028152600401610da19291906131fd565b60206040518083038186803b158015610db957600080fd5b505afa158015610dcd573d6000803e3d6000fd5b505050506040513d601f19601f82011682018060405250810190610df19190612f34565b1015610e125760405160e560020a62461bcd0281526004016105db9061388d565b6006600081546001019190508190559650604051806101c001604052808d600160a060020a031681526020018c81526020018b600160a060020a031681526020018a8152602001858152602001848152602001838152602001828152602001610e796105a0565b600160a060020a03168152891515602082015260408101899052600060608201819052608090910190815260006020918201819052898152600782526040908190208351815473ffffffffffffffffffffffffffffffffffffffff19908116600160a060020a039283161783558585015160018401559285015160028301805490941691161790915560608301516003820155608083015180519192610f2792600485019290910190612c2e565b5060a0820151600582015560c08201518051610f4d916006840191602090910190612c2e565b5060e082015160078201556101008083015160088301805461012086015173ffffffffffffffffffffffffffffffffffffffff19909116600160a060020a039093169290921774ff0000000000000000000000000000000000000000191660a060020a921515929092029190911790556101408301516009830155610160830151600a8301805460ff1916911515919091178082556101808501519261ff001990911690836003811115610ffd57fe5b02179055506101a09190910151600b90910155600080805260096020527fec8156718a8372b1db44bb411437d0870f3e3790d4a08526d024ce1b0b668f6b8054600101905560089061104d6105a0565b600160a060020a03168152602080820192909252604090810160009081208054600181018255908252929020909101889055517f89f897c504b69b59ad55283ab53153437d5edca35a5463384eb830075f50d884906110b190899087908690613aad565b60405180910390a150505050505095945050505050565b6000805460a060020a900460ff16156110f65760405160e560020a62461bcd0281526004016105db906135d1565b6000848152600760205260409020600a0154849060ff161561112d5760405160e560020a62461bcd0281526004016105db9061371f565b600081815260076020526040808220600a01805460ff1916600117905586825290206009015485906111745760405160e560020a62461bcd0281526004016105db906137e8565b60026000828152600760205260409020600a0154610100900460ff16600381111561119b57fe5b141580156111ce575060036000828152600760205260409020600a0154610100900460ff1660038111156111cb57fe5b14155b6111ed5760405160e560020a62461bcd0281526004016105db906133b8565b60008681526007602052604090206008810154600160a060020a038681169116141561122e5760405160e560020a62461bcd0281526004016105db9061397e565b6008810154600160a060020a03166112446105a0565b600160a060020a0316141561126e5760405160e560020a62461bcd0281526004016105db90613665565b600061127a8888611fc5565b60028301549091508190600160a060020a031663dd62ed3e61129a6105a0565b306040518363ffffffff1660e060020a0281526004016112bb9291906131fd565b60206040518083038186803b1580156112d357600080fd5b505afa1580156112e7573d6000803e3d6000fd5b505050506040513d601f19601f8201168201806040525081019061130b9190612f34565b101561132c5760405160e560020a62461bcd0281526004016105db9061388d565b600b8201805488019081905560018301546000911461134c57600161134f565b60025b905061135b83826123db565b6113846113666105a0565b60088501546002860154600160a060020a0390811692911685612529565b600883015483546113a391600160a060020a039182169116898b612529565b60028160038111156113b157fe5b14156113ce5760088301546113ce90600160a060020a03166125b7565b6113de6113d96105a0565b6125b7565b505050600091825250600760205260409020600a01805460ff191690555060019392505050565b60065481565b60005460a060020a900460ff1690565b600154600160a060020a031681565b6114326105a0565b600054600160a060020a039081169116146114625760405160e560020a62461bcd0281526004016105db90613756565b60008054604051600160a060020a03909116907f8be0079c531659141344cd1fd0a4f28419497f9722a3daafe3b4186f6b6457e0908390a36000805473ffffffffffffffffffffffffffffffffffffffff19169055565b606060008060648611156114e25760405160e560020a62461bcd0281526004016105db90613a38565b8567ffffffffffffffff811180156114f957600080fd5b5060405190808252806020026020018201604052801561153357816020015b611520612ca8565b8152602001906001900390816115185790505b50925060005b86811015611998576006548882019081106115545750611998565b60065481900387158061156b575061156b816122a9565b8015611772575060008181526007602090815260409182902082516101c0810184528154600160a060020a03908116825260018084015483860152600280850154909216838701526003840154606084015260048401805487516101009382161593909302600019011692909204601f810186900486028201860190965285815261177295929460808601939192919083018282801561164c5780601f106116215761010080835404028352916020019161164c565b820191906000526020600020905b81548152906001019060200180831161162f57829003601f168201915b5050509183525050600582015460208083019190915260068301805460408051601f600260001961010060018716150201909416939093049283018590048502810185018252828152940193928301828280156116ea5780601f106116bf576101008083540402835291602001916116ea565b820191906000526020600020905b8154815290600101906020018083116116cd57829003601f168201915b5050509183525050600782015460208201526008820154600160a060020a038116604083015260ff60a060020a90910481161515606083015260098301546080830152600a830154808216151560a084015260c090920191610100900416600381111561175357fe5b600381111561175e57fe5b8152602001600b820154815250508861268e565b1561198e5760008181526007602090815260409182902082516101c0810184528154600160a060020a039081168252600180840154838601526002808501549092168387015260038401546060840152600484018054875161010082851615026000190190911693909304601f81018790048702840187019097528683528882019b50990198919492936080860193919291908301828280156118565780601f1061182b57610100808354040283529160200191611856565b820191906000526020600020905b81548152906001019060200180831161183957829003601f168201915b5050509183525050600582015460208083019190915260068301805460408051601f600260001961010060018716150201909416939093049283018590048502810185018252828152940193928301828280156118f45780601f106118c9576101008083540402835291602001916118f4565b820191906000526020600020905b8154815290600101906020018083116118d757829003601f168201915b5050509183525050600782015460208201526008820154600160a060020a038116604083015260ff60a060020a90910481161515606083015260098301546080830152600a830154808216151560a084015260c090920191610100900416600381111561195d57fe5b600381111561196857fe5b8152602001600b8201548152505086848151811061198257fe5b60200260200101819052505b5050600101611539565b509450945094915050565b60008181526007602052604090206009015415155b919050565b60045481565b600054600160a060020a031690565b6000600960008360038111156119e457fe5b60038111156119ef57fe5b8152602001908152602001600020549050919050565b6000805b600160a060020a038516600090815260086020526040902054811015611c9857600160a060020a0385166000908152600860205260408120805483908110611a4d57fe5b90600052602060002001549050611a62612ca8565b60008281526007602090815260409182902082516101c0810184528154600160a060020a03908116825260018084015483860152600280850154909216838701526003840154606084015260048401805487516101009382161593909302600019011692909204601f810186900486028201860190965285815291949293608086019390830182828015611b375780601f10611b0c57610100808354040283529160200191611b37565b820191906000526020600020905b815481529060010190602001808311611b1a57829003601f168201915b5050509183525050600582015460208083019190915260068301805460408051601f60026000196101006001871615020190941693909304928301859004850281018501825282815294019392830182828015611bd55780601f10611baa57610100808354040283529160200191611bd5565b820191906000526020600020905b815481529060010190602001808311611bb857829003601f168201915b5050509183525050600782015460208201526008820154600160a060020a038116604083015260ff60a060020a90910481161515606083015260098301546080830152600a830154808216151560a084015260c0909201916101009004166003811115611c3e57fe5b6003811115611c4957fe5b8152602001600b82015481525050905085600160a060020a03168160000151600160a060020a031614611c7d575050611c90565b806101a001518160200151038401935050505b600101611a09565b500192915050565b611ca86105a0565b600054600160a060020a03908116911614611cd85760405160e560020a62461bcd0281526004016105db90613756565b8015611ceb57611ce66126bb565b611cf3565b611cf361274c565b50565b600160a060020a0381166000908152600860205260409020546060908067ffffffffffffffff81118015611d2957600080fd5b50604051908082528060200260200182016040528015611d6357816020015b611d50612ca8565b815260200190600190039081611d485790505b50915060005b81811015611fb857600160a060020a0384166000908152600860205260408120805483908110611d9557fe5b6000918252602080832091909101548083526007825260409283902083516101c0810185528154600160a060020a03908116825260018084015483870152600280850154909216838801526003840154606084015260048401805488516101009382161593909302600019011692909204601f81018790048702820187019097528681529396509094919360808601939290830182828015611e785780601f10611e4d57610100808354040283529160200191611e78565b820191906000526020600020905b815481529060010190602001808311611e5b57829003601f168201915b5050509183525050600582015460208083019190915260068301805460408051601f60026000196101006001871615020190941693909304928301859004850281018501825282815294019392830182828015611f165780601f10611eeb57610100808354040283529160200191611f16565b820191906000526020600020905b815481529060010190602001808311611ef957829003601f168201915b5050509183525050600782015460208201526008820154600160a060020a038116604083015260ff60a060020a90910481161515606083015260098301546080830152600a830154808216151560a084015260c0909201916101009004166003811115611f7f57fe5b6003811115611f8a57fe5b8152602001600b82015481525050848381518110611fa457fe5b602090810291909101015250600101611d69565b5050919050565b60055481565b60008281526007602052604081208215801590611fec575080600b01548160010154038311155b61200b5760405160e560020a62461bcd0281526004016105db90613324565b600881015460a060020a900460ff16806120285750806001015483145b6120475760405160e560020a62461bcd0281526004016105db9061353d565b8060010154816003015484028161205a57fe5b04949350505050565b600160a060020a03166000908152600b602052604090205460ff1690565b612089612ca8565b60008281526007602090815260409182902082516101c0810184528154600160a060020a03908116825260018084015483860152600280850154909216838701526003840154606084015260048401805487516101009382161593909302600019011692909204601f81018690048602820186019096528581529194929360808601939083018282801561215e5780601f106121335761010080835404028352916020019161215e565b820191906000526020600020905b81548152906001019060200180831161214157829003601f168201915b5050509183525050600582015460208083019190915260068301805460408051601f600260001961010060018716150201909416939093049283018590048502810185018252828152940193928301828280156121fc5780601f106121d1576101008083540402835291602001916121fc565b820191906000526020600020905b8154815290600101906020018083116121df57829003601f168201915b5050509183525050600782015460208201526008820154600160a060020a038116604083015260ff60a060020a90910481161515606083015260098301546080830152600a830154808216151560a084015260c090920191610100900416600381111561226557fe5b600381111561227057fe5b8152602001600b820154815250509050919050565b7f9f2df0fed2c77648de5860a4cc508cd0818c85b8b8a1ab4ceeef8d981c8956a681565b6000818152600760205260408120600a0154610100900460ff166122cc836119a3565b80156122e4575060028160038111156122e157fe5b14155b80156122fc575060038160038111156122f957fe5b14155b9392505050565b61230b6105a0565b600054600160a060020a0390811691161461233b5760405160e560020a62461bcd0281526004016105db90613756565b600160a060020a0381166123645760405160e560020a62461bcd0281526004016105db90613415565b60008054604051600160a060020a03808516939216917f8be0079c531659141344cd1fd0a4f28419497f9722a3daafe3b4186f6b6457e091a36000805473ffffffffffffffffffffffffffffffffffffffff1916600160a060020a0392909216919091179055565b600254600160a060020a031681565b600a8201805461010080820460ff16928492909161ff00199091169083600381111561240357fe5b02179055506009600082600381111561241857fe5b600381111561242357fe5b815260208101919091526040016000908120805460001901905560099083600381111561244c57fe5b600381111561245757fe5b8152602081019190915260400160002080546001019055600282600381111561247c57fe5b14806124935750600382600381111561249157fe5b145b156124df57600883015460098401546000916124ba91600160a060020a03909116906127bf565b915050806124dd5760405160e560020a62461bcd0281526004016105db9061378b565b505b7fbd63b5282661ee29288057b2d23c1d8f53d1623238e656d3ab0313766e232cfe8360090154828460405161251693929190613a82565b60405180910390a1505050565b3b151590565b6125b1846323b872dd60e060020a0285858560405160240161254d93929190613230565b60408051601f198184030181529190526020810180517bffffffffffffffffffffffffffffffffffffffffffffffffffffffff167fffffffff0000000000000000000000000000000000000000000000000000000090931692909217909152612918565b50505050565b60035415611cf3576002546003546040517f40c10f19000000000000000000000000000000000000000000000000000000008152600160a060020a03909216916340c10f199161260c91859190600401613217565b600060405180830381600087803b15801561262657600080fd5b505af115801561263a573d6000803e3d6000fd5b5050600480546001019055505060035460058054820190556040517f619caafabdd75649b302ba8419e48cccf64f37f1983ac4727cfb38b57703ffc99161268391849190613217565b60405180910390a150565b600061269e8360800151836129af565b806126b257506126b28360c00151836129af565b90505b92915050565b60005460a060020a900460ff16156126e85760405160e560020a62461bcd0281526004016105db906135d1565b6000805474ff0000000000000000000000000000000000000000191660a060020a1790557f62e78cea01bee320cd4e420270b5ea74000d11b0c9f74754ebdbfc544b05a2586127356105a0565b60405161274291906131e9565b60405180910390a1565b60005460a060020a900460ff166127785760405160e560020a62461bcd0281526004016105db906132ed565b6000805474ff0000000000000000000000000000000000000000191690557f5db9ee0a495bf2e6ff9c91a7834c1ba4fdd244a5e8aa4e537bd38aeae4b073aa6127356105a0565b60008060005b600160a060020a03851660009081526008602052604090205481101561283157600160a060020a038516600090815260086020526040902080548591908390811061280c57fe5b906000526020600020015414156128295760019150809250612831565b6001016127c5565b508061283c57612911565b815b600160a060020a038516600090815260086020526040902054600019018110156128d857600160a060020a038516600090815260086020526040902080546001830190811061288957fe5b90600052602060002001546008600087600160a060020a0316600160a060020a0316815260200190815260200160002082815481106128c457fe5b60009182526020909120015560010161283e565b50600160a060020a03841660009081526008602052604090208054806128fa57fe5b600190038181906000526020600020016000905590555b9250929050565b606061296d826040518060400160405280602081526020017f5361666545524332303a206c6f772d6c6576656c2063616c6c206661696c656481525085600160a060020a0316612a969092919063ffffffff16565b8051909150156129aa578080602001905181019061298b9190612da8565b6129aa5760405160e560020a62461bcd0281526004016105db906139db565b505050565b815160009083906129c45760019150506126b5565b8260005b8151835103811015612a8d57600160005b8351811015612a7357612a088482815181106129f157fe5b602001015160f860020a900460f860020a02612aad565b7effffffffffffffffffffffffffffffffffffffffffffffffffffffffffffff1916612a3b86838601815181106129f157fe5b7fff000000000000000000000000000000000000000000000000000000000000001614612a6b5760009150612a73565b6001016129d9565b508015612a84576001945050612a8d565b506001016129c8565b50505092915050565b6060612aa58484600085612b64565b949350505050565b60007f61000000000000000000000000000000000000000000000000000000000000007fff00000000000000000000000000000000000000000000000000000000000000831610801590612b4357507f7a000000000000000000000000000000000000000000000000000000000000007fff00000000000000000000000000000000000000000000000000000000000000831611155b15612b605760208260f860020a90040360f860020a0290506119b8565b5090565b6060612b6f85612523565b612b8e5760405160e560020a62461bcd0281526004016105db90613856565b6000606086600160a060020a03168587604051612bab91906131cd565b60006040518083038185875af1925050503d8060008114612be8576040519150601f19603f3d011682016040523d82523d6000602084013e612bed565b606091505b50915091508115612c01579150612aa59050565b805115612c115780518082602001fd5b8360405160e560020a62461bcd0281526004016105db91906132da565b828054600181600116156101000203166002900490600052602060002090601f016020900481019282601f10612c6f57805160ff1916838001178555612c9c565b82800160010185558215612c9c579182015b82811115612c9c578251825591602001919060010190612c81565b50612b60929150612d1b565b604080516101c08101825260008082526020820181905291810182905260608082018390526080820181905260a0820183905260c082015260e081018290526101008101829052610120810182905261014081018290526101608101829052906101808201908152602001600081525090565b5b80821115612b605760008155600101612d1c565b600060208284031215612d41578081fd5b81356122fc81613b64565b600080600060608486031215612d60578182fd5b8335612d6b81613b64565b92506020840135612d7b81613b64565b929592945050506040919091013590565b600060208284031215612d9d578081fd5b81356122fc81613b79565b600060208284031215612db9578081fd5b81516122fc81613b79565b60008060408385031215612dd6578182fd5b8235612de181613b64565b91506020830135612df181613b79565b809150509250929050565b60008060408385031215612e0e578182fd5b8235612e1981613b64565b946020939093013593505050565b600080600080600060a08688031215612e3e578081fd5b8535612e4981613b64565b9450602086013593506040860135612e6081613b64565b9250606086013591506080860135612e7781613b79565b809150509295509295909350565b600060208284031215612e96578081fd5b8135600481106122fc578182fd5b600060208284031215612eb5578081fd5b815167ffffffffffffffff811115612ecb578182fd5b8201601f81018413612edb578182fd5b8051612eee612ee982613b09565b613ae2565b818152856020838501011115612f02578384fd5b612f13826020830160208601613b38565b95945050505050565b600060208284031215612f2d578081fd5b5035919050565b600060208284031215612f45578081fd5b5051919050565b60008060408385031215612f5e578182fd5b50508035926020909101359150565b600080600060608486031215612f81578283fd5b83359250602084013591506040840135612f9a81613b64565b809150509250925092565b60008060008060808587031215612fba578182fd5b84359350602085013592506040850135612fd381613b79565b9150606085013567ffffffffffffffff811115612fee578182fd5b8501601f81018713612ffe578182fd5b803561300c612ee982613b09565b818152886020838501011115613020578384fd5b81602084016020830137908101602001929092525092959194509250565b600160a060020a03169052565b6000815180845260208085019450848183028601828601855b8581101561308e57838303895261307c8383516130db565b98850198925090840190600101613064565b5090979650505050505050565b15159052565b600481106130ab57fe5b9052565b600081518084526130c7816020860160208601613b38565b601f01601f19169290920160200192915050565b60006101c06130eb84845161303e565b602083015160208501526040830151613107604086018261303e565b50606083015160608501526080830151816080860152613129828601826130af565b91505060a083015160a085015260c083015184820360c086015261314d82826130af565b91505060e083015160e08501526101008084015161316d8287018261303e565b5050610120808401516131828287018261309b565b50506101408381015190850152610160808401516131a28287018261309b565b5050610180808401516131b7828701826130a1565b50506101a0928301519390920192909252919050565b600082516131df818460208701613b38565b9190910192915050565b600160a060020a0391909116815260200190565b600160a060020a0392831681529116602082015260400190565b600160a060020a03929092168252602082015260400190565b600160a060020a039384168152919092166020820152604081019190915260600190565b6000602082526126b2602083018461304b565b60006060825261327a606083018661304b565b60208301949094525060400152919050565b901515815260200190565b90815260200190565b918252600160a060020a0316602082015260400190565b600160a060020a0393841681526020810192909252909116604082015260600190565b6000602082526126b260208301846130af565b60208082526014908201527f5061757361626c653a206e6f7420706175736564000000000000000000000000604082015260600190565b60208082526034908201527f416d6f756e74206973206569746865722030206f72206772656174657220746860408201527f616e20746865206f6e6520617661696c61626c65000000000000000000000000606082015260800190565b6020808252601b908201527f4d61726b6574706c616365206973206e6f742061206d696e7465720000000000604082015260600190565b60208082526024908201527f4f726465722069732065697468657220636f6d706c65746564206f7220636c6f60408201527f7365642e00000000000000000000000000000000000000000000000000000000606082015260800190565b60208082526026908201527f4f776e61626c653a206e6577206f776e657220697320746865207a65726f206160408201527f6464726573730000000000000000000000000000000000000000000000000000606082015260800190565b60208082526014908201527f416d6f756e74732063616e206e6f742062652030000000000000000000000000604082015260600190565b6020808252601f908201527f546f6b656e2027746f272073686f756c64206265206120636f6e747261637400604082015260600190565b60208082526021908201527f546f6b656e202766726f6d272073686f756c64206265206120636f6e7472616360408201527f7400000000000000000000000000000000000000000000000000000000000000606082015260800190565b60208082526023908201527f4f7264657220646f6573206e6f7420616c6c6f77207061727469616c2062757960408201527f6f75740000000000000000000000000000000000000000000000000000000000606082015260800190565b60208082526015908201527f546f6b656e20697320626c61636b6c69737465642e0000000000000000000000604082015260600190565b60208082526010908201527f5061757361626c653a2070617573656400000000000000000000000000000000604082015260600190565b60208082526025908201527f4f72646572207570646174657320616c6c6f776564206279206f726e6572732060408201527f6f6e6c7921000000000000000000000000000000000000000000000000000000606082015260800190565b60208082526029908201527f596f752063616e206e6f742074726967676572206275796261636b2066726f6d60408201527f20796f757273656c660000000000000000000000000000000000000000000000606082015260800190565b60208082526027908201527f546f6b656e202766726f6d27206973206e6f7420612076616c6964204552433260408201527f3020746f6b656e00000000000000000000000000000000000000000000000000606082015260800190565b6020808252601a908201527f5265656e7472616e6379206973206e6f7420616c6c6f7765642e000000000000604082015260600190565b6020808252818101527f4f776e61626c653a2063616c6c6572206973206e6f7420746865206f776e6572604082015260600190565b60208082526032908201527f4f72646572206973206e6f7420666f756e64206173206163746976652e20536860408201527f6f756c64206e657665722068617070656e210000000000000000000000000000606082015260800190565b60208082526015908201527f4f7264657220646f6573206e6f742065786973742e0000000000000000000000604082015260600190565b60208082526019908201527f546f6b656e2063616e206e6f74206265207468652073616d6500000000000000604082015260600190565b6020808252601d908201527f416464726573733a2063616c6c20746f206e6f6e2d636f6e7472616374000000604082015260600190565b60208082526039908201527f4d61726b6574706c616365206e6f7420616c6c6f77656420746f207370656e6460408201527f206465736972656420616d6f756e74206f6620746f6b656e7300000000000000606082015260800190565b60208082526025908201527f546f6b656e2027746f27206973206e6f7420612076616c69642045524332302060408201527f746f6b656e000000000000000000000000000000000000000000000000000000606082015260800190565b60208082526015908201527f496e76616c696420746f6b656e20616464726573730000000000000000000000604082015260600190565b60208082526021908201527f596f752063616e206e6f74206275796261636b2066726f6d20796f757273656c60408201527f6600000000000000000000000000000000000000000000000000000000000000606082015260800190565b6020808252602a908201527f5361666545524332303a204552433230206f7065726174696f6e20646964206e60408201527f6f74207375636365656400000000000000000000000000000000000000000000606082015260800190565b60208082526014908201527f4d617820706167652073697a6520697320313030000000000000000000000000604082015260600190565b6000602082526126b260208301846130db565b83815260608101613a9284613b2d565b6020830152613aa083613b2d565b6040830152949350505050565b600084825260606020830152613ac660608301856130af565b8281036040840152613ad881856130af565b9695505050505050565b60405181810167ffffffffffffffff81118282101715613b0157600080fd5b604052919050565b600067ffffffffffffffff821115613b1f578081fd5b50601f01601f191660200190565b80600481106119b857fe5b60005b83811015613b53578181015183820152602001613b3b565b838111156125b15750506000910152565b600160a060020a0381168114611cf357600080fd5b8015158114611cf357600080fdfea2646970667358221220b6f5a6a1cf9597e7e7fb5b6782f96027094fa2bb8ab352ea066a5a1eb351129164736f6c634300060c00338be0079c531659141344cd1fd0a4f28419497f9722a3daafe3b4186f6b6457e0",
  "immutableReferences": {},
  "source": "// SPDX-License-Identifier: MIT\npragma solidity >=0.6.0 <0.8.0;\npragma experimental ABIEncoderV2;\n\nimport \"@openzeppelin/contracts/token/ERC20/SafeERC20.sol\";\nimport \"@openzeppelin/contracts/access/Ownable.sol\";\nimport \"@openzeppelin/contracts/utils/Pausable.sol\";\nimport \"@openzeppelin/contracts/math/SafeMath.sol\";\nimport \"@openzeppelin/contracts/utils/Address.sol\";\nimport \"./IOrder.sol\";\nimport \"./IToken.sol\";\n\ncontract Marketplace is Ownable, Pausable {\n  using SafeMath for uint;\n  using SafeERC20 for IToken;\n\n  bytes32 public constant MINTER_ROLE = keccak256(\"MINTER_ROLE\");\n\n  // @dev treasury wallet to forward donated eth to\n  address payable public treasury;\n\n  // @dev reward token\n  IToken public token;\n\n  // @dev amount tokens to reward for a closed order\n  uint public reward;\n\n  // @dev amount of distributed rewards\n  uint public rewardsCount;\n\n  // @dev value of distributed rewarrds\n  uint public rewardsValue;\n\n  // @dev order if incrementer\n  uint public lastOrderId;\n\n  // @dev orders book\n  mapping (uint => IOrder.Order) orders;\n\n  // @dev active orders of an user\n  mapping (address => uint[]) userActiveOrders;\n\n  // @dev orders status\n  mapping (IOrder.Status => uint) ordersStats;\n\n  // @dev blacklisted tokens count\n  uint public blacklistedTokensCount;\n\n  // @dev token addresses that are blacklisted\n  mapping (IToken => bool) blacklistedTokens;\n\n  /**\n   * @dev Emitted when the donation of `value` received from `account`.\n   */\n  event Donated(address account, uint value);\n\n  /**\n   * @dev Emitted when a `token` gets blacklisted by `who`.\n   */\n  event BlacklistedToken(IToken token, address who);\n\n  /**\n   * @dev Emitted when a `token` gets un-blacklisted by `who`.\n   */\n  event UnblacklistedToken(IToken token, address who);\n\n  /**\n   * @dev Emitted when reward `token` and a `reward` amount apecified by `who`.\n   */\n  event RewardUpdated(IToken token, uint reward, address who);\n\n  /**\n   * @dev Emitted when `receiver` rewarded with `reward` amount of tokens.\n   */\n  event Reward(address receiver, uint reward);\n\n  /**\n   * @dev Order updated\n   */\n  event OrderCreated(uint orderId, string fromSymbol, string toSymbol);\n\n  /**\n   * @dev Order updated\n   */\n  event OrderUpdated(uint orderId, IOrder.Status fromStatus, IOrder.Status toStatus);\n\n  /**\n   * @dev check if `token` is not blacklisted\n   */\n  modifier isNotBlacklisted(IToken _token) {\n    require(\n      isTokenBlacklisted(_token) == false,\n      \"Token is blacklisted.\"\n    );\n    _;\n  }\n\n  modifier orderReentrancyGuard(uint orderId) {\n    require(\n      orders[orderId].transacting == false,\n      \"Reentrancy is not allowed.\"\n    );\n    orders[orderId].transacting = true;\n    _;\n    orders[orderId].transacting = false;\n  }\n\n  modifier orderOpen(uint orderId) {\n    require(\n      orders[orderId].id > 0,\n      \"Order does not exist.\"\n    );\n    require(\n      orders[orderId].status != IOrder.Status.Completed\n        && orders[orderId].status != IOrder.Status.Closed,\n      \"Order is either completed or closed.\"\n    );\n    _;\n  }\n\n  constructor(\n    address _owner,\n    address payable _treasury\n  ) public {\n    require(_treasury != address(0), \"Invalid treasury wallet address\");\n    require(_owner != address(0), \"Invalid owner address\");\n\n    treasury = _treasury;\n    transferOwnership(_owner);\n  }\n\n  function orderExists(uint orderId) public view returns (bool) {\n    return orders[orderId].id > 0;\n  }\n\n  function getOrder(uint orderId) public view returns (IOrder.Order memory order) {\n    order = orders[orderId];\n  }\n\n  function isOrderActive(uint orderId) public view returns (bool) {\n    IOrder.Status status = orders[orderId].status;\n\n    return orderExists(orderId)\n      && status != IOrder.Status.Completed\n      && status != IOrder.Status.Closed;\n  }\n\n  function isTokenBlacklisted(IToken _token) public view returns (bool) {\n    return blacklistedTokens[_token];\n  }\n\n  function stats(IOrder.Status status) public view returns (uint) {\n    return ordersStats[status];\n  }\n\n  function requiredUserTokenAllowance(address user, IToken from, uint additionalAmount) public view\n  returns (uint allowance) {\n    for (uint i = 0; i < userActiveOrders[user].length; i++) {\n      uint orderId = userActiveOrders[user][i]; \n      IOrder.Order memory order = orders[orderId];\n\n      if (address(order.from) != address(from)) {\n        continue;\n      }\n\n      allowance += order.fromAmount - order.completedAmount;\n    }\n\n    return allowance + additionalAmount;\n  }\n\n  function listActiveUserOrders(address user) public view\n  returns (IOrder.Order[] memory userOrders) {\n    uint count = userActiveOrders[user].length;\n    userOrders = new IOrder.Order[](count);\n\n    for (uint i = 0; i < count; i++) {\n      uint orderId = userActiveOrders[user][i]; \n      userOrders[i] = orders[orderId];\n    }\n  }\n\n  function listOrders(uint offset, uint size, bool listOnlyActive, string memory matchSymbol) public view\n  returns (IOrder.Order[] memory page, uint newOffset, uint entries) {\n    require(size <= 100, \"Max page size is 100\");\n    page = new IOrder.Order[](size);\n\n    for (uint i = 0; i < size; i++) {\n      uint y = offset + i;\n\n      if (y >= lastOrderId) {\n        break;\n      }\n\n      uint orderId = lastOrderId - y;\n\n      if ((!listOnlyActive || isOrderActive(orderId))\n        && _matchOrderTokens(orders[orderId], matchSymbol)) {\n        entries++;\n        newOffset = y + 1;\n        page[i] = orders[orderId];\n      }\n    }\n  }\n\n  function orderPayoffAmount(uint orderId, uint amount) public view returns (uint payoffAmount) {\n    IOrder.Order storage order = orders[orderId];\n    require(\n      amount > 0 && amount <= (order.fromAmount - order.completedAmount),\n      \"Amount is either 0 or greater than the one available\"\n    );\n    require(order.allowPartial || amount == order.fromAmount, \"Order does not allow partial buyout\");\n\n    payoffAmount = amount * order.toAmount / order.fromAmount;\n  }\n\n  function createOrder(\n    IToken from,\n    uint fromAmount,\n    IToken to,\n    uint toAmount,\n    bool allowPartial\n  ) public\n  whenNotPaused isNotBlacklisted(from) isNotBlacklisted(to)\n  returns (uint orderId) {\n    require(fromAmount > 0 && toAmount > 0, \"Amounts can not be 0\");\n    require(address(from) != address(to), \"Token can not be the same\");\n    require(Address.isContract(address(from)), \"Token 'from' should be a contract\");\n    require(Address.isContract(address(to)), \"Token 'to' should be a contract\");\n\n    string memory fromSymbol = from.symbol();\n    uint fromDecimals = from.decimals();\n    string memory toSymbol = to.symbol();\n    uint toDecimals = from.decimals();\n\n    require(bytes(fromSymbol).length > 0 && fromDecimals > 0, \"Token 'from' is not a valid ERC20 token\");\n    require(bytes(toSymbol).length > 0 && toDecimals> 0, \"Token 'to' is not a valid ERC20 token\");\n    require(\n      from.allowance(_msgSender(), address(this)) >= requiredUserTokenAllowance(_msgSender(), from, fromAmount),\n      \"Marketplace not allowed to spend desired amount of tokens\"\n    );\n\n    orderId = ++lastOrderId;\n    orders[orderId] = IOrder.Order(\n      from,\n      fromAmount,\n      to,\n      toAmount,\n      fromSymbol,\n      fromDecimals,\n      toSymbol,\n      toDecimals,\n      _msgSender(),\n      allowPartial,\n      orderId, // id\n      false, // transacting\n      IOrder.Status.Open, // status\n      0 // completedAmount\n    );\n    ordersStats[IOrder.Status.Open]++;\n    userActiveOrders[_msgSender()].push(orderId);\n\n    emit OrderCreated(orderId, fromSymbol, toSymbol);\n  }\n\n  function closeOrder(uint orderId) public\n  orderReentrancyGuard(orderId) orderOpen(orderId)\n  returns (bool) {\n    require(orders[orderId].owner == _msgSender(), \"Order updates allowed by orners only!\");\n\n    _updateOrder(orders[orderId], IOrder.Status.Closed);\n  }\n\n  function claimOrder(uint orderId, uint amount, address wallet) public\n  whenNotPaused orderReentrancyGuard(orderId) orderOpen(orderId)\n  returns (bool) {\n    IOrder.Order storage order = orders[orderId];\n\n    require(wallet != order.owner, \"You can not buyback from yourself\");\n    require(_msgSender() != order.owner, \"You can not trigger buyback from yourself\");\n\n    uint payoffAmount = orderPayoffAmount(orderId, amount);\n    \n    require(\n      order.to.allowance(_msgSender(), address(this)) >= payoffAmount,\n      \"Marketplace not allowed to spend desired amount of tokens\"\n    );\n\n    order.completedAmount += amount;\n    IOrder.Status newStatus = order.completedAmount == order.fromAmount\n      ? IOrder.Status.Completed\n      : IOrder.Status.PartiallyCompleted;\n    \n    _updateOrder(order, newStatus);\n\n    order.to.safeTransferFrom(_msgSender(), order.owner, payoffAmount);\n    order.from.safeTransferFrom(order.owner, wallet, amount);\n    \n    // send rewards\n    if (newStatus == IOrder.Status.Completed) {\n      _reward(order.owner);\n    }\n    _reward(_msgSender());\n\n    return true;\n  }\n\n  /**\n   * @dev Update closed order reward\n   */\n  function updateReward(IToken _token, uint _reward) public onlyOwner {\n    require(address(_token) != address(0), \"Invalid token address\");\n    require(_token.hasRole(MINTER_ROLE, address(this)), \"Marketplace is not a minter\");\n\n    token = _token;\n    reward = _reward;\n\n    emit RewardUpdated(_token, _reward, _msgSender());\n  }\n\n  /**\n   * @dev Blacklist a token\n   */\n  function blacklistToken(IToken _token, bool state) public onlyOwner {\n    blacklistedTokens[_token] = state;\n\n    if (state) {\n      blacklistedTokensCount++;\n      emit BlacklistedToken(_token, _msgSender());\n    } else {\n      blacklistedTokensCount--;\n      emit UnblacklistedToken(_token, _msgSender());\n    }\n  }\n\n  function freeze(bool state) public onlyOwner {\n    if (state) {\n      _pause();\n    } else {\n      _unpause();\n    }\n  }\n\n  function _matchOrderTokens(IOrder.Order memory order, string memory symbol) internal view returns (bool) {\n    return _matchString(order.fromSymbol, symbol) || _matchString(order.toSymbol, symbol);\n  }\n\n  function _matchString(string memory where, string memory what) internal view returns (bool found) {\n    bytes memory whereBytes = bytes(where);\n\n    if (whereBytes.length == 0) {\n      return true;\n    }\n\n    bytes memory whatBytes = bytes(what);\n\n    for (uint i = 0; i < whereBytes.length - whatBytes.length; i++) {\n      bool flag = true;\n\n      for (uint j = 0; j < whatBytes.length; j++) {\n        if (_upperCaseByte(whereBytes[i + j]) != _upperCaseByte(whatBytes[j])) {\n          flag = false;\n          break;\n        }\n      }\n\n      if (flag) {\n        found = true;\n        break;\n      }\n    }\n  }\n\n  function _upperCaseByte(bytes1 _b1) internal pure returns (bytes1) {\n    if (_b1 >= 0x61 && _b1 <= 0x7A) {\n      return bytes1(uint8(_b1) - 32);\n    }\n\n    return _b1;\n  }\n\n  function _updateOrder(IOrder.Order storage order, IOrder.Status toStatus) internal {\n    IOrder.Status fromStatus = order.status;\n\n    order.status = toStatus;\n    ordersStats[fromStatus]--;\n    ordersStats[toStatus]++;\n\n    if (toStatus == IOrder.Status.Completed || toStatus == IOrder.Status.Closed) {\n      (,bool found) = _removeActiveOrder(order.owner, order.id);\n      require(found, \"Order is not found as active. Should never happen!\");\n    }\n\n    emit OrderUpdated(order.id, fromStatus, toStatus);\n  }\n\n  /**\n   * Removes an order from active user orders\n   */\n  function _removeActiveOrder(address user, uint orderId) internal returns (uint index, bool found) {\n    for (uint i = 0; i < userActiveOrders[user].length; i++){\n      if (userActiveOrders[user][i] == orderId) {\n        found = true;\n        index = i;\n        break;\n      }\n    }\n\n    if (!found) {\n      return (index, found);\n    }\n\n    for (uint i = index; i < userActiveOrders[user].length - 1; i++){\n      userActiveOrders[user][i] = userActiveOrders[user][i + 1];\n    }\n\n    userActiveOrders[user].pop();\n  }\n\n  /**\n   * @dev transfer reward for a closed order\n   */\n  function _reward(address receiver) internal {\n    if (reward > 0) {\n      token.mint(receiver, reward);\n      rewardsCount++;\n      rewardsValue += reward;\n      emit Reward(receiver, reward);\n    }\n  }\n\n  /**\n   * @dev This function is called for all messages sent to\n   * this contract, except plain Ether transfers\n   * (there is no other function except the receive function).\n   * Any call with non-empty calldata to this contract will execute\n   * the fallback function (even if Ether is sent along with the call).\n   */\n  fallback() external payable {\n    treasury.transfer(msg.value);\n    emit Donated(_msgSender(), msg.value);\n  }\n\n  /**\n   * @dev This function is called for plain Ether transfers, i.e.\n   * for every call with empty calldata.\n   */\n  receive() external payable {\n    treasury.transfer(msg.value);\n    emit Donated(_msgSender(), msg.value);\n  }\n}\n",
  "sourcePath": "/home/alex/Projects/erc.money-app/contracts/Marketplace.sol",
  "compiler": {
    "name": "solc",
    "version": "0.6.12+commit.27d51765.Emscripten.clang"
  },
  "schemaVersion": "3.3.2",
  "updatedAt": "2020-11-30T08:46:28.332Z",
  "networkType": "ethereum",
  "devdoc": {
    "events": {
      "BlacklistedToken(address,address)": {
        "details": "Emitted when a `token` gets blacklisted by `who`."
      },
      "Donated(address,uint256)": {
        "details": "Emitted when the donation of `value` received from `account`."
      },
      "OrderCreated(uint256,string,string)": {
        "details": "Order updated"
      },
      "OrderUpdated(uint256,uint8,uint8)": {
        "details": "Order updated"
      },
      "Reward(address,uint256)": {
        "details": "Emitted when `receiver` rewarded with `reward` amount of tokens."
      },
      "RewardUpdated(address,uint256,address)": {
        "details": "Emitted when reward `token` and a `reward` amount apecified by `who`."
      },
      "UnblacklistedToken(address,address)": {
        "details": "Emitted when a `token` gets un-blacklisted by `who`."
      }
    },
    "kind": "dev",
    "methods": {
      "blacklistToken(address,bool)": {
        "details": "Blacklist a token"
      },
      "owner()": {
        "details": "Returns the address of the current owner."
      },
      "paused()": {
        "details": "Returns true if the contract is paused, and false otherwise."
      },
      "renounceOwnership()": {
        "details": "Leaves the contract without owner. It will not be possible to call `onlyOwner` functions anymore. Can only be called by the current owner. NOTE: Renouncing ownership will leave the contract without an owner, thereby removing any functionality that is only available to the owner."
      },
      "transferOwnership(address)": {
        "details": "Transfers ownership of the contract to a new account (`newOwner`). Can only be called by the current owner."
      },
      "updateReward(address,uint256)": {
        "details": "Update closed order reward"
      }
    },
    "version": 1
  },
  "userdoc": {
    "kind": "user",
    "methods": {},
    "version": 1
  }
}