{
  "contractName": "Marketplace",
  "abi": [
    {
      "inputs": [
        {
          "internalType": "address",
          "name": "_owner",
          "type": "address"
        },
        {
          "internalType": "address payable",
          "name": "_treasury",
          "type": "address"
        }
      ],
      "stateMutability": "nonpayable",
      "type": "constructor"
    },
    {
      "anonymous": false,
      "inputs": [
        {
          "indexed": false,
          "internalType": "contract IERC20",
          "name": "token",
          "type": "address"
        },
        {
          "indexed": false,
          "internalType": "address",
          "name": "who",
          "type": "address"
        }
      ],
      "name": "BlacklistedToken",
      "type": "event"
    },
    {
      "anonymous": false,
      "inputs": [
        {
          "indexed": false,
          "internalType": "address",
          "name": "account",
          "type": "address"
        },
        {
          "indexed": false,
          "internalType": "uint256",
          "name": "value",
          "type": "uint256"
        }
      ],
      "name": "Donated",
      "type": "event"
    },
    {
      "anonymous": false,
      "inputs": [
        {
          "indexed": false,
          "internalType": "uint256",
          "name": "orderId",
          "type": "uint256"
        }
      ],
      "name": "OrderCreated",
      "type": "event"
    },
    {
      "anonymous": false,
      "inputs": [
        {
          "indexed": false,
          "internalType": "uint256",
          "name": "orderId",
          "type": "uint256"
        },
        {
          "indexed": false,
          "internalType": "enum IOrder.Status",
          "name": "fromStatus",
          "type": "uint8"
        },
        {
          "indexed": false,
          "internalType": "enum IOrder.Status",
          "name": "toStatus",
          "type": "uint8"
        }
      ],
      "name": "OrderUpdated",
      "type": "event"
    },
    {
      "anonymous": false,
      "inputs": [
        {
          "indexed": true,
          "internalType": "address",
          "name": "previousOwner",
          "type": "address"
        },
        {
          "indexed": true,
          "internalType": "address",
          "name": "newOwner",
          "type": "address"
        }
      ],
      "name": "OwnershipTransferred",
      "type": "event"
    },
    {
      "anonymous": false,
      "inputs": [
        {
          "indexed": false,
          "internalType": "address",
          "name": "account",
          "type": "address"
        }
      ],
      "name": "Paused",
      "type": "event"
    },
    {
      "anonymous": false,
      "inputs": [
        {
          "indexed": false,
          "internalType": "address",
          "name": "receiver",
          "type": "address"
        },
        {
          "indexed": false,
          "internalType": "uint256",
          "name": "reward",
          "type": "uint256"
        }
      ],
      "name": "Reward",
      "type": "event"
    },
    {
      "anonymous": false,
      "inputs": [
        {
          "indexed": false,
          "internalType": "contract IERC20",
          "name": "token",
          "type": "address"
        },
        {
          "indexed": false,
          "internalType": "uint256",
          "name": "reward",
          "type": "uint256"
        },
        {
          "indexed": false,
          "internalType": "address",
          "name": "who",
          "type": "address"
        }
      ],
      "name": "RewardUpdated",
      "type": "event"
    },
    {
      "anonymous": false,
      "inputs": [
        {
          "indexed": false,
          "internalType": "contract IERC20",
          "name": "token",
          "type": "address"
        },
        {
          "indexed": false,
          "internalType": "address",
          "name": "who",
          "type": "address"
        }
      ],
      "name": "UnblacklistedToken",
      "type": "event"
    },
    {
      "anonymous": false,
      "inputs": [
        {
          "indexed": false,
          "internalType": "address",
          "name": "account",
          "type": "address"
        }
      ],
      "name": "Unpaused",
      "type": "event"
    },
    {
      "stateMutability": "payable",
      "type": "fallback",
      "payable": true
    },
    {
      "inputs": [],
      "name": "MINTER_ROLE",
      "outputs": [
        {
          "internalType": "bytes32",
          "name": "",
          "type": "bytes32"
        }
      ],
      "stateMutability": "view",
      "type": "function",
      "constant": true
    },
    {
      "inputs": [],
      "name": "blacklistedTokensCount",
      "outputs": [
        {
          "internalType": "uint256",
          "name": "",
          "type": "uint256"
        }
      ],
      "stateMutability": "view",
      "type": "function",
      "constant": true
    },
    {
      "inputs": [],
      "name": "lastOrderId",
      "outputs": [
        {
          "internalType": "uint256",
          "name": "",
          "type": "uint256"
        }
      ],
      "stateMutability": "view",
      "type": "function",
      "constant": true
    },
    {
      "inputs": [],
      "name": "owner",
      "outputs": [
        {
          "internalType": "address",
          "name": "",
          "type": "address"
        }
      ],
      "stateMutability": "view",
      "type": "function",
      "constant": true
    },
    {
      "inputs": [],
      "name": "paused",
      "outputs": [
        {
          "internalType": "bool",
          "name": "",
          "type": "bool"
        }
      ],
      "stateMutability": "view",
      "type": "function",
      "constant": true
    },
    {
      "inputs": [],
      "name": "renounceOwnership",
      "outputs": [],
      "stateMutability": "nonpayable",
      "type": "function"
    },
    {
      "inputs": [],
      "name": "reward",
      "outputs": [
        {
          "internalType": "uint256",
          "name": "",
          "type": "uint256"
        }
      ],
      "stateMutability": "view",
      "type": "function",
      "constant": true
    },
    {
      "inputs": [],
      "name": "rewardsCount",
      "outputs": [
        {
          "internalType": "uint256",
          "name": "",
          "type": "uint256"
        }
      ],
      "stateMutability": "view",
      "type": "function",
      "constant": true
    },
    {
      "inputs": [],
      "name": "rewardsValue",
      "outputs": [
        {
          "internalType": "uint256",
          "name": "",
          "type": "uint256"
        }
      ],
      "stateMutability": "view",
      "type": "function",
      "constant": true
    },
    {
      "inputs": [],
      "name": "token",
      "outputs": [
        {
          "internalType": "contract IToken",
          "name": "",
          "type": "address"
        }
      ],
      "stateMutability": "view",
      "type": "function",
      "constant": true
    },
    {
      "inputs": [
        {
          "internalType": "address",
          "name": "newOwner",
          "type": "address"
        }
      ],
      "name": "transferOwnership",
      "outputs": [],
      "stateMutability": "nonpayable",
      "type": "function"
    },
    {
      "inputs": [],
      "name": "treasury",
      "outputs": [
        {
          "internalType": "address payable",
          "name": "",
          "type": "address"
        }
      ],
      "stateMutability": "view",
      "type": "function",
      "constant": true
    },
    {
      "stateMutability": "payable",
      "type": "receive",
      "payable": true
    },
    {
      "inputs": [
        {
          "internalType": "uint256",
          "name": "orderId",
          "type": "uint256"
        }
      ],
      "name": "orderExists",
      "outputs": [
        {
          "internalType": "bool",
          "name": "",
          "type": "bool"
        }
      ],
      "stateMutability": "view",
      "type": "function",
      "constant": true
    },
    {
      "inputs": [
        {
          "internalType": "contract IERC20",
          "name": "_token",
          "type": "address"
        }
      ],
      "name": "isTokenBlacklisted",
      "outputs": [
        {
          "internalType": "bool",
          "name": "",
          "type": "bool"
        }
      ],
      "stateMutability": "view",
      "type": "function",
      "constant": true
    },
    {
      "inputs": [
        {
          "internalType": "enum IOrder.Status",
          "name": "status",
          "type": "uint8"
        }
      ],
      "name": "stats",
      "outputs": [
        {
          "internalType": "uint256",
          "name": "",
          "type": "uint256"
        }
      ],
      "stateMutability": "view",
      "type": "function",
      "constant": true
    },
    {
      "inputs": [
        {
          "internalType": "uint256",
          "name": "orderId",
          "type": "uint256"
        }
      ],
      "name": "getOrder",
      "outputs": [
        {
          "components": [
            {
              "internalType": "contract IERC20",
              "name": "from",
              "type": "address"
            },
            {
              "internalType": "uint256",
              "name": "fromAmount",
              "type": "uint256"
            },
            {
              "internalType": "contract IERC20",
              "name": "to",
              "type": "address"
            },
            {
              "internalType": "uint256",
              "name": "toAmount",
              "type": "uint256"
            },
            {
              "internalType": "address",
              "name": "owner",
              "type": "address"
            },
            {
              "internalType": "bool",
              "name": "allowPartial",
              "type": "bool"
            },
            {
              "internalType": "uint256",
              "name": "id",
              "type": "uint256"
            },
            {
              "internalType": "bool",
              "name": "transacting",
              "type": "bool"
            },
            {
              "internalType": "enum IOrder.Status",
              "name": "status",
              "type": "uint8"
            },
            {
              "internalType": "uint256",
              "name": "completedAmount",
              "type": "uint256"
            }
          ],
          "internalType": "struct IOrder.Order",
          "name": "",
          "type": "tuple"
        }
      ],
      "stateMutability": "view",
      "type": "function",
      "constant": true
    },
    {
      "inputs": [
        {
          "internalType": "address",
          "name": "user",
          "type": "address"
        }
      ],
      "name": "listUserOrders",
      "outputs": [
        {
          "components": [
            {
              "internalType": "contract IERC20",
              "name": "from",
              "type": "address"
            },
            {
              "internalType": "uint256",
              "name": "fromAmount",
              "type": "uint256"
            },
            {
              "internalType": "contract IERC20",
              "name": "to",
              "type": "address"
            },
            {
              "internalType": "uint256",
              "name": "toAmount",
              "type": "uint256"
            },
            {
              "internalType": "address",
              "name": "owner",
              "type": "address"
            },
            {
              "internalType": "bool",
              "name": "allowPartial",
              "type": "bool"
            },
            {
              "internalType": "uint256",
              "name": "id",
              "type": "uint256"
            },
            {
              "internalType": "bool",
              "name": "transacting",
              "type": "bool"
            },
            {
              "internalType": "enum IOrder.Status",
              "name": "status",
              "type": "uint8"
            },
            {
              "internalType": "uint256",
              "name": "completedAmount",
              "type": "uint256"
            }
          ],
          "internalType": "struct IOrder.Order[]",
          "name": "userOrders",
          "type": "tuple[]"
        }
      ],
      "stateMutability": "view",
      "type": "function",
      "constant": true
    },
    {
      "inputs": [
        {
          "internalType": "uint256",
          "name": "orderId",
          "type": "uint256"
        },
        {
          "internalType": "uint256",
          "name": "offset",
          "type": "uint256"
        },
        {
          "internalType": "uint256",
          "name": "size",
          "type": "uint256"
        }
      ],
      "name": "listOrders",
      "outputs": [
        {
          "components": [
            {
              "internalType": "contract IERC20",
              "name": "from",
              "type": "address"
            },
            {
              "internalType": "uint256",
              "name": "fromAmount",
              "type": "uint256"
            },
            {
              "internalType": "contract IERC20",
              "name": "to",
              "type": "address"
            },
            {
              "internalType": "uint256",
              "name": "toAmount",
              "type": "uint256"
            },
            {
              "internalType": "address",
              "name": "owner",
              "type": "address"
            },
            {
              "internalType": "bool",
              "name": "allowPartial",
              "type": "bool"
            },
            {
              "internalType": "uint256",
              "name": "id",
              "type": "uint256"
            },
            {
              "internalType": "bool",
              "name": "transacting",
              "type": "bool"
            },
            {
              "internalType": "enum IOrder.Status",
              "name": "status",
              "type": "uint8"
            },
            {
              "internalType": "uint256",
              "name": "completedAmount",
              "type": "uint256"
            }
          ],
          "internalType": "struct IOrder.Order[]",
          "name": "page",
          "type": "tuple[]"
        },
        {
          "internalType": "uint256",
          "name": "entries",
          "type": "uint256"
        }
      ],
      "stateMutability": "view",
      "type": "function",
      "constant": true
    },
    {
      "inputs": [
        {
          "internalType": "contract IERC20",
          "name": "from",
          "type": "address"
        },
        {
          "internalType": "uint256",
          "name": "fromAmount",
          "type": "uint256"
        },
        {
          "internalType": "contract IERC20",
          "name": "to",
          "type": "address"
        },
        {
          "internalType": "uint256",
          "name": "toAmount",
          "type": "uint256"
        },
        {
          "internalType": "bool",
          "name": "allowPartial",
          "type": "bool"
        }
      ],
      "name": "createOrder",
      "outputs": [
        {
          "internalType": "uint256",
          "name": "orderId",
          "type": "uint256"
        }
      ],
      "stateMutability": "nonpayable",
      "type": "function"
    },
    {
      "inputs": [
        {
          "internalType": "uint256",
          "name": "orderId",
          "type": "uint256"
        }
      ],
      "name": "closeOrder",
      "outputs": [],
      "stateMutability": "nonpayable",
      "type": "function"
    },
    {
      "inputs": [
        {
          "internalType": "uint256",
          "name": "orderId",
          "type": "uint256"
        },
        {
          "internalType": "uint256",
          "name": "amount",
          "type": "uint256"
        },
        {
          "internalType": "address",
          "name": "wallet",
          "type": "address"
        }
      ],
      "name": "claimOrder",
      "outputs": [
        {
          "internalType": "bool",
          "name": "",
          "type": "bool"
        }
      ],
      "stateMutability": "nonpayable",
      "type": "function"
    },
    {
      "inputs": [
        {
          "internalType": "contract IToken",
          "name": "_token",
          "type": "address"
        },
        {
          "internalType": "uint256",
          "name": "_reward",
          "type": "uint256"
        }
      ],
      "name": "updateReward",
      "outputs": [],
      "stateMutability": "nonpayable",
      "type": "function"
    },
    {
      "inputs": [
        {
          "internalType": "contract IERC20",
          "name": "_token",
          "type": "address"
        },
        {
          "internalType": "bool",
          "name": "state",
          "type": "bool"
        }
      ],
      "name": "blacklistToken",
      "outputs": [],
      "stateMutability": "nonpayable",
      "type": "function"
    }
  ],
  "bytecode": "0x60806040523480156200001157600080fd5b5060405162002a9138038062002a91833981016040819052620000349162000246565b60006200004964010000000062000158810204565b60008054600160a060020a031916600160a060020a03831690811782556040519293509160008051602062002a71833981519152908290a3506000805460a060020a60ff0219169055600160a060020a038116620000de576040517f08c379a0000000000000000000000000000000000000000000000000000000008152600401620000d590620002e1565b60405180910390fd5b600160a060020a03821662000121576040517f08c379a0000000000000000000000000000000000000000000000000000000008152600401620000d59062000318565b60018054600160a060020a031916600160a060020a03831617905562000150826401000000006200015c810204565b50506200039d565b3390565b6200016f64010000000062000158810204565b600054600160a060020a03908116911614620001b9576040517f08c379a0000000000000000000000000000000000000000000000000000000008152600401620000d5906200034f565b600160a060020a038116620001fc576040517f08c379a0000000000000000000000000000000000000000000000000000000008152600401620000d59062000284565b60008054604051600160a060020a038085169392169160008051602062002a7183398151915291a360008054600160a060020a031916600160a060020a0392909216919091179055565b6000806040838503121562000259578182fd5b8251620002668162000384565b6020840151909250620002798162000384565b809150509250929050565b60208082526026908201527f4f776e61626c653a206e6577206f776e657220697320746865207a65726f206160408201527f6464726573730000000000000000000000000000000000000000000000000000606082015260800190565b6020808252601f908201527f496e76616c69642074726561737572792077616c6c6574206164647265737300604082015260600190565b60208082526015908201527f496e76616c6964206f776e657220616464726573730000000000000000000000604082015260600190565b6020808252818101527f4f776e61626c653a2063616c6c6572206973206e6f7420746865206f776e6572604082015260600190565b600160a060020a03811681146200039a57600080fd5b50565b6126c480620003ad6000396000f3fe6080604052600436106101485760003560e060020a90048063715018a6116100ba578063ce9be9ba11610073578063ce9be9ba146103ff578063d09ef2411461041f578063d53913931461044c578063f2fde38b14610461578063fc0c546a14610481578063fc2ad3b014610496576101c9565b8063715018a61461036b57806386317b96146103805780638699a65f146103a05780638da5cb5b146103b55780639c5bbcf9146103ca578063c4d5d0dd146103ea576101c9565b80632ad54a921161010c5780632ad54a92146102a45780633012b94e146102c4578063425351bd146102f15780635662ecc71461031f5780635c975abb1461033457806361d027b314610349576101c9565b8063069d6d1c14610202578063121025fe14610224578063190e4c551461024f5780631a3991251461026f578063228cb7331461028f576101c9565b366101c957600154604051600160a060020a03909116903480156108fc02916000818181858888f19350505050158015610186573d6000803e3d6000fd5b507f2a01595cddf097c90216094025db714da3f4e5bd8877b56ba86a24ecead8e5436101b06104c3565b346040516101bf929190611fad565b60405180910390a1005b600154604051600160a060020a03909116903480156108fc02916000818181858888f19350505050158015610186573d6000803e3d6000fd5b34801561020e57600080fd5b5061022261021d366004611dd4565b6104c7565b005b34801561023057600080fd5b506102396106d6565b604051610246919061202a565b60405180910390f35b34801561025b57600080fd5b5061022261026a366004611cf4565b6106dc565b34801561027b57600080fd5b5061022261028a366004611d8a565b6107de565b34801561029b57600080fd5b5061023961097e565b3480156102b057600080fd5b506102396102bf366004611d2c565b610984565b3480156102d057600080fd5b506102e46102df366004611e04565b610d63565b604051610246919061201f565b3480156102fd57600080fd5b5061031161030c366004611e3c565b611238565b604051610246929190611ffd565b34801561032b57600080fd5b50610239611310565b34801561034057600080fd5b506102e4611316565b34801561035557600080fd5b5061035e611326565b6040516102469190611f7f565b34801561037757600080fd5b50610222611335565b34801561038c57600080fd5b506102e461039b366004611dd4565b6113c4565b3480156103ac57600080fd5b506102396113de565b3480156103c157600080fd5b5061035e6113e4565b3480156103d657600080fd5b506102396103e5366004611db5565b6113f3565b3480156103f657600080fd5b50610239611426565b34801561040b57600080fd5b506102e461041a366004611cb5565b61142c565b34801561042b57600080fd5b5061043f61043a366004611dd4565b61144a565b60405161024691906125f4565b34801561045857600080fd5b5061023961150f565b34801561046d57600080fd5b5061022261047c366004611cb5565b611533565b34801561048d57600080fd5b5061035e6115fc565b3480156104a257600080fd5b506104b66104b1366004611cb5565b61160b565b6040516102469190611fea565b3390565b600081815260076020526040902060060154819060ff16156105075760405160e560020a62461bcd0281526004016104fe90612384565b60405180910390fd5b600081815260076020526040808220600601805460ff19166001179055838252902060050154829061054e5760405160e560020a62461bcd0281526004016104fe906123f0565b6002600082815260076020526040902060060154610100900460ff16600381111561057557fe5b141580156105a857506003600082815260076020526040902060060154610100900460ff1660038111156105a557fe5b14155b6105c75760405160e560020a62461bcd0281526004016104fe90612134565b6105cf6104c3565b600084815260076020526040902060040154600160a060020a0390811691161461060e5760405160e560020a62461bcd0281526004016104fe90612327565b60008381526007602090815260408220600601805461ff00198116610300179091556003909252600990527fc575c31fea594a6eb97c8e9d3f9caee4c16218c6ef37e923234c0fe9014a61e780546001019055610100900460ff1661067a6106746104c3565b85611792565b50507fbd63b5282661ee29288057b2d23c1d8f53d1623238e656d3ab0313766e232cfe848260036040516106b093929190612609565b60405180910390a150506000908152600760205260409020600601805460ff1916905550565b600a5481565b6106e46104c3565b600054600160a060020a039081169116146107145760405160e560020a62461bcd0281526004016104fe906123bb565b600160a060020a0382166000908152600b60205260409020805460ff1916821580159190911790915561078f57600a805460010190557fb0dff05d63bda79ce2b542fd08755b28bc58bca10a39883608bb71f687edfdf7826107746104c3565b604051610782929190611f93565b60405180910390a16107da565b600a80546000190190557f51ebcd2e6a7592e9883b86a58bb3dcaeb7aa87e0475fb26ff0a1eadba26dcfe4826107c36104c3565b6040516107d1929190611f93565b60405180910390a15b5050565b6107e66104c3565b600054600160a060020a039081169116146108165760405160e560020a62461bcd0281526004016104fe906123bb565b600160a060020a03821661083f5760405160e560020a62461bcd0281526004016104fe906124f2565b6040517f91d14854000000000000000000000000000000000000000000000000000000008152600160a060020a038316906391d14854906108a6907f9f2df0fed2c77648de5860a4cc508cd0818c85b8b8a1ab4ceeef8d981c8956a6903090600401612033565b602060405180830381600087803b1580156108c057600080fd5b505af11580156108d4573d6000803e3d6000fd5b505050506040513d601f19601f820116820180604052508101906108f89190611cd8565b6109175760405160e560020a62461bcd0281526004016104fe906120fd565b6002805473ffffffffffffffffffffffffffffffffffffffff1916600160a060020a03841617905560038190557fc8d71d1dc9e781ced39e0ea7e9acc09b0a1a07e73daf21d78f651b2e4a37c52e828261096f6104c3565b6040516107d19392919061204a565b60035481565b6000805460a060020a900460ff16156109b25760405160e560020a62461bcd0281526004016104fe906122f0565b856109bc8161142c565b156109dc5760405160e560020a62461bcd0281526004016104fe906122b9565b846109e68161142c565b15610a065760405160e560020a62461bcd0281526004016104fe906122b9565b600087118015610a165750600085115b610a355760405160e560020a62461bcd0281526004016104fe906121ee565b85600160a060020a031688600160a060020a03161415610a6a5760405160e560020a62461bcd0281526004016104fe90612427565b600160a060020a038816610a935760405160e560020a62461bcd0281526004016104fe90612225565b600160a060020a038616610abc5760405160e560020a62461bcd0281526004016104fe90612586565b8688600160a060020a031663dd62ed3e610ad46104c3565b306040518363ffffffff1660e060020a028152600401610af5929190611f93565b60206040518083038186803b158015610b0d57600080fd5b505afa158015610b21573d6000803e3d6000fd5b505050506040513d601f19601f82011682018060405250810190610b459190611dec565b1015610b665760405160e560020a62461bcd0281526004016104fe90612495565b60068054600181019091559250610b7b611c61565b6040518061014001604052808a600160a060020a0316815260200189815260200188600160a060020a03168152602001878152602001610bb96104c3565b600160a060020a03168152861515602082015260408101869052600060608201819052608090910190815260006020918201819052868152600782526040908190208351815473ffffffffffffffffffffffffffffffffffffffff19908116600160a060020a039283161783559385015160018301559184015160028201805485169184169190911790556060840151600380830191909155608085015160048301805460a08801519616919094161774ff0000000000000000000000000000000000000000191660a060020a941515949094029390931790915560c0830151600582015560e083015160068201805460ff191691151591909117808255610100808601519596508695939461ff0019909216918490811115610cd857fe5b02179055506101209190910151600790910155600080805260096020527fec8156718a8372b1db44bb411437d0870f3e3790d4a08526d024ce1b0b668f6b80546001019055600890610d286104c3565b600160a060020a0316815260208082019290925260400160009081208054600181018255908252919020018490555091979650505050505050565b6000805460a060020a900460ff1615610d915760405160e560020a62461bcd0281526004016104fe906122f0565b600084815260076020526040902060060154849060ff1615610dc85760405160e560020a62461bcd0281526004016104fe90612384565b600081815260076020526040808220600601805460ff191660011790558682529020600501548590610e0f5760405160e560020a62461bcd0281526004016104fe906123f0565b6002600082815260076020526040902060060154610100900460ff166003811115610e3657fe5b14158015610e6957506003600082815260076020526040902060060154610100900460ff166003811115610e6657fe5b14155b610e885760405160e560020a62461bcd0281526004016104fe90612134565b610e90611c61565b6000878152600760209081526040918290208251610140810184528154600160a060020a039081168252600183015493820193909352600282015483169381019390935260038082015460608501526004820154928316608085015260ff60a060020a9093048316151560a0850152600582015460c08501526006820154808416151560e0860152919261010080860193041690811115610f2d57fe5b6003811115610f3857fe5b8152600791909101546020909101526101008101519091508615801590610f6a57508161012001518260200151038711155b610f895760405160e560020a62461bcd0281526004016104fe906120a0565b8160a0015180610f9c5750816020015187145b610fbb5760405160e560020a62461bcd0281526004016104fe9061225c565b60006127108884602001518560600151020281610fd457fe5b049050808360400151600160a060020a031663dd62ed3e610ff36104c3565b306040518363ffffffff1660e060020a028152600401611014929190611f93565b60206040518083038186803b15801561102c57600080fd5b505afa158015611040573d6000803e3d6000fd5b505050506040513d601f19601f820116820180604052508101906110649190611dec565b10156110855760405160e560020a62461bcd0281526004016104fe90612495565b60008981526007602081815260409092200180548a019055830151610120840151146110b25760016110b5565b60025b60008a8152600760205260409020600601805461ff0019166101008360038111156110dc57fe5b021790555060008981526007602052604081206006015460099190610100900460ff16600381111561110a57fe5b600381111561111557fe5b8152602081019190915260400160002080546001019055600260008a815260076020526040902060060154610100900460ff16600381111561115357fe5b141561116d5761116a6111646104c3565b8a611792565b50505b6111936111786104c3565b60808501516040860151600160a060020a031691908461197d565b608083015183516111b191600160a060020a0390911690898b61197d565b6111ba87611a0b565b600089815260076020526040908190206006015490517fbd63b5282661ee29288057b2d23c1d8f53d1623238e656d3ab0313766e232cfe91611209918c91869161010090910460ff1690612609565b60405180910390a1505050600091825250600760205260409020600601805460ff191690555060019392505050565b6060600060648311156112605760405160e560020a62461bcd0281526004016104fe906125bd565b8267ffffffffffffffff8111801561127757600080fd5b506040519080825280602002602001820160405280156112b157816020015b61129e611c61565b8152602001906001900390816112965790505b50915060005b83811015611307576006548585019081106112d25750611307565b82806001019350506112e7816006540361144a565b8483815181106112f357fe5b6020908102919091010152506001016112b7565b50935093915050565b60065481565b60005460a060020a900460ff1690565b600154600160a060020a031681565b61133d6104c3565b600054600160a060020a0390811691161461136d5760405160e560020a62461bcd0281526004016104fe906123bb565b60008054604051600160a060020a03909116907f8be0079c531659141344cd1fd0a4f28419497f9722a3daafe3b4186f6b6457e0908390a36000805473ffffffffffffffffffffffffffffffffffffffff19169055565b60008181526007602052604090206005015415155b919050565b60045481565b600054600160a060020a031690565b60006009600083600381111561140557fe5b600381111561141057fe5b8152602001908152602001600020549050919050565b60055481565b600160a060020a03166000908152600b602052604090205460ff1690565b611452611c61565b6000828152600760209081526040918290208251610140810184528154600160a060020a039081168252600183015493820193909352600282015483169381019390935260038082015460608501526004820154928316608085015260ff60a060020a9093048316151560a0850152600582015460c08501526006820154808416151560e08601529192610100808601930416908111156114ef57fe5b60038111156114fa57fe5b81526020016007820154815250509050919050565b7f9f2df0fed2c77648de5860a4cc508cd0818c85b8b8a1ab4ceeef8d981c8956a681565b61153b6104c3565b600054600160a060020a0390811691161461156b5760405160e560020a62461bcd0281526004016104fe906123bb565b600160a060020a0381166115945760405160e560020a62461bcd0281526004016104fe90612191565b60008054604051600160a060020a03808516939216917f8be0079c531659141344cd1fd0a4f28419497f9722a3daafe3b4186f6b6457e091a36000805473ffffffffffffffffffffffffffffffffffffffff1916600160a060020a0392909216919091179055565b600254600160a060020a031681565b600160a060020a0381166000908152600860205260409020546060908067ffffffffffffffff8111801561163e57600080fd5b5060405190808252806020026020018201604052801561167857816020015b611665611c61565b81526020019060019003908161165d5790505b50915060005b81811161178b57600160a060020a03841660009081526008602052604081208054839081106116a957fe5b6000918252602080832090910154808352600782526040928390208351610140810185528154600160a060020a039081168252600183015494820194909452600282015484169481019490945260038082015460608601526004820154938416608086015260ff60a060020a9094048416151560a0860152600582015460c08601526006820154808516151560e087015292955090926101008086019304169081111561175257fe5b600381111561175d57fe5b815260200160078201548152505084838151811061177757fe5b60209081029190910101525060010161167e565b5050919050565b600160a060020a038216600090815260086020526040812054819060011480156117e75750600160a060020a038416600090815260086020526040812080548592906117da57fe5b9060005260206000200154145b1561182857600160a060020a038416600090815260086020526040902080548061180d57fe5b60019003818190600052602060002001600090559055611976565b60005b600160a060020a038516600090815260086020526040902054811161189657600160a060020a038516600090815260086020526040902080548591908390811061187157fe5b9060005260206000200154141561188e5760019150809250611896565b60010161182b565b50806118a157611976565b815b600160a060020a0385166000908152600860205260409020546000190181101561193d57600160a060020a03851660009081526008602052604090208054600183019081106118ee57fe5b90600052602060002001546008600087600160a060020a0316600160a060020a03168152602001908152602001600020828154811061192957fe5b6000918252602090912001556001016118a3565b50600160a060020a038416600090815260086020526040902080548061195f57fe5b600190038181906000526020600020016000905590555b9250929050565b611a05846323b872dd60e060020a028585856040516024016119a193929190611fc6565b60408051601f198184030181529190526020810180517bffffffffffffffffffffffffffffffffffffffffffffffffffffffff167fffffffff0000000000000000000000000000000000000000000000000000000090931692909217909152611ae3565b50505050565b60035415611ae0576002546003546040517f40c10f19000000000000000000000000000000000000000000000000000000008152600160a060020a03909216916340c10f1991611a6091859190600401611fad565b600060405180830381600087803b158015611a7a57600080fd5b505af1158015611a8e573d6000803e3d6000fd5b5050600480546001019055505060035460058054820190556040517f619caafabdd75649b302ba8419e48cccf64f37f1983ac4727cfb38b57703ffc991611ad791849190611fad565b60405180910390a15b50565b6060611b38826040518060400160405280602081526020017f5361666545524332303a206c6f772d6c6576656c2063616c6c206661696c656481525085600160a060020a0316611b7a9092919063ffffffff16565b805190915015611b755780806020019051810190611b569190611cd8565b611b755760405160e560020a62461bcd0281526004016104fe90612529565b505050565b6060611b898484600085611b91565b949350505050565b6060611b9c85611c5b565b611bbb5760405160e560020a62461bcd0281526004016104fe9061245e565b6000606086600160a060020a03168587604051611bd89190611f63565b60006040518083038185875af1925050503d8060008114611c15576040519150601f19603f3d011682016040523d82523d6000602084013e611c1a565b606091505b50915091508115611c2e579150611b899050565b805115611c3e5780518082602001fd5b8360405160e560020a62461bcd0281526004016104fe919061206d565b3b151590565b6040805161014081018252600080825260208201819052918101829052606081018290526080810182905260a0810182905260c0810182905260e08101829052906101008201908152602001600081525090565b600060208284031215611cc6578081fd5b8135611cd18161266b565b9392505050565b600060208284031215611ce9578081fd5b8151611cd181612680565b60008060408385031215611d06578081fd5b8235611d118161266b565b91506020830135611d2181612680565b809150509250929050565b600080600080600060a08688031215611d43578081fd5b8535611d4e8161266b565b9450602086013593506040860135611d658161266b565b9250606086013591506080860135611d7c81612680565b809150509295509295909350565b60008060408385031215611d9c578182fd5b8235611da78161266b565b946020939093013593505050565b600060208284031215611dc6578081fd5b813560048110611cd1578182fd5b600060208284031215611de5578081fd5b5035919050565b600060208284031215611dfd578081fd5b5051919050565b600080600060608486031215611e18578283fd5b83359250602084013591506040840135611e318161266b565b809150509250925092565b600080600060608486031215611e50578283fd5b505081359360208301359350604090920135919050565b600160a060020a03169052565b6000815180845260208085019450808401835b83811015611eae57611e9a878351611ecd565b610140969096019590820190600101611e87565b509495945050505050565b15159052565b60048110611ec957fe5b9052565b611ed8828251611e67565b602081015160208301526040810151611ef46040840182611e67565b50606081015160608301526080810151611f116080840182611e67565b5060a0810151611f2460a0840182611eb9565b5060c081015160c083015260e0810151611f4160e0840182611eb9565b5061010080820151611f5582850182611ebf565b505061012090810151910152565b60008251611f7581846020870161263f565b9190910192915050565b600160a060020a0391909116815260200190565b600160a060020a0392831681529116602082015260400190565b600160a060020a03929092168252602082015260400190565b600160a060020a039384168152919092166020820152604081019190915260600190565b600060208252611cd16020830184611e74565b6000604082526120106040830185611e74565b90508260208301529392505050565b901515815260200190565b90815260200190565b918252600160a060020a0316602082015260400190565b600160a060020a0393841681526020810192909252909116604082015260600190565b600060208252825180602084015261208c81604085016020870161263f565b601f01601f19169190910160400192915050565b60208082526034908201527f416d6f756e74206973206569746865722030206f72206772656174657220746860408201527f616e20746865206f6e6520617661696c61626c65000000000000000000000000606082015260800190565b6020808252601b908201527f4d61726b6574706c616365206973206e6f742061206d696e7465720000000000604082015260600190565b60208082526024908201527f4f726465722069732065697468657220636f6d706c65746564206f7220636c6f60408201527f7365642e00000000000000000000000000000000000000000000000000000000606082015260800190565b60208082526026908201527f4f776e61626c653a206e6577206f776e657220697320746865207a65726f206160408201527f6464726573730000000000000000000000000000000000000000000000000000606082015260800190565b60208082526014908201527f416d6f756e74732063616e206e6f742062652030000000000000000000000000604082015260600190565b60208082526019908201527f546f6b656e202766726f6d272073686f756c6420657869737400000000000000604082015260600190565b60208082526023908201527f4f7264657220646f6573206e6f7420616c6c6f77207061727469616c2062757960408201527f6f75740000000000000000000000000000000000000000000000000000000000606082015260800190565b60208082526015908201527f546f6b656e20697320626c61636b6c69737465642e0000000000000000000000604082015260600190565b60208082526010908201527f5061757361626c653a2070617573656400000000000000000000000000000000604082015260600190565b60208082526025908201527f4f72646572207570646174657320616c6c6f776564206279206f726e6572732060408201527f6f6e6c7921000000000000000000000000000000000000000000000000000000606082015260800190565b6020808252601a908201527f5265656e7472616e6379206973206e6f7420616c6c6f7765642e000000000000604082015260600190565b6020808252818101527f4f776e61626c653a2063616c6c6572206973206e6f7420746865206f776e6572604082015260600190565b60208082526015908201527f4f7264657220646f6573206e6f742065786973742e0000000000000000000000604082015260600190565b60208082526019908201527f546f6b656e2063616e206e6f74206265207468652073616d6500000000000000604082015260600190565b6020808252601d908201527f416464726573733a2063616c6c20746f206e6f6e2d636f6e7472616374000000604082015260600190565b60208082526039908201527f4d61726b6574706c616365206e6f7420616c6c6f77656420746f207370656e6460408201527f206465736972656420616d6f756e74206f6620746f6b656e7300000000000000606082015260800190565b60208082526015908201527f496e76616c696420746f6b656e20616464726573730000000000000000000000604082015260600190565b6020808252602a908201527f5361666545524332303a204552433230206f7065726174696f6e20646964206e60408201527f6f74207375636365656400000000000000000000000000000000000000000000606082015260800190565b60208082526017908201527f546f6b656e2027746f272073686f756c64206578697374000000000000000000604082015260600190565b60208082526014908201527f4d617820706167652073697a6520697320313030000000000000000000000000604082015260600190565b61014081016126038284611ecd565b92915050565b8381526060810161261984612634565b602083015261262783612634565b6040830152949350505050565b80600481106113d957fe5b60005b8381101561265a578181015183820152602001612642565b83811115611a055750506000910152565b600160a060020a0381168114611ae057600080fd5b8015158114611ae057600080fdfea26469706673582212207bb3a03ea383b96de494d1e76a5087dd4bf2590fce3bc54b055ee68c9e1363f664736f6c634300060c00338be0079c531659141344cd1fd0a4f28419497f9722a3daafe3b4186f6b6457e0",
  "immutableReferences": {},
  "source": "// SPDX-License-Identifier: MIT\npragma solidity >=0.6.0 <0.8.0;\npragma experimental ABIEncoderV2;\n\nimport \"@openzeppelin/contracts/token/ERC20/IERC20.sol\";\nimport \"@openzeppelin/contracts/token/ERC20/SafeERC20.sol\";\nimport \"@openzeppelin/contracts/access/Ownable.sol\";\nimport \"@openzeppelin/contracts/utils/Pausable.sol\";\nimport \"@openzeppelin/contracts/math/SafeMath.sol\";\nimport \"./IOrder.sol\";\nimport \"./IToken.sol\";\n\ncontract Marketplace is Ownable, Pausable {\n  using SafeMath for uint;\n  using SafeERC20 for IERC20;\n\n  bytes32 public constant MINTER_ROLE = keccak256(\"MINTER_ROLE\");\n\n  // @dev treasury wallet to forward donated eth to\n  address payable public treasury;\n\n  // @dev reward token\n  IToken public token;\n\n  // @dev amount tokens to reward for a closed order\n  uint public reward;\n\n  // @dev amount of distributed rewards\n  uint public rewardsCount;\n\n  // @dev value of distributed rewarrds\n  uint public rewardsValue;\n\n  // @dev order if incrementer\n  uint public lastOrderId;\n\n  // @dev orders book\n  mapping (uint => IOrder.Order) orders;\n\n  // @dev active orders of an user\n  mapping (address => uint[]) userActiveOrders;\n\n  mapping (IOrder.Status => uint) ordersStats;\n\n  // @dev blacklisted tokens count\n  uint public blacklistedTokensCount;\n\n  // @dev token addresses that are blacklisted\n  mapping (IERC20 => bool) blacklistedTokens;\n\n  /**\n   * @dev Emitted when the donation of `value` received from `account`.\n   */\n  event Donated(address account, uint value);\n\n  /**\n   * @dev Emitted when a `token` gets blacklisted by `who`.\n   */\n  event BlacklistedToken(IERC20 token, address who);\n\n  /**\n   * @dev Emitted when a `token` gets un-blacklisted by `who`.\n   */\n  event UnblacklistedToken(IERC20 token, address who);\n\n  /**\n   * @dev Emitted when reward `token` and a `reward` amount apecified by `who`.\n   */\n  event RewardUpdated(IERC20 token, uint reward, address who);\n\n  /**\n   * @dev Emitted when `receiver` rewarded with `reward` amount of tokens.\n   */\n  event Reward(address receiver, uint reward);\n\n  /**\n   * @dev Order updated\n   */\n  event OrderCreated(uint orderId);\n\n  /**\n   * @dev Order updated\n   */\n  event OrderUpdated(uint orderId, IOrder.Status fromStatus, IOrder.Status toStatus);\n\n  /**\n   * @dev check if `token` is not blacklisted\n   */\n  modifier isNotBlacklisted(IERC20 _token) {\n    require(\n      isTokenBlacklisted(_token) == false,\n      \"Token is blacklisted.\"\n    );\n    _;\n  }\n\n  modifier orderReentrancyGuard(uint orderId) {\n    require(\n      orders[orderId].transacting == false,\n      \"Reentrancy is not allowed.\"\n    );\n    orders[orderId].transacting = true;\n    _;\n    orders[orderId].transacting = false;\n  }\n\n  modifier orderOpen(uint orderId) {\n    require(\n      orders[orderId].id > 0,\n      \"Order does not exist.\"\n    );\n    require(\n      orders[orderId].status != IOrder.Status.Completed\n        && orders[orderId].status != IOrder.Status.Closed,\n      \"Order is either completed or closed.\"\n    );\n    _;\n  }\n\n  constructor(\n    address _owner,\n    address payable _treasury\n  ) public {\n    require(_treasury != address(0), \"Invalid treasury wallet address\");\n    require(_owner != address(0), \"Invalid owner address\");\n\n    treasury = _treasury;\n    transferOwnership(_owner);\n  }\n\n  function orderExists(uint orderId) public view returns (bool) {\n    return orders[orderId].id > 0;\n  }\n\n  function isTokenBlacklisted(IERC20 _token) public view returns (bool) {\n    return blacklistedTokens[_token];\n  }\n\n  function stats(IOrder.Status status) public view returns (uint) {\n    return ordersStats[status];\n  }\n\n  function getOrder(uint orderId) public view returns (IOrder.Order memory) {\n    return orders[orderId];\n  }\n\n  function listUserOrders(address user) public view\n  returns (IOrder.Order[] memory userOrders){\n    uint count = userActiveOrders[user].length;\n    userOrders = new IOrder.Order[](count);\n\n    for (uint i = 0; i <= count; i++) {\n      uint orderId = userActiveOrders[user][i]; \n      userOrders[i] = orders[orderId];\n    }\n  }\n\n  function listOrders(uint orderId, uint offset, uint size) public view\n  returns (IOrder.Order[] memory page, uint entries) {\n    require(size <= 100, \"Max page size is 100\");\n    page = new IOrder.Order[](size);\n\n    for (uint i = 0; i < size; i++) {\n      uint y = offset + size;\n\n      if (y >= lastOrderId) {\n        break;\n      }\n\n      entries++;\n      page[i] = getOrder(lastOrderId - y);\n    }\n  }\n\n  function createOrder(\n    IERC20 from,\n    uint fromAmount,\n    IERC20 to,\n    uint toAmount,\n    bool allowPartial\n  ) public\n  whenNotPaused isNotBlacklisted(from) isNotBlacklisted(to)\n  returns (uint orderId) {\n    require(fromAmount > 0 && toAmount > 0, \"Amounts can not be 0\");\n    require(address(from) != address(to), \"Token can not be the same\");\n    require(address(from) != address(0), \"Token 'from' should exist\");\n    require(address(to) != address(0), \"Token 'to' should exist\");\n    require(\n      from.allowance(_msgSender(), address(this)) >= fromAmount,\n      \"Marketplace not allowed to spend desired amount of tokens\"\n    );\n\n    orderId = lastOrderId++;\n    IOrder.Order memory order = IOrder.Order(\n      from,\n      fromAmount,\n      to,\n      toAmount,\n      _msgSender(),\n      allowPartial,\n      orderId, // id\n      false, // transacting\n      IOrder.Status.Open, // status\n      0 // completedAmount\n    );\n    orders[orderId] = order;\n    ordersStats[IOrder.Status.Open]++;\n    userActiveOrders[_msgSender()].push(orderId);\n  }\n\n  function closeOrder(uint orderId) public\n  orderReentrancyGuard(orderId) orderOpen(orderId) {\n    require(orders[orderId].owner == _msgSender(), \"Order updates allowed by orners only!\");\n\n    IOrder.Status oldStatus = orders[orderId].status;\n    orders[orderId].status = IOrder.Status.Closed;\n    ordersStats[IOrder.Status.Closed]++;\n    removeActiveOrder(_msgSender(), orderId);\n\n    emit OrderUpdated(orderId, oldStatus, IOrder.Status.Closed);\n  }\n\n  function claimOrder(uint orderId, uint amount, address wallet) public\n  whenNotPaused orderReentrancyGuard(orderId) orderOpen(orderId)\n  returns (bool) {\n    IOrder.Order memory order = orders[orderId];\n    IOrder.Status oldStatus = order.status;\n\n    require(\n      amount > 0 && amount <= (order.fromAmount - order.completedAmount),\n      \"Amount is either 0 or greater than the one available\"\n    );\n    require(order.allowPartial || amount == order.fromAmount, \"Order does not allow partial buyout\");\n\n    uint payoffAmount = order.toAmount * order.fromAmount * amount / 10**4;\n\n    require(\n      order.to.allowance(_msgSender(), address(this)) >= payoffAmount,\n      \"Marketplace not allowed to spend desired amount of tokens\"\n    );\n\n    // Effect\n    orders[orderId].completedAmount += amount;\n    orders[orderId].status = order.completedAmount == order.fromAmount\n      ? IOrder.Status.Completed\n      : IOrder.Status.PartiallyCompleted;\n    ordersStats[orders[orderId].status]++;\n\n    if (orders[orderId].status == IOrder.Status.Completed) {\n      removeActiveOrder(_msgSender(), orderId);\n    }\n\n    // Interaction\n    order.to.safeTransferFrom(_msgSender(), order.owner, payoffAmount);\n    order.from.safeTransferFrom(order.owner, wallet, amount);\n\n    _reward(wallet);\n    emit OrderUpdated(orderId, oldStatus, orders[orderId].status);\n    return true;\n  }\n\n  /**\n   * @dev Update closed order reward\n   */\n  function updateReward(IToken _token, uint _reward) public onlyOwner {\n    require(address(_token) != address(0), \"Invalid token address\");\n    require(_token.hasRole(MINTER_ROLE, address(this)), \"Marketplace is not a minter\");\n\n    token = _token;\n    reward = _reward;\n\n    emit RewardUpdated(_token, _reward, _msgSender());\n  }\n\n  /**\n   * @dev Blacklist a token\n   */\n  function blacklistToken(IERC20 _token, bool state) public onlyOwner {\n    blacklistedTokens[_token] = state;\n\n    if (state) {\n      blacklistedTokensCount++;\n      emit BlacklistedToken(_token, _msgSender());\n    } else {\n      blacklistedTokensCount--;\n      emit UnblacklistedToken(_token, _msgSender());\n    }\n  }\n\n  /**\n   * Removes an order from active user orders\n   */\n  function removeActiveOrder(address user, uint orderId) internal returns (uint index, bool found) {\n    if (userActiveOrders[user].length == 1 && userActiveOrders[user][0] == orderId) {\n      userActiveOrders[user].pop();\n      return (index, found);\n    }\n\n    for (uint i = 0; i <= userActiveOrders[user].length; i++){\n      if (userActiveOrders[user][i] == orderId) {\n        found = true;\n        index = i;\n        break;\n      }\n    }\n\n    if (!found) {\n      return (index, found);\n    }\n\n    for (uint i = index; i < userActiveOrders[user].length - 1; i++){\n      userActiveOrders[user][i] = userActiveOrders[user][i + 1];\n    }\n\n    userActiveOrders[user].pop();\n  }\n\n  /**\n   * @dev transfer reward for a closed order\n   */\n  function _reward(address receiver) internal {\n    if (reward > 0) {\n      token.mint(receiver, reward);\n      rewardsCount++;\n      rewardsValue += reward;\n      emit Reward(receiver, reward);\n    }\n  }\n\n  /**\n   * @dev This function is called for all messages sent to\n   * this contract, except plain Ether transfers\n   * (there is no other function except the receive function).\n   * Any call with non-empty calldata to this contract will execute\n   * the fallback function (even if Ether is sent along with the call).\n   */\n  fallback() external payable {\n    treasury.transfer(msg.value);\n    emit Donated(_msgSender(), msg.value);\n  }\n\n  /**\n   * @dev This function is called for plain Ether transfers, i.e.\n   * for every call with empty calldata.\n   */\n  receive() external payable {\n    treasury.transfer(msg.value);\n    emit Donated(_msgSender(), msg.value);\n  }\n}\n",
  "sourcePath": "/home/alex/Projects/erc.money-app/contracts/Marketplace.sol",
  "compiler": {
    "name": "solc",
    "version": "0.6.12+commit.27d51765.Emscripten.clang"
  },
  "schemaVersion": "3.3.1",
  "updatedAt": "2020-11-11T01:42:03.239Z",
  "networkType": "ethereum",
  "devdoc": {
    "events": {
      "BlacklistedToken(address,address)": {
        "details": "Emitted when a `token` gets blacklisted by `who`."
      },
      "Donated(address,uint256)": {
        "details": "Emitted when the donation of `value` received from `account`."
      },
      "OrderCreated(uint256)": {
        "details": "Order updated"
      },
      "OrderUpdated(uint256,uint8,uint8)": {
        "details": "Order updated"
      },
      "Reward(address,uint256)": {
        "details": "Emitted when `receiver` rewarded with `reward` amount of tokens."
      },
      "RewardUpdated(address,uint256,address)": {
        "details": "Emitted when reward `token` and a `reward` amount apecified by `who`."
      },
      "UnblacklistedToken(address,address)": {
        "details": "Emitted when a `token` gets un-blacklisted by `who`."
      }
    },
    "kind": "dev",
    "methods": {
      "blacklistToken(address,bool)": {
        "details": "Blacklist a token"
      },
      "owner()": {
        "details": "Returns the address of the current owner."
      },
      "paused()": {
        "details": "Returns true if the contract is paused, and false otherwise."
      },
      "renounceOwnership()": {
        "details": "Leaves the contract without owner. It will not be possible to call `onlyOwner` functions anymore. Can only be called by the current owner. NOTE: Renouncing ownership will leave the contract without an owner, thereby removing any functionality that is only available to the owner."
      },
      "transferOwnership(address)": {
        "details": "Transfers ownership of the contract to a new account (`newOwner`). Can only be called by the current owner."
      },
      "updateReward(address,uint256)": {
        "details": "Update closed order reward"
      }
    },
    "version": 1
  },
  "userdoc": {
    "kind": "user",
    "methods": {},
    "version": 1
  }
}