{
  "contractName": "Marketplace",
  "abi": [
    {
      "inputs": [
        {
          "internalType": "address",
          "name": "_owner",
          "type": "address"
        },
        {
          "internalType": "address payable",
          "name": "_treasury",
          "type": "address"
        }
      ],
      "stateMutability": "nonpayable",
      "type": "constructor"
    },
    {
      "anonymous": false,
      "inputs": [
        {
          "indexed": false,
          "internalType": "contract IERC20",
          "name": "token",
          "type": "address"
        },
        {
          "indexed": false,
          "internalType": "address",
          "name": "who",
          "type": "address"
        }
      ],
      "name": "BlacklistedToken",
      "type": "event"
    },
    {
      "anonymous": false,
      "inputs": [
        {
          "indexed": false,
          "internalType": "address",
          "name": "account",
          "type": "address"
        },
        {
          "indexed": false,
          "internalType": "uint256",
          "name": "value",
          "type": "uint256"
        }
      ],
      "name": "Donated",
      "type": "event"
    },
    {
      "anonymous": false,
      "inputs": [
        {
          "indexed": false,
          "internalType": "uint256",
          "name": "orderId",
          "type": "uint256"
        }
      ],
      "name": "OrderCreated",
      "type": "event"
    },
    {
      "anonymous": false,
      "inputs": [
        {
          "indexed": false,
          "internalType": "uint256",
          "name": "orderId",
          "type": "uint256"
        },
        {
          "indexed": false,
          "internalType": "enum IOrder.Status",
          "name": "fromStatus",
          "type": "uint8"
        },
        {
          "indexed": false,
          "internalType": "enum IOrder.Status",
          "name": "toStatus",
          "type": "uint8"
        }
      ],
      "name": "OrderUpdated",
      "type": "event"
    },
    {
      "anonymous": false,
      "inputs": [
        {
          "indexed": true,
          "internalType": "address",
          "name": "previousOwner",
          "type": "address"
        },
        {
          "indexed": true,
          "internalType": "address",
          "name": "newOwner",
          "type": "address"
        }
      ],
      "name": "OwnershipTransferred",
      "type": "event"
    },
    {
      "anonymous": false,
      "inputs": [
        {
          "indexed": false,
          "internalType": "address",
          "name": "account",
          "type": "address"
        }
      ],
      "name": "Paused",
      "type": "event"
    },
    {
      "anonymous": false,
      "inputs": [
        {
          "indexed": false,
          "internalType": "address",
          "name": "receiver",
          "type": "address"
        },
        {
          "indexed": false,
          "internalType": "uint256",
          "name": "reward",
          "type": "uint256"
        }
      ],
      "name": "Reward",
      "type": "event"
    },
    {
      "anonymous": false,
      "inputs": [
        {
          "indexed": false,
          "internalType": "contract IERC20",
          "name": "token",
          "type": "address"
        },
        {
          "indexed": false,
          "internalType": "uint256",
          "name": "reward",
          "type": "uint256"
        },
        {
          "indexed": false,
          "internalType": "address",
          "name": "who",
          "type": "address"
        }
      ],
      "name": "RewardUpdated",
      "type": "event"
    },
    {
      "anonymous": false,
      "inputs": [
        {
          "indexed": false,
          "internalType": "contract IERC20",
          "name": "token",
          "type": "address"
        },
        {
          "indexed": false,
          "internalType": "address",
          "name": "who",
          "type": "address"
        }
      ],
      "name": "UnblacklistedToken",
      "type": "event"
    },
    {
      "anonymous": false,
      "inputs": [
        {
          "indexed": false,
          "internalType": "address",
          "name": "account",
          "type": "address"
        }
      ],
      "name": "Unpaused",
      "type": "event"
    },
    {
      "stateMutability": "payable",
      "type": "fallback",
      "payable": true
    },
    {
      "inputs": [],
      "name": "MINTER_ROLE",
      "outputs": [
        {
          "internalType": "bytes32",
          "name": "",
          "type": "bytes32"
        }
      ],
      "stateMutability": "view",
      "type": "function",
      "constant": true
    },
    {
      "inputs": [],
      "name": "blacklistedTokensCount",
      "outputs": [
        {
          "internalType": "uint256",
          "name": "",
          "type": "uint256"
        }
      ],
      "stateMutability": "view",
      "type": "function",
      "constant": true
    },
    {
      "inputs": [],
      "name": "lastOrderId",
      "outputs": [
        {
          "internalType": "uint256",
          "name": "",
          "type": "uint256"
        }
      ],
      "stateMutability": "view",
      "type": "function",
      "constant": true
    },
    {
      "inputs": [],
      "name": "owner",
      "outputs": [
        {
          "internalType": "address",
          "name": "",
          "type": "address"
        }
      ],
      "stateMutability": "view",
      "type": "function",
      "constant": true
    },
    {
      "inputs": [],
      "name": "paused",
      "outputs": [
        {
          "internalType": "bool",
          "name": "",
          "type": "bool"
        }
      ],
      "stateMutability": "view",
      "type": "function",
      "constant": true
    },
    {
      "inputs": [],
      "name": "renounceOwnership",
      "outputs": [],
      "stateMutability": "nonpayable",
      "type": "function"
    },
    {
      "inputs": [],
      "name": "reward",
      "outputs": [
        {
          "internalType": "uint256",
          "name": "",
          "type": "uint256"
        }
      ],
      "stateMutability": "view",
      "type": "function",
      "constant": true
    },
    {
      "inputs": [],
      "name": "rewardsCount",
      "outputs": [
        {
          "internalType": "uint256",
          "name": "",
          "type": "uint256"
        }
      ],
      "stateMutability": "view",
      "type": "function",
      "constant": true
    },
    {
      "inputs": [],
      "name": "rewardsValue",
      "outputs": [
        {
          "internalType": "uint256",
          "name": "",
          "type": "uint256"
        }
      ],
      "stateMutability": "view",
      "type": "function",
      "constant": true
    },
    {
      "inputs": [],
      "name": "token",
      "outputs": [
        {
          "internalType": "contract IToken",
          "name": "",
          "type": "address"
        }
      ],
      "stateMutability": "view",
      "type": "function",
      "constant": true
    },
    {
      "inputs": [
        {
          "internalType": "address",
          "name": "newOwner",
          "type": "address"
        }
      ],
      "name": "transferOwnership",
      "outputs": [],
      "stateMutability": "nonpayable",
      "type": "function"
    },
    {
      "inputs": [],
      "name": "treasury",
      "outputs": [
        {
          "internalType": "address payable",
          "name": "",
          "type": "address"
        }
      ],
      "stateMutability": "view",
      "type": "function",
      "constant": true
    },
    {
      "stateMutability": "payable",
      "type": "receive",
      "payable": true
    },
    {
      "inputs": [
        {
          "internalType": "uint256",
          "name": "orderId",
          "type": "uint256"
        }
      ],
      "name": "orderExists",
      "outputs": [
        {
          "internalType": "bool",
          "name": "",
          "type": "bool"
        }
      ],
      "stateMutability": "view",
      "type": "function",
      "constant": true
    },
    {
      "inputs": [
        {
          "internalType": "contract IERC20",
          "name": "_token",
          "type": "address"
        }
      ],
      "name": "isTokenBlacklisted",
      "outputs": [
        {
          "internalType": "bool",
          "name": "",
          "type": "bool"
        }
      ],
      "stateMutability": "view",
      "type": "function",
      "constant": true
    },
    {
      "inputs": [
        {
          "internalType": "enum IOrder.Status",
          "name": "status",
          "type": "uint8"
        }
      ],
      "name": "stats",
      "outputs": [
        {
          "internalType": "uint256",
          "name": "",
          "type": "uint256"
        }
      ],
      "stateMutability": "view",
      "type": "function",
      "constant": true
    },
    {
      "inputs": [
        {
          "internalType": "uint256",
          "name": "orderId",
          "type": "uint256"
        }
      ],
      "name": "getOrder",
      "outputs": [
        {
          "components": [
            {
              "internalType": "contract IERC20",
              "name": "from",
              "type": "address"
            },
            {
              "internalType": "uint256",
              "name": "fromAmount",
              "type": "uint256"
            },
            {
              "internalType": "contract IERC20",
              "name": "to",
              "type": "address"
            },
            {
              "internalType": "uint256",
              "name": "toAmount",
              "type": "uint256"
            },
            {
              "internalType": "address",
              "name": "owner",
              "type": "address"
            },
            {
              "internalType": "bool",
              "name": "allowPartial",
              "type": "bool"
            },
            {
              "internalType": "uint256",
              "name": "id",
              "type": "uint256"
            },
            {
              "internalType": "bool",
              "name": "transacting",
              "type": "bool"
            },
            {
              "internalType": "enum IOrder.Status",
              "name": "status",
              "type": "uint8"
            },
            {
              "internalType": "uint256",
              "name": "completedAmount",
              "type": "uint256"
            }
          ],
          "internalType": "struct IOrder.Order",
          "name": "",
          "type": "tuple"
        }
      ],
      "stateMutability": "view",
      "type": "function",
      "constant": true
    },
    {
      "inputs": [
        {
          "internalType": "uint256",
          "name": "orderId",
          "type": "uint256"
        },
        {
          "internalType": "uint256",
          "name": "offset",
          "type": "uint256"
        },
        {
          "internalType": "uint256",
          "name": "size",
          "type": "uint256"
        }
      ],
      "name": "listOrders",
      "outputs": [
        {
          "components": [
            {
              "internalType": "contract IERC20",
              "name": "from",
              "type": "address"
            },
            {
              "internalType": "uint256",
              "name": "fromAmount",
              "type": "uint256"
            },
            {
              "internalType": "contract IERC20",
              "name": "to",
              "type": "address"
            },
            {
              "internalType": "uint256",
              "name": "toAmount",
              "type": "uint256"
            },
            {
              "internalType": "address",
              "name": "owner",
              "type": "address"
            },
            {
              "internalType": "bool",
              "name": "allowPartial",
              "type": "bool"
            },
            {
              "internalType": "uint256",
              "name": "id",
              "type": "uint256"
            },
            {
              "internalType": "bool",
              "name": "transacting",
              "type": "bool"
            },
            {
              "internalType": "enum IOrder.Status",
              "name": "status",
              "type": "uint8"
            },
            {
              "internalType": "uint256",
              "name": "completedAmount",
              "type": "uint256"
            }
          ],
          "internalType": "struct IOrder.Order[]",
          "name": "page",
          "type": "tuple[]"
        },
        {
          "internalType": "uint256",
          "name": "entries",
          "type": "uint256"
        }
      ],
      "stateMutability": "view",
      "type": "function",
      "constant": true
    },
    {
      "inputs": [
        {
          "internalType": "contract IERC20",
          "name": "from",
          "type": "address"
        },
        {
          "internalType": "uint256",
          "name": "fromAmount",
          "type": "uint256"
        },
        {
          "internalType": "contract IERC20",
          "name": "to",
          "type": "address"
        },
        {
          "internalType": "uint256",
          "name": "toAmount",
          "type": "uint256"
        },
        {
          "internalType": "bool",
          "name": "allowPartial",
          "type": "bool"
        }
      ],
      "name": "createOrder",
      "outputs": [
        {
          "internalType": "uint256",
          "name": "orderId",
          "type": "uint256"
        }
      ],
      "stateMutability": "nonpayable",
      "type": "function"
    },
    {
      "inputs": [
        {
          "internalType": "uint256",
          "name": "orderId",
          "type": "uint256"
        }
      ],
      "name": "closeOrder",
      "outputs": [],
      "stateMutability": "nonpayable",
      "type": "function"
    },
    {
      "inputs": [
        {
          "internalType": "uint256",
          "name": "orderId",
          "type": "uint256"
        },
        {
          "internalType": "uint256",
          "name": "amount",
          "type": "uint256"
        },
        {
          "internalType": "address",
          "name": "wallet",
          "type": "address"
        }
      ],
      "name": "claimOrder",
      "outputs": [
        {
          "internalType": "bool",
          "name": "",
          "type": "bool"
        }
      ],
      "stateMutability": "nonpayable",
      "type": "function"
    },
    {
      "inputs": [
        {
          "internalType": "contract IToken",
          "name": "_token",
          "type": "address"
        },
        {
          "internalType": "uint256",
          "name": "_reward",
          "type": "uint256"
        }
      ],
      "name": "updateReward",
      "outputs": [],
      "stateMutability": "nonpayable",
      "type": "function"
    },
    {
      "inputs": [
        {
          "internalType": "contract IERC20",
          "name": "_token",
          "type": "address"
        },
        {
          "internalType": "bool",
          "name": "state",
          "type": "bool"
        }
      ],
      "name": "blacklistToken",
      "outputs": [],
      "stateMutability": "nonpayable",
      "type": "function"
    }
  ],
  "bytecode": "0x60806040523480156200001157600080fd5b506040516200250738038062002507833981016040819052620000349162000246565b60006200004964010000000062000158810204565b60008054600160a060020a031916600160a060020a038316908117825560405192935091600080516020620024e7833981519152908290a3506000805460a060020a60ff0219169055600160a060020a038116620000de576040517f08c379a0000000000000000000000000000000000000000000000000000000008152600401620000d590620002e1565b60405180910390fd5b600160a060020a03821662000121576040517f08c379a0000000000000000000000000000000000000000000000000000000008152600401620000d59062000318565b60018054600160a060020a031916600160a060020a03831617905562000150826401000000006200015c810204565b50506200039d565b3390565b6200016f64010000000062000158810204565b600054600160a060020a03908116911614620001b9576040517f08c379a0000000000000000000000000000000000000000000000000000000008152600401620000d5906200034f565b600160a060020a038116620001fc576040517f08c379a0000000000000000000000000000000000000000000000000000000008152600401620000d59062000284565b60008054604051600160a060020a0380851693921691600080516020620024e783398151915291a360008054600160a060020a031916600160a060020a0392909216919091179055565b6000806040838503121562000259578182fd5b8251620002668162000384565b6020840151909250620002798162000384565b809150509250929050565b60208082526026908201527f4f776e61626c653a206e6577206f776e657220697320746865207a65726f206160408201527f6464726573730000000000000000000000000000000000000000000000000000606082015260800190565b6020808252601f908201527f496e76616c69642074726561737572792077616c6c6574206164647265737300604082015260600190565b60208082526015908201527f496e76616c6964206f776e657220616464726573730000000000000000000000604082015260600190565b6020808252818101527f4f776e61626c653a2063616c6c6572206973206e6f7420746865206f776e6572604082015260600190565b600160a060020a03811681146200039a57600080fd5b50565b61213a80620003ad6000396000f3fe60806040526004361061013d5760003560e060020a90048063715018a6116100af578063c4d5d0dd11610073578063c4d5d0dd146103df578063ce9be9ba146103f4578063d09ef24114610414578063d539139314610441578063f2fde38b14610456578063fc0c546a14610476576101be565b8063715018a61461036057806386317b96146103755780638699a65f146103955780638da5cb5b146103aa5780639c5bbcf9146103bf576101be565b80632ad54a92116101015780632ad54a92146102995780633012b94e146102b9578063425351bd146102e65780635662ecc7146103145780635c975abb1461032957806361d027b31461033e576101be565b8063069d6d1c146101f7578063121025fe14610219578063190e4c55146102445780631a39912514610264578063228cb73314610284576101be565b366101be57600154604051600160a060020a03909116903480156108fc02916000818181858888f1935050505015801561017b573d6000803e3d6000fd5b507f2a01595cddf097c90216094025db714da3f4e5bd8877b56ba86a24ecead8e5436101a561048b565b346040516101b4929190611aaa565b60405180910390a1005b600154604051600160a060020a03909116903480156108fc02916000818181858888f1935050505015801561017b573d6000803e3d6000fd5b34801561020357600080fd5b50610217610212366004611916565b61048f565b005b34801561022557600080fd5b5061022e61068d565b60405161023b9190611b45565b60405180910390f35b34801561025057600080fd5b5061021761025f366004611836565b610693565b34801561027057600080fd5b5061021761027f3660046118cc565b610795565b34801561029057600080fd5b5061022e610935565b3480156102a557600080fd5b5061022e6102b436600461186e565b61093b565b3480156102c557600080fd5b506102d96102d4366004611946565b610c58565b60405161023b9190611b3a565b3480156102f257600080fd5b5061030661030136600461197e565b6110ec565b60405161023b929190611ae7565b34801561032057600080fd5b5061022e6111c4565b34801561033557600080fd5b506102d96111ca565b34801561034a57600080fd5b506103536111da565b60405161023b9190611a7c565b34801561036c57600080fd5b506102176111e9565b34801561038157600080fd5b506102d9610390366004611916565b611278565b3480156103a157600080fd5b5061022e611292565b3480156103b657600080fd5b50610353611298565b3480156103cb57600080fd5b5061022e6103da3660046118f7565b6112a7565b3480156103eb57600080fd5b5061022e6112da565b34801561040057600080fd5b506102d961040f3660046117f7565b6112e0565b34801561042057600080fd5b5061043461042f366004611916565b6112fe565b60405161023b919061206a565b34801561044d57600080fd5b5061022e6113c3565b34801561046257600080fd5b506102176104713660046117f7565b6113e7565b34801561048257600080fd5b506103536114b0565b3390565b600081815260076020526040902060060154819060ff16156104cf5760405160e560020a62461bcd0281526004016104c690611e68565b60405180910390fd5b600081815260076020526040808220600601805460ff1916600117905583825290206005015482906105165760405160e560020a62461bcd0281526004016104c690611ed4565b6002600082815260076020526040902060060154610100900460ff16600381111561053d57fe5b1415801561057057506003600082815260076020526040902060060154610100900460ff16600381111561056d57fe5b14155b61058f5760405160e560020a62461bcd0281526004016104c690611c4f565b61059761048b565b600084815260076020526040902060040154600160a060020a039081169116146105d65760405160e560020a62461bcd0281526004016104c690611e0b565b6000838152600760209081526040808320600601805461ff001981166103001790915560039384905260089092527f625b35f5e76f098dd7c3a05b10e2e5e78a4a01228d60c3b143426cdf36d26455805460010190555161010090910460ff16917fbd63b5282661ee29288057b2d23c1d8f53d1623238e656d3ab0313766e232cfe9161066791879185919061207f565b60405180910390a150506000908152600760205260409020600601805460ff1916905550565b60095481565b61069b61048b565b600054600160a060020a039081169116146106cb5760405160e560020a62461bcd0281526004016104c690611e9f565b600160a060020a0382166000908152600a60205260409020805460ff19168215801591909117909155610746576009805460010190557fb0dff05d63bda79ce2b542fd08755b28bc58bca10a39883608bb71f687edfdf78261072b61048b565b604051610739929190611a90565b60405180910390a1610791565b600980546000190190557f51ebcd2e6a7592e9883b86a58bb3dcaeb7aa87e0475fb26ff0a1eadba26dcfe48261077a61048b565b604051610788929190611a90565b60405180910390a15b5050565b61079d61048b565b600054600160a060020a039081169116146107cd5760405160e560020a62461bcd0281526004016104c690611e9f565b600160a060020a0382166107f65760405160e560020a62461bcd0281526004016104c690611f9f565b6040517f91d14854000000000000000000000000000000000000000000000000000000008152600160a060020a038316906391d148549061085d907f9f2df0fed2c77648de5860a4cc508cd0818c85b8b8a1ab4ceeef8d981c8956a6903090600401611b4e565b602060405180830381600087803b15801561087757600080fd5b505af115801561088b573d6000803e3d6000fd5b505050506040513d601f19601f820116820180604052508101906108af919061181a565b6108ce5760405160e560020a62461bcd0281526004016104c690611c18565b6002805473ffffffffffffffffffffffffffffffffffffffff1916600160a060020a03841617905560038190557fc8d71d1dc9e781ced39e0ea7e9acc09b0a1a07e73daf21d78f651b2e4a37c52e828261092661048b565b60405161078893929190611b65565b60035481565b6000805460a060020a900460ff16156109695760405160e560020a62461bcd0281526004016104c690611dd4565b85610973816112e0565b156109935760405160e560020a62461bcd0281526004016104c690611d9d565b8461099d816112e0565b156109bd5760405160e560020a62461bcd0281526004016104c690611d9d565b6000871180156109cd5750600085115b6109ec5760405160e560020a62461bcd0281526004016104c690611d09565b8688600160a060020a031663dd62ed3e610a0461048b565b306040518363ffffffff1660e060020a028152600401610a25929190611a90565b60206040518083038186803b158015610a3d57600080fd5b505afa158015610a51573d6000803e3d6000fd5b505050506040513d601f19601f82011682018060405250810190610a75919061192e565b1015610a965760405160e560020a62461bcd0281526004016104c690611f42565b60068054600181019091559250610aab6117a3565b6040518061014001604052808a600160a060020a0316815260200189815260200188600160a060020a03168152602001878152602001610ae961048b565b600160a060020a03168152861515602082015260408101869052600060608201819052608090910190815260006020918201819052868152600782526040908190208351815473ffffffffffffffffffffffffffffffffffffffff19908116600160a060020a039283161783559385015160018301559184015160028201805485169184169190911790556060840151600380830191909155608085015160048301805460a08801519616919094161774ff0000000000000000000000000000000000000000191660a060020a941515949094029390931790915560c0830151600582015560e083015160068201805460ff191691151591909117808255610100808601519596508695939461ff0019909216918490811115610c0857fe5b021790555061012091909101516007909101555050600080525060086020527f5eff886ea0ce6ca488a3d6e336d6c0f75f46d19b42c06ce5ee98e42c96d256c78054600101905595945050505050565b6000805460a060020a900460ff1615610c865760405160e560020a62461bcd0281526004016104c690611dd4565b600084815260076020526040902060060154849060ff1615610cbd5760405160e560020a62461bcd0281526004016104c690611e68565b600081815260076020526040808220600601805460ff191660011790558682529020600501548590610d045760405160e560020a62461bcd0281526004016104c690611ed4565b6002600082815260076020526040902060060154610100900460ff166003811115610d2b57fe5b14158015610d5e57506003600082815260076020526040902060060154610100900460ff166003811115610d5b57fe5b14155b610d7d5760405160e560020a62461bcd0281526004016104c690611c4f565b610d856117a3565b6000878152600760209081526040918290208251610140810184528154600160a060020a039081168252600183015493820193909352600282015483169381019390935260038082015460608501526004820154928316608085015260ff60a060020a9093048316151560a0850152600582015460c08501526006820154808416151560e0860152919261010080860193041690811115610e2257fe5b6003811115610e2d57fe5b8152600791909101546020909101526101008101519091508615801590610e5f57508161012001518260200151038711155b610e7e5760405160e560020a62461bcd0281526004016104c690611bbb565b8160a0015180610e915750816020015187145b610eb05760405160e560020a62461bcd0281526004016104c690611d40565b60006127108884602001518560600151020281610ec957fe5b049050808360400151600160a060020a031663dd62ed3e610ee861048b565b306040518363ffffffff1660e060020a028152600401610f09929190611a90565b60206040518083038186803b158015610f2157600080fd5b505afa158015610f35573d6000803e3d6000fd5b505050506040513d601f19601f82011682018060405250810190610f59919061192e565b1015610f7a5760405160e560020a62461bcd0281526004016104c690611f42565b60008981526007602081815260409092200180548a01905583015161012084015114610fa7576001610faa565b60025b60008a8152600760205260409020600601805461ff001916610100836003811115610fd157fe5b021790555060008981526007602052604081206006015460089190610100900460ff166003811115610fff57fe5b600381111561100a57fe5b815260208101919091526040016000208054600101905561104761102c61048b565b60808501516040860151600160a060020a03169190846114bf565b6080830151835161106591600160a060020a0390911690898b6114bf565b61106e8761154d565b600089815260076020526040908190206006015490517fbd63b5282661ee29288057b2d23c1d8f53d1623238e656d3ab0313766e232cfe916110bd918c91869161010090910460ff169061207f565b60405180910390a1505050600091825250600760205260409020600601805460ff191690555060019392505050565b6060600060648311156111145760405160e560020a62461bcd0281526004016104c690612033565b8267ffffffffffffffff8111801561112b57600080fd5b5060405190808252806020026020018201604052801561116557816020015b6111526117a3565b81526020019060019003908161114a5790505b50915060005b838110156111bb5760065485850190811061118657506111bb565b828060010193505061119b81600654036112fe565b8483815181106111a757fe5b60209081029190910101525060010161116b565b50935093915050565b60065481565b60005460a060020a900460ff1690565b600154600160a060020a031681565b6111f161048b565b600054600160a060020a039081169116146112215760405160e560020a62461bcd0281526004016104c690611e9f565b60008054604051600160a060020a03909116907f8be0079c531659141344cd1fd0a4f28419497f9722a3daafe3b4186f6b6457e0908390a36000805473ffffffffffffffffffffffffffffffffffffffff19169055565b60008181526007602052604090206005015415155b919050565b60045481565b600054600160a060020a031690565b6000600860008360038111156112b957fe5b60038111156112c457fe5b8152602001908152602001600020549050919050565b60055481565b600160a060020a03166000908152600a602052604090205460ff1690565b6113066117a3565b6000828152600760209081526040918290208251610140810184528154600160a060020a039081168252600183015493820193909352600282015483169381019390935260038082015460608501526004820154928316608085015260ff60a060020a9093048316151560a0850152600582015460c08501526006820154808416151560e08601529192610100808601930416908111156113a357fe5b60038111156113ae57fe5b81526020016007820154815250509050919050565b7f9f2df0fed2c77648de5860a4cc508cd0818c85b8b8a1ab4ceeef8d981c8956a681565b6113ef61048b565b600054600160a060020a0390811691161461141f5760405160e560020a62461bcd0281526004016104c690611e9f565b600160a060020a0381166114485760405160e560020a62461bcd0281526004016104c690611cac565b60008054604051600160a060020a03808516939216917f8be0079c531659141344cd1fd0a4f28419497f9722a3daafe3b4186f6b6457e091a36000805473ffffffffffffffffffffffffffffffffffffffff1916600160a060020a0392909216919091179055565b600254600160a060020a031681565b611547846323b872dd60e060020a028585856040516024016114e393929190611ac3565b60408051601f198184030181529190526020810180517bffffffffffffffffffffffffffffffffffffffffffffffffffffffff167fffffffff0000000000000000000000000000000000000000000000000000000090931692909217909152611625565b50505050565b60035415611622576002546003546040517f40c10f19000000000000000000000000000000000000000000000000000000008152600160a060020a03909216916340c10f19916115a291859190600401611aaa565b600060405180830381600087803b1580156115bc57600080fd5b505af11580156115d0573d6000803e3d6000fd5b5050600480546001019055505060035460058054820190556040517f619caafabdd75649b302ba8419e48cccf64f37f1983ac4727cfb38b57703ffc99161161991849190611aaa565b60405180910390a15b50565b606061167a826040518060400160405280602081526020017f5361666545524332303a206c6f772d6c6576656c2063616c6c206661696c656481525085600160a060020a03166116bc9092919063ffffffff16565b8051909150156116b75780806020019051810190611698919061181a565b6116b75760405160e560020a62461bcd0281526004016104c690611fd6565b505050565b60606116cb84846000856116d3565b949350505050565b60606116de8561179d565b6116fd5760405160e560020a62461bcd0281526004016104c690611f0b565b6000606086600160a060020a0316858760405161171a9190611a60565b60006040518083038185875af1925050503d8060008114611757576040519150601f19603f3d011682016040523d82523d6000602084013e61175c565b606091505b509150915081156117705791506116cb9050565b8051156117805780518082602001fd5b8360405160e560020a62461bcd0281526004016104c69190611b88565b3b151590565b6040805161014081018252600080825260208201819052918101829052606081018290526080810182905260a0810182905260c0810182905260e08101829052906101008201908152602001600081525090565b600060208284031215611808578081fd5b8135611813816120e1565b9392505050565b60006020828403121561182b578081fd5b8151611813816120f6565b60008060408385031215611848578081fd5b8235611853816120e1565b91506020830135611863816120f6565b809150509250929050565b600080600080600060a08688031215611885578081fd5b8535611890816120e1565b94506020860135935060408601356118a7816120e1565b92506060860135915060808601356118be816120f6565b809150509295509295909350565b600080604083850312156118de578182fd5b82356118e9816120e1565b946020939093013593505050565b600060208284031215611908578081fd5b813560048110611813578182fd5b600060208284031215611927578081fd5b5035919050565b60006020828403121561193f578081fd5b5051919050565b60008060006060848603121561195a578283fd5b83359250602084013591506040840135611973816120e1565b809150509250925092565b600080600060608486031215611992578283fd5b505081359360208301359350604090920135919050565b600160a060020a03169052565b15159052565b600481106119c657fe5b9052565b6119d58282516119a9565b6020810151602083015260408101516119f160408401826119a9565b50606081015160608301526080810151611a0e60808401826119a9565b5060a0810151611a2160a08401826119b6565b5060c081015160c083015260e0810151611a3e60e08401826119b6565b5061010080820151611a52828501826119bc565b505061012090810151910152565b60008251611a728184602087016120b5565b9190910192915050565b600160a060020a0391909116815260200190565b600160a060020a0392831681529116602082015260400190565b600160a060020a03929092168252602082015260400190565b600160a060020a039384168152919092166020820152604081019190915260600190565b604080825283519082018190526000906020906060840190828701845b82811015611b2b57611b178483516119ca565b610140939093019290840190600101611b04565b50505092019290925292915050565b901515815260200190565b90815260200190565b918252600160a060020a0316602082015260400190565b600160a060020a0393841681526020810192909252909116604082015260600190565b6000602082528251806020840152611ba78160408501602087016120b5565b601f01601f19169190910160400192915050565b60208082526034908201527f416d6f756e74206973206569746865722030206f72206772656174657220746860408201527f616e20746865206f6e6520617661696c61626c65000000000000000000000000606082015260800190565b6020808252601b908201527f4d61726b6574706c616365206973206e6f742061206d696e7465720000000000604082015260600190565b60208082526024908201527f4f726465722069732065697468657220636f6d706c65746564206f7220636c6f60408201527f7365642e00000000000000000000000000000000000000000000000000000000606082015260800190565b60208082526026908201527f4f776e61626c653a206e6577206f776e657220697320746865207a65726f206160408201527f6464726573730000000000000000000000000000000000000000000000000000606082015260800190565b60208082526014908201527f416d6f756e74732063616e206e6f742062652030000000000000000000000000604082015260600190565b60208082526023908201527f4f7264657220646f6573206e6f7420616c6c6f77207061727469616c2062757960408201527f6f75740000000000000000000000000000000000000000000000000000000000606082015260800190565b60208082526015908201527f546f6b656e20697320626c61636b6c69737465642e0000000000000000000000604082015260600190565b60208082526010908201527f5061757361626c653a2070617573656400000000000000000000000000000000604082015260600190565b60208082526025908201527f4f72646572207570646174657320616c6c6f776564206279206f726e6572732060408201527f6f6e6c7921000000000000000000000000000000000000000000000000000000606082015260800190565b6020808252601a908201527f5265656e7472616e6379206973206e6f7420616c6c6f7765642e000000000000604082015260600190565b6020808252818101527f4f776e61626c653a2063616c6c6572206973206e6f7420746865206f776e6572604082015260600190565b60208082526015908201527f4f7264657220646f6573206e6f742065786973742e0000000000000000000000604082015260600190565b6020808252601d908201527f416464726573733a2063616c6c20746f206e6f6e2d636f6e7472616374000000604082015260600190565b60208082526039908201527f4d61726b6574706c616365206e6f7420616c6c6f77656420746f207370656e6460408201527f206465736972656420616d6f756e74206f6620746f6b656e7300000000000000606082015260800190565b60208082526015908201527f496e76616c696420746f6b656e20616464726573730000000000000000000000604082015260600190565b6020808252602a908201527f5361666545524332303a204552433230206f7065726174696f6e20646964206e60408201527f6f74207375636365656400000000000000000000000000000000000000000000606082015260800190565b60208082526014908201527f4d617820706167652073697a6520697320313030000000000000000000000000604082015260600190565b610140810161207982846119ca565b92915050565b8381526060810161208f846120aa565b602083015261209d836120aa565b6040830152949350505050565b806004811061128d57fe5b60005b838110156120d05781810151838201526020016120b8565b838111156115475750506000910152565b600160a060020a038116811461162257600080fd5b801515811461162257600080fdfea2646970667358221220e76cdf68e9fc256fdc71e546bb2e8e53129dc1de1478d18e775997d0ffb6e35b64736f6c634300060c00338be0079c531659141344cd1fd0a4f28419497f9722a3daafe3b4186f6b6457e0",
  "immutableReferences": {},
  "source": "// SPDX-License-Identifier: MIT\npragma solidity >=0.6.0 <0.8.0;\npragma experimental ABIEncoderV2;\n\nimport \"@openzeppelin/contracts/token/ERC20/IERC20.sol\";\nimport \"@openzeppelin/contracts/token/ERC20/SafeERC20.sol\";\nimport \"@openzeppelin/contracts/access/Ownable.sol\";\nimport \"@openzeppelin/contracts/utils/Pausable.sol\";\nimport \"@openzeppelin/contracts/math/SafeMath.sol\";\nimport \"./IOrder.sol\";\nimport \"./IToken.sol\";\n\ncontract Marketplace is Ownable, Pausable {\n  using SafeMath for uint;\n  using SafeERC20 for IERC20;\n\n  bytes32 public constant MINTER_ROLE = keccak256(\"MINTER_ROLE\");\n\n  // @dev treasury wallet to forward donated eth to\n  address payable public treasury;\n\n  // @dev reward token\n  IToken public token;\n\n  // @dev amount tokens to reward for a closed order\n  uint public reward;\n\n  // @dev amount of distributed rewards\n  uint public rewardsCount;\n\n  // @dev value of distributed rewarrds\n  uint public rewardsValue;\n\n  // @dev order if incrementer\n  uint public lastOrderId;\n\n  // @dev orders book\n  mapping (uint => IOrder.Order) orders;\n\n  mapping (IOrder.Status => uint) ordersStats;\n\n  // @dev blacklisted tokens count\n  uint public blacklistedTokensCount;\n\n  // @dev token addresses that are blacklisted\n  mapping (IERC20 => bool) blacklistedTokens;\n\n  // @dev token addresses that are blacklisted\n  // mapping (IERC20 => bool) blacklistedTokens;\n\n  /**\n   * @dev Emitted when the donation of `value` received from `account`.\n   */\n  event Donated(address account, uint value);\n\n  /**\n   * @dev Emitted when a `token` gets blacklisted by `who`.\n   */\n  event BlacklistedToken(IERC20 token, address who);\n\n  /**\n   * @dev Emitted when a `token` gets un-blacklisted by `who`.\n   */\n  event UnblacklistedToken(IERC20 token, address who);\n\n  /**\n   * @dev Emitted when reward `token` and a `reward` amount apecified by `who`.\n   */\n  event RewardUpdated(IERC20 token, uint reward, address who);\n\n  /**\n   * @dev Emitted when `receiver` rewarded with `reward` amount of tokens.\n   */\n  event Reward(address receiver, uint reward);\n\n  /**\n   * @dev Order updated\n   */\n  event OrderCreated(uint orderId);\n\n  /**\n   * @dev Order updated\n   */\n  event OrderUpdated(uint orderId, IOrder.Status fromStatus, IOrder.Status toStatus);\n\n  /**\n   * @dev check if `token` is not blacklisted\n   */\n  modifier isNotBlacklisted(IERC20 _token) {\n    require(\n      isTokenBlacklisted(_token) == false,\n      \"Token is blacklisted.\"\n    );\n    _;\n  }\n\n  modifier orderReentrancyGuard(uint orderId) {\n    require(\n      orders[orderId].transacting == false,\n      \"Reentrancy is not allowed.\"\n    );\n    orders[orderId].transacting = true;\n    _;\n    orders[orderId].transacting = false;\n  }\n\n  modifier orderOpen(uint orderId) {\n    require(\n      orders[orderId].id > 0,\n      \"Order does not exist.\"\n    );\n    require(\n      orders[orderId].status != IOrder.Status.Completed\n        && orders[orderId].status != IOrder.Status.Closed,\n      \"Order is either completed or closed.\"\n    );\n    _;\n  }\n\n  constructor(\n    address _owner,\n    address payable _treasury\n  ) public {\n    require(_treasury != address(0), \"Invalid treasury wallet address\");\n    require(_owner != address(0), \"Invalid owner address\");\n\n    treasury = _treasury;\n    transferOwnership(_owner);\n  }\n\n  function orderExists(uint orderId) public view returns (bool) {\n    return orders[orderId].id > 0;\n  }\n\n  function isTokenBlacklisted(IERC20 _token) public view returns (bool) {\n    return blacklistedTokens[_token];\n  }\n\n  function stats(IOrder.Status status) public view returns (uint) {\n    return ordersStats[status];\n  }\n\n  function getOrder(uint orderId) public view returns (IOrder.Order memory) {\n    return orders[orderId];\n  }\n\n  function listOrders(uint orderId, uint offset, uint size) public view\n  returns (IOrder.Order[] memory page, uint entries) {\n    require(size <= 100, \"Max page size is 100\");\n    page = new IOrder.Order[](size);\n\n    for (uint i = 0; i < size; i++) {\n      uint y = offset + size;\n\n      if (y >= lastOrderId) {\n        break;\n      }\n\n      entries++;\n      page[i] = getOrder(lastOrderId - y);\n    }\n  }\n\n  function createOrder(\n    IERC20 from,\n    uint fromAmount,\n    IERC20 to,\n    uint toAmount,\n    bool allowPartial\n  ) public\n  whenNotPaused isNotBlacklisted(from) isNotBlacklisted(to)\n  returns (uint orderId) {\n    require(fromAmount > 0 && toAmount > 0, \"Amounts can not be 0\");\n    require(\n      from.allowance(_msgSender(), address(this)) >= fromAmount,\n      \"Marketplace not allowed to spend desired amount of tokens\"\n    );\n\n    orderId = lastOrderId++;\n    IOrder.Order memory order = IOrder.Order(\n      from,\n      fromAmount,\n      to,\n      toAmount,\n      _msgSender(),\n      allowPartial,\n      orderId, // id\n      false, // transacting\n      IOrder.Status.Open, // status\n      0 // completedAmount\n    );\n    orders[orderId] = order;\n    ordersStats[IOrder.Status.Open]++;\n  }\n\n  function closeOrder(uint orderId) public\n  orderReentrancyGuard(orderId) orderOpen(orderId) {\n    require(orders[orderId].owner == _msgSender(), \"Order updates allowed by orners only!\");\n\n    IOrder.Status oldStatus = orders[orderId].status;\n    orders[orderId].status = IOrder.Status.Closed;\n    ordersStats[IOrder.Status.Closed]++;\n\n    emit OrderUpdated(orderId, oldStatus, IOrder.Status.Closed);\n  }\n\n  function claimOrder(uint orderId, uint amount, address wallet) public\n  whenNotPaused orderReentrancyGuard(orderId) orderOpen(orderId)\n  returns (bool) {\n    IOrder.Order memory order = orders[orderId];\n    IOrder.Status oldStatus = order.status;\n\n    require(\n      amount > 0 && amount <= (order.fromAmount - order.completedAmount),\n      \"Amount is either 0 or greater than the one available\"\n    );\n    require(order.allowPartial || amount == order.fromAmount, \"Order does not allow partial buyout\");\n\n    uint payoffAmount = order.toAmount * order.fromAmount * amount / 10**4;\n\n    require(\n      order.to.allowance(_msgSender(), address(this)) >= payoffAmount,\n      \"Marketplace not allowed to spend desired amount of tokens\"\n    );\n\n    // Effect\n    orders[orderId].completedAmount += amount;\n    orders[orderId].status = order.completedAmount == order.fromAmount\n      ? IOrder.Status.Completed\n      : IOrder.Status.PartiallyCompleted;\n    ordersStats[orders[orderId].status]++;\n\n    // Interaction\n    order.to.safeTransferFrom(_msgSender(), order.owner, payoffAmount);\n    order.from.safeTransferFrom(order.owner, wallet, amount);\n\n    _reward(wallet);\n    emit OrderUpdated(orderId, oldStatus, orders[orderId].status);\n    return true;\n  }\n\n  /**\n   * @dev Update closed order reward\n   */\n  function updateReward(IToken _token, uint _reward) public onlyOwner {\n    require(address(_token) != address(0), \"Invalid token address\");\n    require(_token.hasRole(MINTER_ROLE, address(this)), \"Marketplace is not a minter\");\n\n    token = _token;\n    reward = _reward;\n\n    emit RewardUpdated(_token, _reward, _msgSender());\n  }\n\n  /**\n   * @dev Blacklist a token\n   */\n  function blacklistToken(IERC20 _token, bool state) public onlyOwner {\n    blacklistedTokens[_token] = state;\n\n    if (state) {\n      blacklistedTokensCount++;\n      emit BlacklistedToken(_token, _msgSender());\n    } else {\n      blacklistedTokensCount--;\n      emit UnblacklistedToken(_token, _msgSender());\n    }\n  }\n\n  /**\n   * @dev transfer reward for a closed order\n   */\n  function _reward(address receiver) internal {\n    if (reward > 0) {\n      token.mint(receiver, reward);\n      rewardsCount++;\n      rewardsValue += reward;\n      emit Reward(receiver, reward);\n    }\n  }\n\n  /**\n   * @dev This function is called for all messages sent to\n   * this contract, except plain Ether transfers\n   * (there is no other function except the receive function).\n   * Any call with non-empty calldata to this contract will execute\n   * the fallback function (even if Ether is sent along with the call).\n   */\n  fallback() external payable {\n    treasury.transfer(msg.value);\n    emit Donated(_msgSender(), msg.value);\n  }\n\n  /**\n   * @dev This function is called for plain Ether transfers, i.e.\n   * for every call with empty calldata.\n   */\n  receive() external payable {\n    treasury.transfer(msg.value);\n    emit Donated(_msgSender(), msg.value);\n  }\n}\n",
  "sourcePath": "/home/alex/Projects/erc.money-app/contracts/Marketplace.sol",
  "compiler": {
    "name": "solc",
    "version": "0.6.12+commit.27d51765.Emscripten.clang"
  },
  "schemaVersion": "3.3.1",
  "updatedAt": "2020-11-10T20:57:51.201Z",
  "networkType": "ethereum",
  "devdoc": {
    "events": {
      "BlacklistedToken(address,address)": {
        "details": "Emitted when a `token` gets blacklisted by `who`."
      },
      "Donated(address,uint256)": {
        "details": "Emitted when the donation of `value` received from `account`."
      },
      "OrderCreated(uint256)": {
        "details": "Order updated"
      },
      "OrderUpdated(uint256,uint8,uint8)": {
        "details": "Order updated"
      },
      "Reward(address,uint256)": {
        "details": "Emitted when `receiver` rewarded with `reward` amount of tokens."
      },
      "RewardUpdated(address,uint256,address)": {
        "details": "Emitted when reward `token` and a `reward` amount apecified by `who`."
      },
      "UnblacklistedToken(address,address)": {
        "details": "Emitted when a `token` gets un-blacklisted by `who`."
      }
    },
    "kind": "dev",
    "methods": {
      "blacklistToken(address,bool)": {
        "details": "Blacklist a token"
      },
      "owner()": {
        "details": "Returns the address of the current owner."
      },
      "paused()": {
        "details": "Returns true if the contract is paused, and false otherwise."
      },
      "renounceOwnership()": {
        "details": "Leaves the contract without owner. It will not be possible to call `onlyOwner` functions anymore. Can only be called by the current owner. NOTE: Renouncing ownership will leave the contract without an owner, thereby removing any functionality that is only available to the owner."
      },
      "transferOwnership(address)": {
        "details": "Transfers ownership of the contract to a new account (`newOwner`). Can only be called by the current owner."
      },
      "updateReward(address,uint256)": {
        "details": "Update closed order reward"
      }
    },
    "version": 1
  },
  "userdoc": {
    "kind": "user",
    "methods": {},
    "version": 1
  }
}