{
  "contractName": "Marketplace",
  "abi": [
    {
      "inputs": [
        {
          "internalType": "address",
          "name": "_owner",
          "type": "address"
        },
        {
          "internalType": "address payable",
          "name": "_treasury",
          "type": "address"
        }
      ],
      "stateMutability": "nonpayable",
      "type": "constructor"
    },
    {
      "anonymous": false,
      "inputs": [
        {
          "indexed": false,
          "internalType": "contract IToken",
          "name": "token",
          "type": "address"
        },
        {
          "indexed": false,
          "internalType": "address",
          "name": "who",
          "type": "address"
        }
      ],
      "name": "BlacklistedToken",
      "type": "event"
    },
    {
      "anonymous": false,
      "inputs": [
        {
          "indexed": false,
          "internalType": "address",
          "name": "account",
          "type": "address"
        },
        {
          "indexed": false,
          "internalType": "uint256",
          "name": "value",
          "type": "uint256"
        }
      ],
      "name": "Donated",
      "type": "event"
    },
    {
      "anonymous": false,
      "inputs": [
        {
          "indexed": false,
          "internalType": "uint256",
          "name": "orderId",
          "type": "uint256"
        }
      ],
      "name": "OrderCreated",
      "type": "event"
    },
    {
      "anonymous": false,
      "inputs": [
        {
          "indexed": false,
          "internalType": "uint256",
          "name": "orderId",
          "type": "uint256"
        },
        {
          "indexed": false,
          "internalType": "enum IOrder.Status",
          "name": "fromStatus",
          "type": "uint8"
        },
        {
          "indexed": false,
          "internalType": "enum IOrder.Status",
          "name": "toStatus",
          "type": "uint8"
        }
      ],
      "name": "OrderUpdated",
      "type": "event"
    },
    {
      "anonymous": false,
      "inputs": [
        {
          "indexed": true,
          "internalType": "address",
          "name": "previousOwner",
          "type": "address"
        },
        {
          "indexed": true,
          "internalType": "address",
          "name": "newOwner",
          "type": "address"
        }
      ],
      "name": "OwnershipTransferred",
      "type": "event"
    },
    {
      "anonymous": false,
      "inputs": [
        {
          "indexed": false,
          "internalType": "address",
          "name": "account",
          "type": "address"
        }
      ],
      "name": "Paused",
      "type": "event"
    },
    {
      "anonymous": false,
      "inputs": [
        {
          "indexed": false,
          "internalType": "address",
          "name": "receiver",
          "type": "address"
        },
        {
          "indexed": false,
          "internalType": "uint256",
          "name": "reward",
          "type": "uint256"
        }
      ],
      "name": "Reward",
      "type": "event"
    },
    {
      "anonymous": false,
      "inputs": [
        {
          "indexed": false,
          "internalType": "contract IToken",
          "name": "token",
          "type": "address"
        },
        {
          "indexed": false,
          "internalType": "uint256",
          "name": "reward",
          "type": "uint256"
        },
        {
          "indexed": false,
          "internalType": "address",
          "name": "who",
          "type": "address"
        }
      ],
      "name": "RewardUpdated",
      "type": "event"
    },
    {
      "anonymous": false,
      "inputs": [
        {
          "indexed": false,
          "internalType": "contract IToken",
          "name": "token",
          "type": "address"
        },
        {
          "indexed": false,
          "internalType": "address",
          "name": "who",
          "type": "address"
        }
      ],
      "name": "UnblacklistedToken",
      "type": "event"
    },
    {
      "anonymous": false,
      "inputs": [
        {
          "indexed": false,
          "internalType": "address",
          "name": "account",
          "type": "address"
        }
      ],
      "name": "Unpaused",
      "type": "event"
    },
    {
      "stateMutability": "payable",
      "type": "fallback",
      "payable": true
    },
    {
      "inputs": [],
      "name": "MINTER_ROLE",
      "outputs": [
        {
          "internalType": "bytes32",
          "name": "",
          "type": "bytes32"
        }
      ],
      "stateMutability": "view",
      "type": "function",
      "constant": true
    },
    {
      "inputs": [],
      "name": "blacklistedTokensCount",
      "outputs": [
        {
          "internalType": "uint256",
          "name": "",
          "type": "uint256"
        }
      ],
      "stateMutability": "view",
      "type": "function",
      "constant": true
    },
    {
      "inputs": [],
      "name": "lastOrderId",
      "outputs": [
        {
          "internalType": "uint256",
          "name": "",
          "type": "uint256"
        }
      ],
      "stateMutability": "view",
      "type": "function",
      "constant": true
    },
    {
      "inputs": [],
      "name": "owner",
      "outputs": [
        {
          "internalType": "address",
          "name": "",
          "type": "address"
        }
      ],
      "stateMutability": "view",
      "type": "function",
      "constant": true
    },
    {
      "inputs": [],
      "name": "paused",
      "outputs": [
        {
          "internalType": "bool",
          "name": "",
          "type": "bool"
        }
      ],
      "stateMutability": "view",
      "type": "function",
      "constant": true
    },
    {
      "inputs": [],
      "name": "renounceOwnership",
      "outputs": [],
      "stateMutability": "nonpayable",
      "type": "function"
    },
    {
      "inputs": [],
      "name": "reward",
      "outputs": [
        {
          "internalType": "uint256",
          "name": "",
          "type": "uint256"
        }
      ],
      "stateMutability": "view",
      "type": "function",
      "constant": true
    },
    {
      "inputs": [],
      "name": "rewardsCount",
      "outputs": [
        {
          "internalType": "uint256",
          "name": "",
          "type": "uint256"
        }
      ],
      "stateMutability": "view",
      "type": "function",
      "constant": true
    },
    {
      "inputs": [],
      "name": "rewardsValue",
      "outputs": [
        {
          "internalType": "uint256",
          "name": "",
          "type": "uint256"
        }
      ],
      "stateMutability": "view",
      "type": "function",
      "constant": true
    },
    {
      "inputs": [],
      "name": "token",
      "outputs": [
        {
          "internalType": "contract IToken",
          "name": "",
          "type": "address"
        }
      ],
      "stateMutability": "view",
      "type": "function",
      "constant": true
    },
    {
      "inputs": [
        {
          "internalType": "address",
          "name": "newOwner",
          "type": "address"
        }
      ],
      "name": "transferOwnership",
      "outputs": [],
      "stateMutability": "nonpayable",
      "type": "function"
    },
    {
      "inputs": [],
      "name": "treasury",
      "outputs": [
        {
          "internalType": "address payable",
          "name": "",
          "type": "address"
        }
      ],
      "stateMutability": "view",
      "type": "function",
      "constant": true
    },
    {
      "stateMutability": "payable",
      "type": "receive",
      "payable": true
    },
    {
      "inputs": [
        {
          "internalType": "uint256",
          "name": "orderId",
          "type": "uint256"
        }
      ],
      "name": "orderExists",
      "outputs": [
        {
          "internalType": "bool",
          "name": "",
          "type": "bool"
        }
      ],
      "stateMutability": "view",
      "type": "function",
      "constant": true
    },
    {
      "inputs": [
        {
          "internalType": "uint256",
          "name": "orderId",
          "type": "uint256"
        }
      ],
      "name": "getOrder",
      "outputs": [
        {
          "components": [
            {
              "internalType": "contract IToken",
              "name": "from",
              "type": "address"
            },
            {
              "internalType": "uint256",
              "name": "fromAmount",
              "type": "uint256"
            },
            {
              "internalType": "contract IToken",
              "name": "to",
              "type": "address"
            },
            {
              "internalType": "uint256",
              "name": "toAmount",
              "type": "uint256"
            },
            {
              "internalType": "string",
              "name": "fromSymbol",
              "type": "string"
            },
            {
              "internalType": "uint256",
              "name": "fromDecimals",
              "type": "uint256"
            },
            {
              "internalType": "string",
              "name": "toSymbol",
              "type": "string"
            },
            {
              "internalType": "uint256",
              "name": "toDecimals",
              "type": "uint256"
            },
            {
              "internalType": "address",
              "name": "owner",
              "type": "address"
            },
            {
              "internalType": "bool",
              "name": "allowPartial",
              "type": "bool"
            },
            {
              "internalType": "uint256",
              "name": "id",
              "type": "uint256"
            },
            {
              "internalType": "bool",
              "name": "transacting",
              "type": "bool"
            },
            {
              "internalType": "enum IOrder.Status",
              "name": "status",
              "type": "uint8"
            },
            {
              "internalType": "uint256",
              "name": "completedAmount",
              "type": "uint256"
            }
          ],
          "internalType": "struct IOrder.Order",
          "name": "order",
          "type": "tuple"
        }
      ],
      "stateMutability": "view",
      "type": "function",
      "constant": true
    },
    {
      "inputs": [
        {
          "internalType": "uint256",
          "name": "orderId",
          "type": "uint256"
        }
      ],
      "name": "isOrderActive",
      "outputs": [
        {
          "internalType": "bool",
          "name": "",
          "type": "bool"
        }
      ],
      "stateMutability": "view",
      "type": "function",
      "constant": true
    },
    {
      "inputs": [
        {
          "internalType": "contract IToken",
          "name": "_token",
          "type": "address"
        }
      ],
      "name": "isTokenBlacklisted",
      "outputs": [
        {
          "internalType": "bool",
          "name": "",
          "type": "bool"
        }
      ],
      "stateMutability": "view",
      "type": "function",
      "constant": true
    },
    {
      "inputs": [
        {
          "internalType": "enum IOrder.Status",
          "name": "status",
          "type": "uint8"
        }
      ],
      "name": "stats",
      "outputs": [
        {
          "internalType": "uint256",
          "name": "",
          "type": "uint256"
        }
      ],
      "stateMutability": "view",
      "type": "function",
      "constant": true
    },
    {
      "inputs": [
        {
          "internalType": "address",
          "name": "user",
          "type": "address"
        }
      ],
      "name": "listActiveUserOrders",
      "outputs": [
        {
          "components": [
            {
              "internalType": "contract IToken",
              "name": "from",
              "type": "address"
            },
            {
              "internalType": "uint256",
              "name": "fromAmount",
              "type": "uint256"
            },
            {
              "internalType": "contract IToken",
              "name": "to",
              "type": "address"
            },
            {
              "internalType": "uint256",
              "name": "toAmount",
              "type": "uint256"
            },
            {
              "internalType": "string",
              "name": "fromSymbol",
              "type": "string"
            },
            {
              "internalType": "uint256",
              "name": "fromDecimals",
              "type": "uint256"
            },
            {
              "internalType": "string",
              "name": "toSymbol",
              "type": "string"
            },
            {
              "internalType": "uint256",
              "name": "toDecimals",
              "type": "uint256"
            },
            {
              "internalType": "address",
              "name": "owner",
              "type": "address"
            },
            {
              "internalType": "bool",
              "name": "allowPartial",
              "type": "bool"
            },
            {
              "internalType": "uint256",
              "name": "id",
              "type": "uint256"
            },
            {
              "internalType": "bool",
              "name": "transacting",
              "type": "bool"
            },
            {
              "internalType": "enum IOrder.Status",
              "name": "status",
              "type": "uint8"
            },
            {
              "internalType": "uint256",
              "name": "completedAmount",
              "type": "uint256"
            }
          ],
          "internalType": "struct IOrder.Order[]",
          "name": "userOrders",
          "type": "tuple[]"
        }
      ],
      "stateMutability": "view",
      "type": "function",
      "constant": true
    },
    {
      "inputs": [
        {
          "internalType": "uint256",
          "name": "offset",
          "type": "uint256"
        },
        {
          "internalType": "uint256",
          "name": "size",
          "type": "uint256"
        },
        {
          "internalType": "bool",
          "name": "listOnlyActive",
          "type": "bool"
        }
      ],
      "name": "listOrders",
      "outputs": [
        {
          "components": [
            {
              "internalType": "contract IToken",
              "name": "from",
              "type": "address"
            },
            {
              "internalType": "uint256",
              "name": "fromAmount",
              "type": "uint256"
            },
            {
              "internalType": "contract IToken",
              "name": "to",
              "type": "address"
            },
            {
              "internalType": "uint256",
              "name": "toAmount",
              "type": "uint256"
            },
            {
              "internalType": "string",
              "name": "fromSymbol",
              "type": "string"
            },
            {
              "internalType": "uint256",
              "name": "fromDecimals",
              "type": "uint256"
            },
            {
              "internalType": "string",
              "name": "toSymbol",
              "type": "string"
            },
            {
              "internalType": "uint256",
              "name": "toDecimals",
              "type": "uint256"
            },
            {
              "internalType": "address",
              "name": "owner",
              "type": "address"
            },
            {
              "internalType": "bool",
              "name": "allowPartial",
              "type": "bool"
            },
            {
              "internalType": "uint256",
              "name": "id",
              "type": "uint256"
            },
            {
              "internalType": "bool",
              "name": "transacting",
              "type": "bool"
            },
            {
              "internalType": "enum IOrder.Status",
              "name": "status",
              "type": "uint8"
            },
            {
              "internalType": "uint256",
              "name": "completedAmount",
              "type": "uint256"
            }
          ],
          "internalType": "struct IOrder.Order[]",
          "name": "page",
          "type": "tuple[]"
        },
        {
          "internalType": "uint256",
          "name": "newOffset",
          "type": "uint256"
        },
        {
          "internalType": "uint256",
          "name": "entries",
          "type": "uint256"
        }
      ],
      "stateMutability": "view",
      "type": "function",
      "constant": true
    },
    {
      "inputs": [
        {
          "internalType": "uint256",
          "name": "orderId",
          "type": "uint256"
        },
        {
          "internalType": "uint256",
          "name": "amount",
          "type": "uint256"
        }
      ],
      "name": "orderPayoffAmount",
      "outputs": [
        {
          "internalType": "uint256",
          "name": "payoffAmount",
          "type": "uint256"
        }
      ],
      "stateMutability": "view",
      "type": "function",
      "constant": true
    },
    {
      "inputs": [
        {
          "internalType": "contract IToken",
          "name": "from",
          "type": "address"
        },
        {
          "internalType": "uint256",
          "name": "fromAmount",
          "type": "uint256"
        },
        {
          "internalType": "contract IToken",
          "name": "to",
          "type": "address"
        },
        {
          "internalType": "uint256",
          "name": "toAmount",
          "type": "uint256"
        },
        {
          "internalType": "bool",
          "name": "allowPartial",
          "type": "bool"
        }
      ],
      "name": "createOrder",
      "outputs": [
        {
          "internalType": "uint256",
          "name": "orderId",
          "type": "uint256"
        }
      ],
      "stateMutability": "nonpayable",
      "type": "function"
    },
    {
      "inputs": [
        {
          "internalType": "uint256",
          "name": "orderId",
          "type": "uint256"
        }
      ],
      "name": "closeOrder",
      "outputs": [
        {
          "internalType": "bool",
          "name": "",
          "type": "bool"
        }
      ],
      "stateMutability": "nonpayable",
      "type": "function"
    },
    {
      "inputs": [
        {
          "internalType": "uint256",
          "name": "orderId",
          "type": "uint256"
        },
        {
          "internalType": "uint256",
          "name": "amount",
          "type": "uint256"
        },
        {
          "internalType": "address",
          "name": "wallet",
          "type": "address"
        }
      ],
      "name": "claimOrder",
      "outputs": [
        {
          "internalType": "bool",
          "name": "",
          "type": "bool"
        }
      ],
      "stateMutability": "nonpayable",
      "type": "function"
    },
    {
      "inputs": [
        {
          "internalType": "contract IToken",
          "name": "_token",
          "type": "address"
        },
        {
          "internalType": "uint256",
          "name": "_reward",
          "type": "uint256"
        }
      ],
      "name": "updateReward",
      "outputs": [],
      "stateMutability": "nonpayable",
      "type": "function"
    },
    {
      "inputs": [
        {
          "internalType": "contract IToken",
          "name": "_token",
          "type": "address"
        },
        {
          "internalType": "bool",
          "name": "state",
          "type": "bool"
        }
      ],
      "name": "blacklistToken",
      "outputs": [],
      "stateMutability": "nonpayable",
      "type": "function"
    }
  ],
  "bytecode": "0x60806040523480156200001157600080fd5b506040516200366738038062003667833981016040819052620000349162000246565b60006200004964010000000062000158810204565b60008054600160a060020a031916600160a060020a03831690811782556040519293509160008051602062003647833981519152908290a3506000805460a060020a60ff0219169055600160a060020a038116620000de576040517f08c379a0000000000000000000000000000000000000000000000000000000008152600401620000d590620002e1565b60405180910390fd5b600160a060020a03821662000121576040517f08c379a0000000000000000000000000000000000000000000000000000000008152600401620000d59062000318565b60018054600160a060020a031916600160a060020a03831617905562000150826401000000006200015c810204565b50506200039d565b3390565b6200016f64010000000062000158810204565b600054600160a060020a03908116911614620001b9576040517f08c379a0000000000000000000000000000000000000000000000000000000008152600401620000d5906200034f565b600160a060020a038116620001fc576040517f08c379a0000000000000000000000000000000000000000000000000000000008152600401620000d59062000284565b60008054604051600160a060020a03808516939216916000805160206200364783398151915291a360008054600160a060020a031916600160a060020a0392909216919091179055565b6000806040838503121562000259578182fd5b8251620002668162000384565b6020840151909250620002798162000384565b809150509250929050565b60208082526026908201527f4f776e61626c653a206e6577206f776e657220697320746865207a65726f206160408201527f6464726573730000000000000000000000000000000000000000000000000000606082015260800190565b6020808252601f908201527f496e76616c69642074726561737572792077616c6c6574206164647265737300604082015260600190565b60208082526015908201527f496e76616c6964206f776e657220616464726573730000000000000000000000604082015260600190565b6020808252818101527f4f776e61626c653a2063616c6c6572206973206e6f7420746865206f776e6572604082015260600190565b600160a060020a03811681146200039a57600080fd5b50565b61329a80620003ad6000396000f3fe60806040526004361061016e5760003560e060020a9004806386317b96116100d5578063c5a5cd691161008e578063d539139311610068578063d5391393146104c0578063d6e43585146104d5578063f2fde38b146104f5578063fc0c546a14610515576101ef565b8063c5a5cd6914610453578063ce9be9ba14610473578063d09ef24114610493576101ef565b806386317b96146103a75780638699a65f146103c75780638da5cb5b146103dc5780639c5bbcf9146103f1578063c028c83814610411578063c4d5d0dd1461043e576101ef565b80633012b94e116101275780633012b94e146102f75780635289ecd7146103175780635662ecc7146103465780635c975abb1461035b57806361d027b314610370578063715018a614610392576101ef565b8063069d6d1c14610228578063121025fe1461025e578063190e4c55146102805780631a399125146102a2578063228cb733146102c25780632ad54a92146102d7576101ef565b366101ef57600154604051600160a060020a03909116903480156108fc02916000818181858888f193505050501580156101ac573d6000803e3d6000fd5b507f2a01595cddf097c90216094025db714da3f4e5bd8877b56ba86a24ecead8e5436101d661052a565b346040516101e5929190612ad7565b60405180910390a1005b600154604051600160a060020a03909116903480156108fc02916000818181858888f193505050501580156101ac573d6000803e3d6000fd5b34801561023457600080fd5b50610248610243366004612842565b61052e565b6040516102559190612b4c565b60405180910390f35b34801561026a57600080fd5b506102736106ad565b6040516102559190612b57565b34801561028c57600080fd5b506102a061029b3660046126c7565b6106b3565b005b3480156102ae57600080fd5b506102a06102bd3660046126ff565b6107b5565b3480156102ce57600080fd5b50610273610955565b3480156102e357600080fd5b506102736102f236600461272a565b61095b565b34801561030357600080fd5b50610248610312366004612893565b611203565b34801561032357600080fd5b506103376103323660046128cb565b61149c565b60405161025593929190612b27565b34801561035257600080fd5b5061027361177e565b34801561036757600080fd5b50610248611784565b34801561037c57600080fd5b50610385611794565b6040516102559190612aa9565b34801561039e57600080fd5b506102a06117a3565b3480156103b357600080fd5b506102486103c2366004612842565b611832565b3480156103d357600080fd5b5061027361184c565b3480156103e857600080fd5b50610385611852565b3480156103fd57600080fd5b5061027361040c366004612788565b611861565b34801561041d57600080fd5b5061043161042c36600461268f565b611894565b6040516102559190612b14565b34801561044a57600080fd5b50610273611b5d565b34801561045f57600080fd5b5061027361046e366004612872565b611b63565b34801561047f57600080fd5b5061024861048e36600461268f565b611c05565b34801561049f57600080fd5b506104b36104ae366004612842565b611c23565b60405161025591906131cc565b3480156104cc57600080fd5b50610273611e27565b3480156104e157600080fd5b506102486104f0366004612842565b611e4b565b34801561050157600080fd5b506102a061051036600461268f565b611ea5565b34801561052157600080fd5b50610385611f6e565b3390565b6000818152600760205260408120600a0154829060ff161561056e5760405160e560020a62461bcd02815260040161056590612ec8565b60405180910390fd5b600081815260076020526040808220600a01805460ff1916600117905584825290206009015483906105b55760405160e560020a62461bcd02815260040161056590612f91565b60026000828152600760205260409020600a0154610100900460ff1660038111156105dc57fe5b1415801561060f575060036000828152600760205260409020600a0154610100900460ff16600381111561060c57fe5b14155b61062e5760405160e560020a62461bcd02815260040161056590612c41565b61063661052a565b600085815260076020526040902060080154600160a060020a039081169116146106755760405160e560020a62461bcd02815260040161056590612e6b565b600084815260076020526040902061068e906003611f7d565b506000908152600760205260409020600a01805460ff19169055919050565b600a5481565b6106bb61052a565b600054600160a060020a039081169116146106eb5760405160e560020a62461bcd02815260040161056590612eff565b600160a060020a0382166000908152600b60205260409020805460ff1916821580159190911790915561076657600a805460010190557fb0dff05d63bda79ce2b542fd08755b28bc58bca10a39883608bb71f687edfdf78261074b61052a565b604051610759929190612abd565b60405180910390a16107b1565b600a80546000190190557f51ebcd2e6a7592e9883b86a58bb3dcaeb7aa87e0475fb26ff0a1eadba26dcfe48261079a61052a565b6040516107a8929190612abd565b60405180910390a15b5050565b6107bd61052a565b600054600160a060020a039081169116146107ed5760405160e560020a62461bcd02815260040161056590612eff565b600160a060020a0382166108165760405160e560020a62461bcd02815260040161056590613093565b6040517f91d14854000000000000000000000000000000000000000000000000000000008152600160a060020a038316906391d148549061087d907f9f2df0fed2c77648de5860a4cc508cd0818c85b8b8a1ab4ceeef8d981c8956a6903090600401612b60565b602060405180830381600087803b15801561089757600080fd5b505af11580156108ab573d6000803e3d6000fd5b505050506040513d601f19601f820116820180604052508101906108cf91906126ab565b6108ee5760405160e560020a62461bcd02815260040161056590612c0a565b6002805473ffffffffffffffffffffffffffffffffffffffff1916600160a060020a03841617905560038190557fc8d71d1dc9e781ced39e0ea7e9acc09b0a1a07e73daf21d78f651b2e4a37c52e828261094661052a565b6040516107a893929190612b77565b60035481565b6000805460a060020a900460ff16156109895760405160e560020a62461bcd02815260040161056590612e34565b8561099381611c05565b156109b35760405160e560020a62461bcd02815260040161056590612dfd565b846109bd81611c05565b156109dd5760405160e560020a62461bcd02815260040161056590612dfd565b6000871180156109ed5750600085115b610a0c5760405160e560020a62461bcd02815260040161056590612cfb565b85600160a060020a031688600160a060020a03161415610a415760405160e560020a62461bcd02815260040161056590612fc8565b600160a060020a038816610a6a5760405160e560020a62461bcd02815260040161056590612d69565b600160a060020a038616610a935760405160e560020a62461bcd02815260040161056590613127565b600088600160a060020a03166395d89b416040518163ffffffff1660e060020a028152600401600060405180830381600087803b158015610ad357600080fd5b505af1158015610ae7573d6000803e3d6000fd5b505050506040513d6000823e601f3d908101601f19168201604052610b0f91908101906127a7565b51118015610b925750600088600160a060020a031663313ce5676040518163ffffffff1660e060020a028152600401602060405180830381600087803b158015610b5857600080fd5b505af1158015610b6c573d6000803e3d6000fd5b505050506040513d601f19601f82011682018060405250810190610b90919061285a565b115b610bb15760405160e560020a62461bcd02815260040161056590613195565b600086600160a060020a03166395d89b416040518163ffffffff1660e060020a028152600401600060405180830381600087803b158015610bf157600080fd5b505af1158015610c05573d6000803e3d6000fd5b505050506040513d6000823e601f3d908101601f19168201604052610c2d91908101906127a7565b51118015610cb05750600086600160a060020a031663313ce5676040518163ffffffff1660e060020a028152600401602060405180830381600087803b158015610c7657600080fd5b505af1158015610c8a573d6000803e3d6000fd5b505050506040513d601f19601f82011682018060405250810190610cae919061285a565b115b610ccf5760405160e560020a62461bcd02815260040161056590612d32565b8688600160a060020a031663dd62ed3e610ce761052a565b306040518363ffffffff1660e060020a028152600401610d08929190612abd565b60206040518083038186803b158015610d2057600080fd5b505afa158015610d34573d6000803e3d6000fd5b505050506040513d601f19601f82011682018060405250810190610d58919061285a565b1015610d795760405160e560020a62461bcd02815260040161056590613036565b6006600081546001019190508190559250604051806101c0016040528089600160a060020a0316815260200188815260200187600160a060020a0316815260200186815260200189600160a060020a03166395d89b416040518163ffffffff1660e060020a028152600401600060405180830381600087803b158015610dfe57600080fd5b505af1158015610e12573d6000803e3d6000fd5b505050506040513d6000823e601f3d908101601f19168201604052610e3a91908101906127a7565b815260200189600160a060020a031663313ce5676040518163ffffffff1660e060020a028152600401602060405180830381600087803b158015610e7d57600080fd5b505af1158015610e91573d6000803e3d6000fd5b505050506040513d601f19601f82011682018060405250810190610eb5919061285a565b815260200187600160a060020a03166395d89b416040518163ffffffff1660e060020a028152600401600060405180830381600087803b158015610ef857600080fd5b505af1158015610f0c573d6000803e3d6000fd5b505050506040513d6000823e601f3d908101601f19168201604052610f3491908101906127a7565b815260200187600160a060020a031663313ce5676040518163ffffffff1660e060020a028152600401602060405180830381600087803b158015610f7757600080fd5b505af1158015610f8b573d6000803e3d6000fd5b505050506040513d601f19601f82011682018060405250810190610faf919061285a565b8152602001610fbc61052a565b600160a060020a03168152851515602082015260408101859052600060608201819052608090910190815260006020918201819052858152600782526040908190208351815473ffffffffffffffffffffffffffffffffffffffff19908116600160a060020a03928316178355858501516001840155928501516002830180549094169116179091556060830151600382015560808301518051919261106a92600485019290910190612589565b5060a0820151600582015560c08201518051611090916006840191602090910190612589565b5060e082015160078201556101008083015160088301805461012086015173ffffffffffffffffffffffffffffffffffffffff19909116600160a060020a039093169290921774ff0000000000000000000000000000000000000000191660a060020a921515929092029190911790556101408301516009830155610160830151600a8301805460ff1916911515919091178082556101808501519261ff00199091169083600381111561114057fe5b02179055506101a09190910151600b90910155600080805260096020527fec8156718a8372b1db44bb411437d0870f3e3790d4a08526d024ce1b0b668f6b8054600101905560089061119061052a565b600160a060020a03168152602080820192909252604090810160009081208054600181018255908252929020909101849055517f7e82078c35b6665b9d320ebeaa6c266960fad5b802c5558cf7df60c4769af95b906111f0908590612b57565b60405180910390a1505095945050505050565b6000805460a060020a900460ff16156112315760405160e560020a62461bcd02815260040161056590612e34565b6000848152600760205260409020600a0154849060ff16156112685760405160e560020a62461bcd02815260040161056590612ec8565b600081815260076020526040808220600a01805460ff1916600117905586825290206009015485906112af5760405160e560020a62461bcd02815260040161056590612f91565b60026000828152600760205260409020600a0154610100900460ff1660038111156112d657fe5b14158015611309575060036000828152600760205260409020600a0154610100900460ff16600381111561130657fe5b14155b6113285760405160e560020a62461bcd02815260040161056590612c41565b6000868152600760205260408120906113418888611b63565b90506000826001015483600b01541461135b57600161135e565b60025b60028401549091508290600160a060020a031663dd62ed3e61137e61052a565b306040518363ffffffff1660e060020a02815260040161139f929190612abd565b60206040518083038186803b1580156113b757600080fd5b505afa1580156113cb573d6000803e3d6000fd5b505050506040513d601f19601f820116820180604052508101906113ef919061285a565b10156114105760405160e560020a62461bcd02815260040161056590613036565b600b83018054890190556114248382611f7d565b61144d61142f61052a565b60088501546002860154600160a060020a03908116929116856120ba565b6008830154835461146c91600160a060020a039182169116898b6120ba565b61147587612148565b505050600091825250600760205260409020600a01805460ff191690555060019392505050565b606060008060648511156114c55760405160e560020a62461bcd0281526004016105659061315e565b8467ffffffffffffffff811180156114dc57600080fd5b5060405190808252806020026020018201604052801561151657816020015b611503612607565b8152602001906001900390816114fb5790505b50925060005b85811015611774576006548782019081106115375750611774565b60065481900386158061154e575061154e81611e4b565b1561176a5760008181526007602090815260409182902082516101c0810184528154600160a060020a039081168252600180840154838601526002808501549092168387015260038401546060840152600484018054875161010082851615026000190190911693909304601f81018790048702840187019097528683528188019b50990198919492936080860193919291908301828280156116325780601f1061160757610100808354040283529160200191611632565b820191906000526020600020905b81548152906001019060200180831161161557829003601f168201915b5050509183525050600582015460208083019190915260068301805460408051601f600260001961010060018716150201909416939093049283018590048502810185018252828152940193928301828280156116d05780601f106116a5576101008083540402835291602001916116d0565b820191906000526020600020905b8154815290600101906020018083116116b357829003601f168201915b5050509183525050600782015460208201526008820154600160a060020a038116604083015260ff60a060020a90910481161515606083015260098301546080830152600a830154808216151560a084015260c090920191610100900416600381111561173957fe5b600381111561174457fe5b8152602001600b8201548152505086848151811061175e57fe5b60200260200101819052505b505060010161151c565b5093509350939050565b60065481565b60005460a060020a900460ff1690565b600154600160a060020a031681565b6117ab61052a565b600054600160a060020a039081169116146117db5760405160e560020a62461bcd02815260040161056590612eff565b60008054604051600160a060020a03909116907f8be0079c531659141344cd1fd0a4f28419497f9722a3daafe3b4186f6b6457e0908390a36000805473ffffffffffffffffffffffffffffffffffffffff19169055565b60008181526007602052604090206009015415155b919050565b60045481565b600054600160a060020a031690565b60006009600083600381111561187357fe5b600381111561187e57fe5b8152602001908152602001600020549050919050565b600160a060020a0381166000908152600860205260409020546060908067ffffffffffffffff811180156118c757600080fd5b5060405190808252806020026020018201604052801561190157816020015b6118ee612607565b8152602001906001900390816118e65790505b50915060005b81811015611b5657600160a060020a038416600090815260086020526040812080548390811061193357fe5b6000918252602080832091909101548083526007825260409283902083516101c0810185528154600160a060020a03908116825260018084015483870152600280850154909216838801526003840154606084015260048401805488516101009382161593909302600019011692909204601f81018790048702820187019097528681529396509094919360808601939290830182828015611a165780601f106119eb57610100808354040283529160200191611a16565b820191906000526020600020905b8154815290600101906020018083116119f957829003601f168201915b5050509183525050600582015460208083019190915260068301805460408051601f60026000196101006001871615020190941693909304928301859004850281018501825282815294019392830182828015611ab45780601f10611a8957610100808354040283529160200191611ab4565b820191906000526020600020905b815481529060010190602001808311611a9757829003601f168201915b5050509183525050600782015460208201526008820154600160a060020a038116604083015260ff60a060020a90910481161515606083015260098301546080830152600a830154808216151560a084015260c0909201916101009004166003811115611b1d57fe5b6003811115611b2857fe5b8152602001600b82015481525050848381518110611b4257fe5b602090810291909101015250600101611907565b5050919050565b60055481565b60008281526007602052604081208215801590611b8a575080600b01548160010154038311155b611ba95760405160e560020a62461bcd02815260040161056590612bad565b600881015460a060020a900460ff1680611bc65750806001015483145b611be55760405160e560020a62461bcd02815260040161056590612da0565b8060010154612710028382600301540281611bfc57fe5b04949350505050565b600160a060020a03166000908152600b602052604090205460ff1690565b611c2b612607565b60008281526007602090815260409182902082516101c0810184528154600160a060020a03908116825260018084015483860152600280850154909216838701526003840154606084015260048401805487516101009382161593909302600019011692909204601f810186900486028201860190965285815291949293608086019390830182828015611d005780601f10611cd557610100808354040283529160200191611d00565b820191906000526020600020905b815481529060010190602001808311611ce357829003601f168201915b5050509183525050600582015460208083019190915260068301805460408051601f60026000196101006001871615020190941693909304928301859004850281018501825282815294019392830182828015611d9e5780601f10611d7357610100808354040283529160200191611d9e565b820191906000526020600020905b815481529060010190602001808311611d8157829003601f168201915b5050509183525050600782015460208201526008820154600160a060020a038116604083015260ff60a060020a90910481161515606083015260098301546080830152600a830154808216151560a084015260c0909201916101009004166003811115611e0757fe5b6003811115611e1257fe5b8152602001600b820154815250509050919050565b7f9f2df0fed2c77648de5860a4cc508cd0818c85b8b8a1ab4ceeef8d981c8956a681565b6000818152600760205260408120600a0154610100900460ff16611e6e83611832565b8015611e8657506002816003811115611e8357fe5b14155b8015611e9e57506003816003811115611e9b57fe5b14155b9392505050565b611ead61052a565b600054600160a060020a03908116911614611edd5760405160e560020a62461bcd02815260040161056590612eff565b600160a060020a038116611f065760405160e560020a62461bcd02815260040161056590612c9e565b60008054604051600160a060020a03808516939216917f8be0079c531659141344cd1fd0a4f28419497f9722a3daafe3b4186f6b6457e091a36000805473ffffffffffffffffffffffffffffffffffffffff1916600160a060020a0392909216919091179055565b600254600160a060020a031681565b600a8201805461010080820460ff16928492909161ff001990911690836003811115611fa557fe5b021790555060096000826003811115611fba57fe5b6003811115611fc557fe5b8152602081019190915260400160009081208054600019019055600990836003811115611fee57fe5b6003811115611ff957fe5b8152602081019190915260400160002080546001019055600282600381111561201e57fe5b14806120355750600382600381111561203357fe5b145b1561207657600061205161204761052a565b8560090154612220565b915050806120745760405160e560020a62461bcd02815260040161056590612f34565b505b7fbd63b5282661ee29288057b2d23c1d8f53d1623238e656d3ab0313766e232cfe836009015482846040516120ad939291906131df565b60405180910390a1505050565b612142846323b872dd60e060020a028585856040516024016120de93929190612af0565b60408051601f198184030181529190526020810180517bffffffffffffffffffffffffffffffffffffffffffffffffffffffff167fffffffff000000000000000000000000000000000000000000000000000000009093169290921790915261240b565b50505050565b6003541561221d576002546003546040517f40c10f19000000000000000000000000000000000000000000000000000000008152600160a060020a03909216916340c10f199161219d91859190600401612ad7565b600060405180830381600087803b1580156121b757600080fd5b505af11580156121cb573d6000803e3d6000fd5b5050600480546001019055505060035460058054820190556040517f619caafabdd75649b302ba8419e48cccf64f37f1983ac4727cfb38b57703ffc99161221491849190612ad7565b60405180910390a15b50565b600160a060020a038216600090815260086020526040812054819060011480156122755750600160a060020a0384166000908152600860205260408120805485929061226857fe5b9060005260206000200154145b156122b657600160a060020a038416600090815260086020526040902080548061229b57fe5b60019003818190600052602060002001600090559055612404565b60005b600160a060020a038516600090815260086020526040902054811161232457600160a060020a03851660009081526008602052604090208054859190839081106122ff57fe5b9060005260206000200154141561231c5760019150809250612324565b6001016122b9565b508061232f57612404565b815b600160a060020a038516600090815260086020526040902054600019018110156123cb57600160a060020a038516600090815260086020526040902080546001830190811061237c57fe5b90600052602060002001546008600087600160a060020a0316600160a060020a0316815260200190815260200160002082815481106123b757fe5b600091825260209091200155600101612331565b50600160a060020a03841660009081526008602052604090208054806123ed57fe5b600190038181906000526020600020016000905590555b9250929050565b6060612460826040518060400160405280602081526020017f5361666545524332303a206c6f772d6c6576656c2063616c6c206661696c656481525085600160a060020a03166124a29092919063ffffffff16565b80519091501561249d578080602001905181019061247e91906126ab565b61249d5760405160e560020a62461bcd028152600401610565906130ca565b505050565b60606124b184846000856124b9565b949350505050565b60606124c485612583565b6124e35760405160e560020a62461bcd02815260040161056590612fff565b6000606086600160a060020a031685876040516125009190612a8d565b60006040518083038185875af1925050503d806000811461253d576040519150601f19603f3d011682016040523d82523d6000602084013e612542565b606091505b509150915081156125565791506124b19050565b8051156125665780518082602001fd5b8360405160e560020a62461bcd0281526004016105659190612b9a565b3b151590565b828054600181600116156101000203166002900490600052602060002090601f016020900481019282601f106125ca57805160ff19168380011785556125f7565b828001600101855582156125f7579182015b828111156125f75782518255916020019190600101906125dc565b5061260392915061267a565b5090565b604080516101c08101825260008082526020820181905291810182905260608082018390526080820181905260a0820183905260c082015260e081018290526101008101829052610120810182905261014081018290526101608101829052906101808201908152602001600081525090565b5b80821115612603576000815560010161267b565b6000602082840312156126a0578081fd5b8135611e9e81613241565b6000602082840312156126bc578081fd5b8151611e9e81613256565b600080604083850312156126d9578081fd5b82356126e481613241565b915060208301356126f481613256565b809150509250929050565b60008060408385031215612711578182fd5b823561271c81613241565b946020939093013593505050565b600080600080600060a08688031215612741578081fd5b853561274c81613241565b945060208601359350604086013561276381613241565b925060608601359150608086013561277a81613256565b809150509295509295909350565b600060208284031215612799578081fd5b813560048110611e9e578182fd5b6000602082840312156127b8578081fd5b815167ffffffffffffffff808211156127cf578283fd5b818401915084601f8301126127e2578283fd5b8151818111156127f0578384fd5b604051601f8201601f191681016020018381118282101715612810578586fd5b604052818152838201602001871015612827578485fd5b612838826020830160208701613215565b9695505050505050565b600060208284031215612853578081fd5b5035919050565b60006020828403121561286b578081fd5b5051919050565b60008060408385031215612884578182fd5b50508035926020909101359150565b6000806000606084860312156128a7578283fd5b833592506020840135915060408401356128c081613241565b809150509250925092565b6000806000606084860312156128df578283fd5b833592506020840135915060408401356128c081613256565b600160a060020a03169052565b60008282518085526020808601955080818302840101818601855b8481101561294e57601f1986840301895261293c83835161299b565b98840198925090830190600101612920565b5090979650505050505050565b15159052565b6004811061296b57fe5b9052565b60008151808452612987816020860160208601613215565b601f01601f19169290920160200192915050565b60006101c06129ab8484516128f8565b6020830151602085015260408301516129c760408601826128f8565b506060830151606085015260808301518160808601526129e98286018261296f565b91505060a083015160a085015260c083015184820360c0860152612a0d828261296f565b91505060e083015160e085015261010080840151612a2d828701826128f8565b505061012080840151612a428287018261295b565b5050610140838101519085015261016080840151612a628287018261295b565b505061018080840151612a7782870182612961565b50506101a0928301519390920192909252919050565b60008251612a9f818460208701613215565b9190910192915050565b600160a060020a0391909116815260200190565b600160a060020a0392831681529116602082015260400190565b600160a060020a03929092168252602082015260400190565b600160a060020a039384168152919092166020820152604081019190915260600190565b600060208252611e9e6020830184612905565b600060608252612b3a6060830186612905565b60208301949094525060400152919050565b901515815260200190565b90815260200190565b918252600160a060020a0316602082015260400190565b600160a060020a0393841681526020810192909252909116604082015260600190565b600060208252611e9e602083018461296f565b60208082526034908201527f416d6f756e74206973206569746865722030206f72206772656174657220746860408201527f616e20746865206f6e6520617661696c61626c65000000000000000000000000606082015260800190565b6020808252601b908201527f4d61726b6574706c616365206973206e6f742061206d696e7465720000000000604082015260600190565b60208082526024908201527f4f726465722069732065697468657220636f6d706c65746564206f7220636c6f60408201527f7365642e00000000000000000000000000000000000000000000000000000000606082015260800190565b60208082526026908201527f4f776e61626c653a206e6577206f776e657220697320746865207a65726f206160408201527f6464726573730000000000000000000000000000000000000000000000000000606082015260800190565b60208082526014908201527f416d6f756e74732063616e206e6f742062652030000000000000000000000000604082015260600190565b6020808252601d908201527f546f206973206e6f7420612076616c696420455243323020746f6b656e000000604082015260600190565b60208082526019908201527f546f6b656e202766726f6d272073686f756c6420657869737400000000000000604082015260600190565b60208082526023908201527f4f7264657220646f6573206e6f7420616c6c6f77207061727469616c2062757960408201527f6f75740000000000000000000000000000000000000000000000000000000000606082015260800190565b60208082526015908201527f546f6b656e20697320626c61636b6c69737465642e0000000000000000000000604082015260600190565b60208082526010908201527f5061757361626c653a2070617573656400000000000000000000000000000000604082015260600190565b60208082526025908201527f4f72646572207570646174657320616c6c6f776564206279206f726e6572732060408201527f6f6e6c7921000000000000000000000000000000000000000000000000000000606082015260800190565b6020808252601a908201527f5265656e7472616e6379206973206e6f7420616c6c6f7765642e000000000000604082015260600190565b6020808252818101527f4f776e61626c653a2063616c6c6572206973206e6f7420746865206f776e6572604082015260600190565b60208082526032908201527f4f72646572206973206e6f7420666f756e64206173206163746976652e20536860408201527f6f756c64206e657665722068617070656e210000000000000000000000000000606082015260800190565b60208082526015908201527f4f7264657220646f6573206e6f742065786973742e0000000000000000000000604082015260600190565b60208082526019908201527f546f6b656e2063616e206e6f74206265207468652073616d6500000000000000604082015260600190565b6020808252601d908201527f416464726573733a2063616c6c20746f206e6f6e2d636f6e7472616374000000604082015260600190565b60208082526039908201527f4d61726b6574706c616365206e6f7420616c6c6f77656420746f207370656e6460408201527f206465736972656420616d6f756e74206f6620746f6b656e7300000000000000606082015260800190565b60208082526015908201527f496e76616c696420746f6b656e20616464726573730000000000000000000000604082015260600190565b6020808252602a908201527f5361666545524332303a204552433230206f7065726174696f6e20646964206e60408201527f6f74207375636365656400000000000000000000000000000000000000000000606082015260800190565b60208082526017908201527f546f6b656e2027746f272073686f756c64206578697374000000000000000000604082015260600190565b60208082526014908201527f4d617820706167652073697a6520697320313030000000000000000000000000604082015260600190565b6020808252601f908201527f46726f6d206973206e6f7420612076616c696420455243323020746f6b656e00604082015260600190565b600060208252611e9e602083018461299b565b838152606081016131ef8461320a565b60208301526131fd8361320a565b6040830152949350505050565b806004811061184757fe5b60005b83811015613230578181015183820152602001613218565b838111156121425750506000910152565b600160a060020a038116811461221d57600080fd5b801515811461221d57600080fdfea2646970667358221220dedfca4eea2948826cb2ddb12a109d942bf688d6ecff7c90e7290d6480a18a6c64736f6c634300060c00338be0079c531659141344cd1fd0a4f28419497f9722a3daafe3b4186f6b6457e0",
  "immutableReferences": {},
  "source": "// SPDX-License-Identifier: MIT\npragma solidity >=0.6.0 <0.8.0;\npragma experimental ABIEncoderV2;\n\nimport \"@openzeppelin/contracts/token/ERC20/SafeERC20.sol\";\nimport \"@openzeppelin/contracts/access/Ownable.sol\";\nimport \"@openzeppelin/contracts/utils/Pausable.sol\";\nimport \"@openzeppelin/contracts/math/SafeMath.sol\";\nimport \"./IOrder.sol\";\nimport \"./IToken.sol\";\n\ncontract Marketplace is Ownable, Pausable {\n  using SafeMath for uint;\n  using SafeERC20 for IToken;\n\n  bytes32 public constant MINTER_ROLE = keccak256(\"MINTER_ROLE\");\n\n  // @dev treasury wallet to forward donated eth to\n  address payable public treasury;\n\n  // @dev reward token\n  IToken public token;\n\n  // @dev amount tokens to reward for a closed order\n  uint public reward;\n\n  // @dev amount of distributed rewards\n  uint public rewardsCount;\n\n  // @dev value of distributed rewarrds\n  uint public rewardsValue;\n\n  // @dev order if incrementer\n  uint public lastOrderId;\n\n  // @dev orders book\n  mapping (uint => IOrder.Order) orders;\n\n  // @dev active orders of an user\n  mapping (address => uint[]) userActiveOrders;\n\n  mapping (IOrder.Status => uint) ordersStats;\n\n  // @dev blacklisted tokens count\n  uint public blacklistedTokensCount;\n\n  // @dev token addresses that are blacklisted\n  mapping (IToken => bool) blacklistedTokens;\n\n  /**\n   * @dev Emitted when the donation of `value` received from `account`.\n   */\n  event Donated(address account, uint value);\n\n  /**\n   * @dev Emitted when a `token` gets blacklisted by `who`.\n   */\n  event BlacklistedToken(IToken token, address who);\n\n  /**\n   * @dev Emitted when a `token` gets un-blacklisted by `who`.\n   */\n  event UnblacklistedToken(IToken token, address who);\n\n  /**\n   * @dev Emitted when reward `token` and a `reward` amount apecified by `who`.\n   */\n  event RewardUpdated(IToken token, uint reward, address who);\n\n  /**\n   * @dev Emitted when `receiver` rewarded with `reward` amount of tokens.\n   */\n  event Reward(address receiver, uint reward);\n\n  /**\n   * @dev Order updated\n   */\n  event OrderCreated(uint orderId);\n\n  /**\n   * @dev Order updated\n   */\n  event OrderUpdated(uint orderId, IOrder.Status fromStatus, IOrder.Status toStatus);\n\n  /**\n   * @dev check if `token` is not blacklisted\n   */\n  modifier isNotBlacklisted(IToken _token) {\n    require(\n      isTokenBlacklisted(_token) == false,\n      \"Token is blacklisted.\"\n    );\n    _;\n  }\n\n  modifier orderReentrancyGuard(uint orderId) {\n    require(\n      orders[orderId].transacting == false,\n      \"Reentrancy is not allowed.\"\n    );\n    orders[orderId].transacting = true;\n    _;\n    orders[orderId].transacting = false;\n  }\n\n  modifier orderOpen(uint orderId) {\n    require(\n      orders[orderId].id > 0,\n      \"Order does not exist.\"\n    );\n    require(\n      orders[orderId].status != IOrder.Status.Completed\n        && orders[orderId].status != IOrder.Status.Closed,\n      \"Order is either completed or closed.\"\n    );\n    _;\n  }\n\n  constructor(\n    address _owner,\n    address payable _treasury\n  ) public {\n    require(_treasury != address(0), \"Invalid treasury wallet address\");\n    require(_owner != address(0), \"Invalid owner address\");\n\n    treasury = _treasury;\n    transferOwnership(_owner);\n  }\n\n  function orderExists(uint orderId) public view returns (bool) {\n    return orders[orderId].id > 0;\n  }\n\n  function getOrder(uint orderId) public view returns (IOrder.Order memory order) {\n    order = orders[orderId];\n  }\n\n  function isOrderActive(uint orderId) public view returns (bool) {\n    IOrder.Status status = orders[orderId].status;\n\n    return orderExists(orderId)\n      && status != IOrder.Status.Completed\n      && status != IOrder.Status.Closed;\n  }\n\n  function isTokenBlacklisted(IToken _token) public view returns (bool) {\n    return blacklistedTokens[_token];\n  }\n\n  function stats(IOrder.Status status) public view returns (uint) {\n    return ordersStats[status];\n  }\n\n  function listActiveUserOrders(address user) public view\n  returns (IOrder.Order[] memory userOrders){\n    uint count = userActiveOrders[user].length;\n    userOrders = new IOrder.Order[](count);\n\n    for (uint i = 0; i < count; i++) {\n      uint orderId = userActiveOrders[user][i]; \n      userOrders[i] = orders[orderId];\n    }\n  }\n\n  function listOrders(uint offset, uint size, bool listOnlyActive) public view\n  returns (IOrder.Order[] memory page, uint newOffset, uint entries) {\n    require(size <= 100, \"Max page size is 100\");\n    page = new IOrder.Order[](size);\n\n    for (uint i = 0; i < size; i++) {\n      uint y = offset + i;\n\n      if (y >= lastOrderId) {\n        break;\n      }\n\n      uint orderId = lastOrderId - y;\n\n      if (!listOnlyActive || isOrderActive(orderId)) {\n        entries++;\n        newOffset = orderId + 1;\n        page[i] = orders[orderId];\n      }\n    }\n  }\n\n  function orderPayoffAmount(uint orderId, uint amount) public view returns (uint payoffAmount) {\n    IOrder.Order storage order = orders[orderId];\n    require(\n      amount > 0 && amount <= (order.fromAmount - order.completedAmount),\n      \"Amount is either 0 or greater than the one available\"\n    );\n    require(order.allowPartial || amount == order.fromAmount, \"Order does not allow partial buyout\");\n\n    payoffAmount = order.toAmount * amount / (order.fromAmount * (10 ** 4));\n  }\n\n  function createOrder(\n    IToken from,\n    uint fromAmount,\n    IToken to,\n    uint toAmount,\n    bool allowPartial\n  ) public\n  whenNotPaused isNotBlacklisted(from) isNotBlacklisted(to)\n  returns (uint orderId) {\n    require(fromAmount > 0 && toAmount > 0, \"Amounts can not be 0\");\n    require(address(from) != address(to), \"Token can not be the same\");\n    require(address(from) != address(0), \"Token 'from' should exist\");\n    require(address(to) != address(0), \"Token 'to' should exist\");\n    require(bytes(from.symbol()).length > 0 && from.decimals() > 0, \"From is not a valid ERC20 token\");\n    require(bytes(to.symbol()).length > 0 && to.decimals() > 0, \"To is not a valid ERC20 token\");\n    require(\n      from.allowance(_msgSender(), address(this)) >= fromAmount,\n      \"Marketplace not allowed to spend desired amount of tokens\"\n    );\n\n    orderId = ++lastOrderId;\n    orders[orderId] = IOrder.Order(\n      from,\n      fromAmount,\n      to,\n      toAmount,\n      from.symbol(),\n      from.decimals(),\n      to.symbol(),\n      to.decimals(),\n      _msgSender(),\n      allowPartial,\n      orderId, // id\n      false, // transacting\n      IOrder.Status.Open, // status\n      0 // completedAmount\n    );\n    ordersStats[IOrder.Status.Open]++;\n    userActiveOrders[_msgSender()].push(orderId);\n\n    emit OrderCreated(orderId);\n  }\n\n  function closeOrder(uint orderId) public\n  orderReentrancyGuard(orderId) orderOpen(orderId)\n  returns (bool) {\n    require(orders[orderId].owner == _msgSender(), \"Order updates allowed by orners only!\");\n\n    _updateOrder(orders[orderId], IOrder.Status.Closed);\n  }\n\n  function claimOrder(uint orderId, uint amount, address wallet) public\n  whenNotPaused orderReentrancyGuard(orderId) orderOpen(orderId)\n  returns (bool) {\n    IOrder.Order storage order = orders[orderId];\n\n    // require(wallet != order.owner, \"You can not buyback from yourself\");\n    // require(_msgSender() != order.owner, \"You can not trigger buyback from yourself\");\n\n    uint payoffAmount = orderPayoffAmount(orderId, amount);\n    IOrder.Status newStatus = order.completedAmount == order.fromAmount\n      ? IOrder.Status.Completed\n      : IOrder.Status.PartiallyCompleted;\n\n    require(\n      order.to.allowance(_msgSender(), address(this)) >= payoffAmount,\n      \"Marketplace not allowed to spend desired amount of tokens\"\n    );\n\n    order.completedAmount += amount;\n    _updateOrder(order, newStatus);\n\n    order.to.safeTransferFrom(_msgSender(), order.owner, payoffAmount);\n    order.from.safeTransferFrom(order.owner, wallet, amount);\n    _reward(wallet);\n\n    return true;\n  }\n\n  /**\n   * @dev Update closed order reward\n   */\n  function updateReward(IToken _token, uint _reward) public onlyOwner {\n    require(address(_token) != address(0), \"Invalid token address\");\n    require(_token.hasRole(MINTER_ROLE, address(this)), \"Marketplace is not a minter\");\n\n    token = _token;\n    reward = _reward;\n\n    emit RewardUpdated(_token, _reward, _msgSender());\n  }\n\n  /**\n   * @dev Blacklist a token\n   */\n  function blacklistToken(IToken _token, bool state) public onlyOwner {\n    blacklistedTokens[_token] = state;\n\n    if (state) {\n      blacklistedTokensCount++;\n      emit BlacklistedToken(_token, _msgSender());\n    } else {\n      blacklistedTokensCount--;\n      emit UnblacklistedToken(_token, _msgSender());\n    }\n  }\n\n  function _updateOrder(IOrder.Order storage order, IOrder.Status toStatus) internal {\n    IOrder.Status fromStatus = order.status;\n\n    order.status = toStatus;\n    ordersStats[fromStatus]--;\n    ordersStats[toStatus]++;\n\n    if (toStatus == IOrder.Status.Completed || toStatus == IOrder.Status.Closed) {\n      (,bool found) = _removeActiveOrder(_msgSender(), order.id);\n      require(found, \"Order is not found as active. Should never happen!\");\n    }\n\n    emit OrderUpdated(order.id, fromStatus, toStatus);\n  }\n\n  /**\n   * Removes an order from active user orders\n   */\n  function _removeActiveOrder(address user, uint orderId) internal returns (uint index, bool found) {\n    if (userActiveOrders[user].length == 1 && userActiveOrders[user][0] == orderId) {\n      userActiveOrders[user].pop();\n      return (index, found);\n    }\n\n    for (uint i = 0; i <= userActiveOrders[user].length; i++){\n      if (userActiveOrders[user][i] == orderId) {\n        found = true;\n        index = i;\n        break;\n      }\n    }\n\n    if (!found) {\n      return (index, found);\n    }\n\n    for (uint i = index; i < userActiveOrders[user].length - 1; i++){\n      userActiveOrders[user][i] = userActiveOrders[user][i + 1];\n    }\n\n    userActiveOrders[user].pop();\n  }\n\n  /**\n   * @dev transfer reward for a closed order\n   */\n  function _reward(address receiver) internal {\n    if (reward > 0) {\n      token.mint(receiver, reward);\n      rewardsCount++;\n      rewardsValue += reward;\n      emit Reward(receiver, reward);\n    }\n  }\n\n  /**\n   * @dev This function is called for all messages sent to\n   * this contract, except plain Ether transfers\n   * (there is no other function except the receive function).\n   * Any call with non-empty calldata to this contract will execute\n   * the fallback function (even if Ether is sent along with the call).\n   */\n  fallback() external payable {\n    treasury.transfer(msg.value);\n    emit Donated(_msgSender(), msg.value);\n  }\n\n  /**\n   * @dev This function is called for plain Ether transfers, i.e.\n   * for every call with empty calldata.\n   */\n  receive() external payable {\n    treasury.transfer(msg.value);\n    emit Donated(_msgSender(), msg.value);\n  }\n}\n",
  "sourcePath": "/home/alex/Projects/erc.money-app/contracts/Marketplace.sol",
  "compiler": {
    "name": "solc",
    "version": "0.6.12+commit.27d51765.Emscripten.clang"
  },
  "schemaVersion": "3.3.1",
  "updatedAt": "2020-11-11T10:01:11.920Z",
  "networkType": "ethereum",
  "devdoc": {
    "events": {
      "BlacklistedToken(address,address)": {
        "details": "Emitted when a `token` gets blacklisted by `who`."
      },
      "Donated(address,uint256)": {
        "details": "Emitted when the donation of `value` received from `account`."
      },
      "OrderCreated(uint256)": {
        "details": "Order updated"
      },
      "OrderUpdated(uint256,uint8,uint8)": {
        "details": "Order updated"
      },
      "Reward(address,uint256)": {
        "details": "Emitted when `receiver` rewarded with `reward` amount of tokens."
      },
      "RewardUpdated(address,uint256,address)": {
        "details": "Emitted when reward `token` and a `reward` amount apecified by `who`."
      },
      "UnblacklistedToken(address,address)": {
        "details": "Emitted when a `token` gets un-blacklisted by `who`."
      }
    },
    "kind": "dev",
    "methods": {
      "blacklistToken(address,bool)": {
        "details": "Blacklist a token"
      },
      "owner()": {
        "details": "Returns the address of the current owner."
      },
      "paused()": {
        "details": "Returns true if the contract is paused, and false otherwise."
      },
      "renounceOwnership()": {
        "details": "Leaves the contract without owner. It will not be possible to call `onlyOwner` functions anymore. Can only be called by the current owner. NOTE: Renouncing ownership will leave the contract without an owner, thereby removing any functionality that is only available to the owner."
      },
      "transferOwnership(address)": {
        "details": "Transfers ownership of the contract to a new account (`newOwner`). Can only be called by the current owner."
      },
      "updateReward(address,uint256)": {
        "details": "Update closed order reward"
      }
    },
    "version": 1
  },
  "userdoc": {
    "kind": "user",
    "methods": {},
    "version": 1
  }
}