{
  "contractName": "Marketplace",
  "abi": [
    {
      "inputs": [
        {
          "internalType": "address",
          "name": "_owner",
          "type": "address"
        },
        {
          "internalType": "address payable",
          "name": "_treasury",
          "type": "address"
        }
      ],
      "stateMutability": "nonpayable",
      "type": "constructor"
    },
    {
      "anonymous": false,
      "inputs": [
        {
          "indexed": false,
          "internalType": "contract IERC20",
          "name": "token",
          "type": "address"
        },
        {
          "indexed": false,
          "internalType": "address",
          "name": "who",
          "type": "address"
        }
      ],
      "name": "BlacklistedToken",
      "type": "event"
    },
    {
      "anonymous": false,
      "inputs": [
        {
          "indexed": false,
          "internalType": "address",
          "name": "account",
          "type": "address"
        },
        {
          "indexed": false,
          "internalType": "uint256",
          "name": "value",
          "type": "uint256"
        }
      ],
      "name": "Donated",
      "type": "event"
    },
    {
      "anonymous": false,
      "inputs": [
        {
          "indexed": false,
          "internalType": "uint256",
          "name": "orderId",
          "type": "uint256"
        }
      ],
      "name": "OrderCreated",
      "type": "event"
    },
    {
      "anonymous": false,
      "inputs": [
        {
          "indexed": false,
          "internalType": "uint256",
          "name": "orderId",
          "type": "uint256"
        },
        {
          "indexed": false,
          "internalType": "enum IOrder.Status",
          "name": "fromStatus",
          "type": "uint8"
        },
        {
          "indexed": false,
          "internalType": "enum IOrder.Status",
          "name": "toStatus",
          "type": "uint8"
        }
      ],
      "name": "OrderUpdated",
      "type": "event"
    },
    {
      "anonymous": false,
      "inputs": [
        {
          "indexed": true,
          "internalType": "address",
          "name": "previousOwner",
          "type": "address"
        },
        {
          "indexed": true,
          "internalType": "address",
          "name": "newOwner",
          "type": "address"
        }
      ],
      "name": "OwnershipTransferred",
      "type": "event"
    },
    {
      "anonymous": false,
      "inputs": [
        {
          "indexed": false,
          "internalType": "address",
          "name": "account",
          "type": "address"
        }
      ],
      "name": "Paused",
      "type": "event"
    },
    {
      "anonymous": false,
      "inputs": [
        {
          "indexed": false,
          "internalType": "address",
          "name": "receiver",
          "type": "address"
        },
        {
          "indexed": false,
          "internalType": "uint256",
          "name": "reward",
          "type": "uint256"
        }
      ],
      "name": "Reward",
      "type": "event"
    },
    {
      "anonymous": false,
      "inputs": [
        {
          "indexed": false,
          "internalType": "contract IERC20",
          "name": "token",
          "type": "address"
        },
        {
          "indexed": false,
          "internalType": "uint256",
          "name": "reward",
          "type": "uint256"
        },
        {
          "indexed": false,
          "internalType": "address",
          "name": "who",
          "type": "address"
        }
      ],
      "name": "RewardUpdated",
      "type": "event"
    },
    {
      "anonymous": false,
      "inputs": [
        {
          "indexed": false,
          "internalType": "contract IERC20",
          "name": "token",
          "type": "address"
        },
        {
          "indexed": false,
          "internalType": "address",
          "name": "who",
          "type": "address"
        }
      ],
      "name": "UnblacklistedToken",
      "type": "event"
    },
    {
      "anonymous": false,
      "inputs": [
        {
          "indexed": false,
          "internalType": "address",
          "name": "account",
          "type": "address"
        }
      ],
      "name": "Unpaused",
      "type": "event"
    },
    {
      "stateMutability": "payable",
      "type": "fallback",
      "payable": true
    },
    {
      "inputs": [],
      "name": "MINTER_ROLE",
      "outputs": [
        {
          "internalType": "bytes32",
          "name": "",
          "type": "bytes32"
        }
      ],
      "stateMutability": "view",
      "type": "function",
      "constant": true
    },
    {
      "inputs": [],
      "name": "owner",
      "outputs": [
        {
          "internalType": "address",
          "name": "",
          "type": "address"
        }
      ],
      "stateMutability": "view",
      "type": "function",
      "constant": true
    },
    {
      "inputs": [],
      "name": "paused",
      "outputs": [
        {
          "internalType": "bool",
          "name": "",
          "type": "bool"
        }
      ],
      "stateMutability": "view",
      "type": "function",
      "constant": true
    },
    {
      "inputs": [],
      "name": "renounceOwnership",
      "outputs": [],
      "stateMutability": "nonpayable",
      "type": "function"
    },
    {
      "inputs": [],
      "name": "token",
      "outputs": [
        {
          "internalType": "contract IToken",
          "name": "",
          "type": "address"
        }
      ],
      "stateMutability": "view",
      "type": "function",
      "constant": true
    },
    {
      "inputs": [
        {
          "internalType": "address",
          "name": "newOwner",
          "type": "address"
        }
      ],
      "name": "transferOwnership",
      "outputs": [],
      "stateMutability": "nonpayable",
      "type": "function"
    },
    {
      "inputs": [],
      "name": "treasury",
      "outputs": [
        {
          "internalType": "address payable",
          "name": "",
          "type": "address"
        }
      ],
      "stateMutability": "view",
      "type": "function",
      "constant": true
    },
    {
      "stateMutability": "payable",
      "type": "receive",
      "payable": true
    },
    {
      "inputs": [
        {
          "internalType": "uint256",
          "name": "orderId",
          "type": "uint256"
        }
      ],
      "name": "orderExists",
      "outputs": [
        {
          "internalType": "bool",
          "name": "",
          "type": "bool"
        }
      ],
      "stateMutability": "view",
      "type": "function",
      "constant": true
    },
    {
      "inputs": [
        {
          "internalType": "contract IERC20",
          "name": "_token",
          "type": "address"
        }
      ],
      "name": "isTokenBlacklisted",
      "outputs": [
        {
          "internalType": "bool",
          "name": "",
          "type": "bool"
        }
      ],
      "stateMutability": "view",
      "type": "function",
      "constant": true
    },
    {
      "inputs": [
        {
          "internalType": "enum IOrder.Status",
          "name": "status",
          "type": "uint8"
        }
      ],
      "name": "stats",
      "outputs": [
        {
          "internalType": "uint256",
          "name": "",
          "type": "uint256"
        }
      ],
      "stateMutability": "view",
      "type": "function",
      "constant": true
    },
    {
      "inputs": [
        {
          "internalType": "uint256",
          "name": "orderId",
          "type": "uint256"
        }
      ],
      "name": "getOrder",
      "outputs": [
        {
          "components": [
            {
              "internalType": "contract IERC20",
              "name": "from",
              "type": "address"
            },
            {
              "internalType": "uint256",
              "name": "fromAmount",
              "type": "uint256"
            },
            {
              "internalType": "contract IERC20",
              "name": "to",
              "type": "address"
            },
            {
              "internalType": "uint256",
              "name": "toAmount",
              "type": "uint256"
            },
            {
              "internalType": "address",
              "name": "owner",
              "type": "address"
            },
            {
              "internalType": "bool",
              "name": "allowPartial",
              "type": "bool"
            },
            {
              "internalType": "uint256",
              "name": "id",
              "type": "uint256"
            },
            {
              "internalType": "bool",
              "name": "transacting",
              "type": "bool"
            },
            {
              "internalType": "enum IOrder.Status",
              "name": "status",
              "type": "uint8"
            },
            {
              "internalType": "uint256",
              "name": "completedAmount",
              "type": "uint256"
            }
          ],
          "internalType": "struct IOrder.Order",
          "name": "",
          "type": "tuple"
        }
      ],
      "stateMutability": "view",
      "type": "function",
      "constant": true
    },
    {
      "inputs": [
        {
          "internalType": "uint256",
          "name": "orderId",
          "type": "uint256"
        },
        {
          "internalType": "uint256",
          "name": "offset",
          "type": "uint256"
        },
        {
          "internalType": "uint256",
          "name": "size",
          "type": "uint256"
        }
      ],
      "name": "listOrders",
      "outputs": [
        {
          "components": [
            {
              "internalType": "contract IERC20",
              "name": "from",
              "type": "address"
            },
            {
              "internalType": "uint256",
              "name": "fromAmount",
              "type": "uint256"
            },
            {
              "internalType": "contract IERC20",
              "name": "to",
              "type": "address"
            },
            {
              "internalType": "uint256",
              "name": "toAmount",
              "type": "uint256"
            },
            {
              "internalType": "address",
              "name": "owner",
              "type": "address"
            },
            {
              "internalType": "bool",
              "name": "allowPartial",
              "type": "bool"
            },
            {
              "internalType": "uint256",
              "name": "id",
              "type": "uint256"
            },
            {
              "internalType": "bool",
              "name": "transacting",
              "type": "bool"
            },
            {
              "internalType": "enum IOrder.Status",
              "name": "status",
              "type": "uint8"
            },
            {
              "internalType": "uint256",
              "name": "completedAmount",
              "type": "uint256"
            }
          ],
          "internalType": "struct IOrder.Order[]",
          "name": "page",
          "type": "tuple[]"
        },
        {
          "internalType": "uint256",
          "name": "entries",
          "type": "uint256"
        }
      ],
      "stateMutability": "view",
      "type": "function",
      "constant": true
    },
    {
      "inputs": [
        {
          "internalType": "contract IERC20",
          "name": "from",
          "type": "address"
        },
        {
          "internalType": "uint256",
          "name": "fromAmount",
          "type": "uint256"
        },
        {
          "internalType": "contract IERC20",
          "name": "to",
          "type": "address"
        },
        {
          "internalType": "uint256",
          "name": "toAmount",
          "type": "uint256"
        },
        {
          "internalType": "bool",
          "name": "allowPartial",
          "type": "bool"
        }
      ],
      "name": "createOrder",
      "outputs": [
        {
          "internalType": "uint256",
          "name": "orderId",
          "type": "uint256"
        }
      ],
      "stateMutability": "nonpayable",
      "type": "function"
    },
    {
      "inputs": [
        {
          "internalType": "uint256",
          "name": "orderId",
          "type": "uint256"
        }
      ],
      "name": "closeOrder",
      "outputs": [],
      "stateMutability": "nonpayable",
      "type": "function"
    },
    {
      "inputs": [
        {
          "internalType": "uint256",
          "name": "orderId",
          "type": "uint256"
        },
        {
          "internalType": "uint256",
          "name": "amount",
          "type": "uint256"
        },
        {
          "internalType": "address",
          "name": "wallet",
          "type": "address"
        }
      ],
      "name": "claimOrder",
      "outputs": [
        {
          "internalType": "bool",
          "name": "",
          "type": "bool"
        }
      ],
      "stateMutability": "nonpayable",
      "type": "function"
    },
    {
      "inputs": [
        {
          "internalType": "contract IToken",
          "name": "_token",
          "type": "address"
        },
        {
          "internalType": "uint256",
          "name": "_reward",
          "type": "uint256"
        }
      ],
      "name": "updateReward",
      "outputs": [],
      "stateMutability": "nonpayable",
      "type": "function"
    },
    {
      "inputs": [
        {
          "internalType": "contract IERC20",
          "name": "_token",
          "type": "address"
        },
        {
          "internalType": "bool",
          "name": "state",
          "type": "bool"
        }
      ],
      "name": "blacklistToken",
      "outputs": [],
      "stateMutability": "nonpayable",
      "type": "function"
    }
  ],
  "bytecode": "0x60806040523480156200001157600080fd5b506040516200237e3803806200237e833981016040819052620000349162000246565b60006200004964010000000062000158810204565b60008054600160a060020a031916600160a060020a0383169081178255604051929350916000805160206200235e833981519152908290a3506000805460a060020a60ff0219169055600160a060020a038116620000de576040517f08c379a0000000000000000000000000000000000000000000000000000000008152600401620000d590620002e1565b60405180910390fd5b600160a060020a03821662000121576040517f08c379a0000000000000000000000000000000000000000000000000000000008152600401620000d59062000318565b60018054600160a060020a031916600160a060020a03831617905562000150826401000000006200015c810204565b50506200039d565b3390565b6200016f64010000000062000158810204565b600054600160a060020a03908116911614620001b9576040517f08c379a0000000000000000000000000000000000000000000000000000000008152600401620000d5906200034f565b600160a060020a038116620001fc576040517f08c379a0000000000000000000000000000000000000000000000000000000008152600401620000d59062000284565b60008054604051600160a060020a03808516939216916000805160206200235e83398151915291a360008054600160a060020a031916600160a060020a0392909216919091179055565b6000806040838503121562000259578182fd5b8251620002668162000384565b6020840151909250620002798162000384565b809150509250929050565b60208082526026908201527f4f776e61626c653a206e6577206f776e657220697320746865207a65726f206160408201527f6464726573730000000000000000000000000000000000000000000000000000606082015260800190565b6020808252601f908201527f496e76616c69642074726561737572792077616c6c6574206164647265737300604082015260600190565b60208082526015908201527f496e76616c6964206f776e657220616464726573730000000000000000000000604082015260600190565b6020808252818101527f4f776e61626c653a2063616c6c6572206973206e6f7420746865206f776e6572604082015260600190565b600160a060020a03811681146200039a57600080fd5b50565b611fb180620003ad6000396000f3fe6080604052600436106101065760003560e060020a90048063715018a611610099578063ce9be9ba11610068578063ce9be9ba14610354578063d09ef24114610374578063d5391393146103a1578063f2fde38b146103b6578063fc0c546a146103d657610187565b8063715018a6146102ea57806386317b96146102ff5780638da5cb5b1461031f5780639c5bbcf91461033457610187565b80633012b94e116100d55780633012b94e14610258578063425351bd146102855780635c975abb146102b357806361d027b3146102c857610187565b8063069d6d1c146101c0578063190e4c55146101e25780631a399125146102025780632ad54a921461022257610187565b3661018757600154604051600160a060020a03909116903480156108fc02916000818181858888f19350505050158015610144573d6000803e3d6000fd5b507f2a01595cddf097c90216094025db714da3f4e5bd8877b56ba86a24ecead8e54361016e6103eb565b3460405161017d929190611921565b60405180910390a1005b600154604051600160a060020a03909116903480156108fc02916000818181858888f19350505050158015610144573d6000803e3d6000fd5b3480156101cc57600080fd5b506101e06101db36600461178d565b6103ef565b005b3480156101ee57600080fd5b506101e06101fd3660046116ad565b6105bd565b34801561020e57600080fd5b506101e061021d366004611743565b6106ac565b34801561022e57600080fd5b5061024261023d3660046116e5565b61084c565b60405161024f91906119bc565b60405180910390f35b34801561026457600080fd5b506102786102733660046117bd565b610b38565b60405161024f91906119b1565b34801561029157600080fd5b506102a56102a03660046117f5565b610f85565b60405161024f92919061195e565b3480156102bf57600080fd5b5061027861105d565b3480156102d457600080fd5b506102dd61106d565b60405161024f91906118f3565b3480156102f657600080fd5b506101e061107c565b34801561030b57600080fd5b5061027861031a36600461178d565b61110b565b34801561032b57600080fd5b506102dd611126565b34801561034057600080fd5b5061024261034f36600461176e565b611135565b34801561036057600080fd5b5061027861036f36600461166e565b611168565b34801561038057600080fd5b5061039461038f36600461178d565b611186565b60405161024f9190611ee1565b3480156103ad57600080fd5b5061024261124c565b3480156103c257600080fd5b506101e06103d136600461166e565b611270565b3480156103e257600080fd5b506102dd611339565b3390565b600081815260056020526040902060060154819060ff161561042f5760405160e560020a62461bcd02815260040161042690611cdf565b60405180910390fd5b6000818152600560208190526040808320600601805460ff19166001179055848352909120015482906104775760405160e560020a62461bcd02815260040161042690611d4b565b6002600082815260056020526040902060060154610100900460ff16600381111561049e57fe5b141580156104d157506003600082815260056020526040902060060154610100900460ff1660038111156104ce57fe5b14155b6104f05760405160e560020a62461bcd02815260040161042690611ac6565b6104f86103eb565b600084815260056020526040902060040154600160a060020a039081169116146105375760405160e560020a62461bcd02815260040161042690611c82565b60008381526005602052604090819020600601805461ff0019811661030017909155905161010090910460ff16907fbd63b5282661ee29288057b2d23c1d8f53d1623238e656d3ab0313766e232cfe906105979086908490600390611ef6565b60405180910390a150506000908152600560205260409020600601805460ff1916905550565b6105c56103eb565b600054600160a060020a039081169116146105f55760405160e560020a62461bcd02815260040161042690611d16565b600160a060020a0382166000908152600760205260409020805460ff19168215801591909117909155610667577fb0dff05d63bda79ce2b542fd08755b28bc58bca10a39883608bb71f687edfdf78261064c6103eb565b60405161065a929190611907565b60405180910390a16106a8565b7f51ebcd2e6a7592e9883b86a58bb3dcaeb7aa87e0475fb26ff0a1eadba26dcfe4826106916103eb565b60405161069f929190611907565b60405180910390a15b5050565b6106b46103eb565b600054600160a060020a039081169116146106e45760405160e560020a62461bcd02815260040161042690611d16565b600160a060020a03821661070d5760405160e560020a62461bcd02815260040161042690611e16565b6040517f91d14854000000000000000000000000000000000000000000000000000000008152600160a060020a038316906391d1485490610774907f9f2df0fed2c77648de5860a4cc508cd0818c85b8b8a1ab4ceeef8d981c8956a69030906004016119c5565b602060405180830381600087803b15801561078e57600080fd5b505af11580156107a2573d6000803e3d6000fd5b505050506040513d601f19601f820116820180604052508101906107c69190611691565b6107e55760405160e560020a62461bcd02815260040161042690611a8f565b6002805473ffffffffffffffffffffffffffffffffffffffff1916600160a060020a03841617905560038190557fc8d71d1dc9e781ced39e0ea7e9acc09b0a1a07e73daf21d78f651b2e4a37c52e828261083d6103eb565b60405161069f939291906119dc565b6000805460a060020a900460ff161561087a5760405160e560020a62461bcd02815260040161042690611c4b565b8561088481611168565b156108a45760405160e560020a62461bcd02815260040161042690611c14565b846108ae81611168565b156108ce5760405160e560020a62461bcd02815260040161042690611c14565b6000871180156108de5750600085115b6108fd5760405160e560020a62461bcd02815260040161042690611b80565b8688600160a060020a031663dd62ed3e6109156103eb565b306040518363ffffffff1660e060020a028152600401610936929190611907565b60206040518083038186803b15801561094e57600080fd5b505afa158015610962573d6000803e3d6000fd5b505050506040513d601f19601f8201168201806040525081019061098691906117a5565b10156109a75760405160e560020a62461bcd02815260040161042690611db9565b600480546001810190915592506109bc61161a565b6040518061014001604052808a600160a060020a0316815260200189815260200188600160a060020a031681526020018781526020016109fa6103eb565b600160a060020a0316815286151560208201526040810186905260006060820181905260809091019081526000602091820181905286815260058083526040918290208451815473ffffffffffffffffffffffffffffffffffffffff19908116600160a060020a039283161783559486015160018301559285015160028201805486169185169190911790556060850151600380830191909155608086015160048301805460a08901519716919095161774ff0000000000000000000000000000000000000000191660a060020a951515959095029490941790925560c08401519082015560e083015160068201805460ff191691151591909117808255610100808601519596508695939461ff0019909216918490811115610b1957fe5b0217905550610120820151816007015590505050505095945050505050565b6000805460a060020a900460ff1615610b665760405160e560020a62461bcd02815260040161042690611c4b565b600084815260056020526040902060060154849060ff1615610b9d5760405160e560020a62461bcd02815260040161042690611cdf565b6000818152600560208190526040808320600601805460ff1916600117905587835290912001548590610be55760405160e560020a62461bcd02815260040161042690611d4b565b6002600082815260056020526040902060060154610100900460ff166003811115610c0c57fe5b14158015610c3f57506003600082815260056020526040902060060154610100900460ff166003811115610c3c57fe5b14155b610c5e5760405160e560020a62461bcd02815260040161042690611ac6565b610c6661161a565b6000878152600560208181526040928390208351610140810185528154600160a060020a039081168252600183015493820193909352600282015483169481019490945260038082015460608601526004820154928316608086015260a060020a90920460ff908116151560a08601529281015460c08501526006810154808416151560e086015290926101008086019392041690811115610d0457fe5b6003811115610d0f57fe5b8152600791909101546020909101526101008101519091508615801590610d4157508161012001518260200151038711155b610d605760405160e560020a62461bcd02815260040161042690611a32565b8160a0015180610d735750816020015187145b610d925760405160e560020a62461bcd02815260040161042690611bb7565b60006127108884602001518560600151020281610dab57fe5b049050808360400151600160a060020a031663dd62ed3e610dca6103eb565b306040518363ffffffff1660e060020a028152600401610deb929190611907565b60206040518083038186803b158015610e0357600080fd5b505afa158015610e17573d6000803e3d6000fd5b505050506040513d601f19601f82011682018060405250810190610e3b91906117a5565b1015610e5c5760405160e560020a62461bcd02815260040161042690611db9565b600089815260056020908152604090912060070180548a01905583015161012084015114610e8b576001610e8e565b60025b60008a8152600560205260409020600601805461ff001916610100836003811115610eb557fe5b0217905550610ee0610ec56103eb565b60808501516040860151600160a060020a0316919084611348565b60808301518351610efe91600160a060020a0390911690898b611348565b610f07876113d6565b600089815260056020526040908190206006015490517fbd63b5282661ee29288057b2d23c1d8f53d1623238e656d3ab0313766e232cfe91610f56918c91869161010090910460ff1690611ef6565b60405180910390a1505050600091825250600560205260409020600601805460ff191690555060019392505050565b606060006064831115610fad5760405160e560020a62461bcd02815260040161042690611eaa565b8267ffffffffffffffff81118015610fc457600080fd5b50604051908082528060200260200182016040528015610ffe57816020015b610feb61161a565b815260200190600190039081610fe35790505b50915060005b838110156110545760045485850190811061101f5750611054565b82806001019350506110348160045403611186565b84838151811061104057fe5b602090810291909101015250600101611004565b50935093915050565b60005460a060020a900460ff1690565b600154600160a060020a031681565b6110846103eb565b600054600160a060020a039081169116146110b45760405160e560020a62461bcd02815260040161042690611d16565b60008054604051600160a060020a03909116907f8be0079c531659141344cd1fd0a4f28419497f9722a3daafe3b4186f6b6457e0908390a36000805473ffffffffffffffffffffffffffffffffffffffff19169055565b6000818152600560208190526040909120015415155b919050565b600054600160a060020a031690565b60006006600083600381111561114757fe5b600381111561115257fe5b8152602001908152602001600020549050919050565b600160a060020a031660009081526007602052604090205460ff1690565b61118e61161a565b6000828152600560208181526040928390208351610140810185528154600160a060020a039081168252600183015493820193909352600282015483169481019490945260038082015460608601526004820154928316608086015260a060020a90920460ff908116151560a08601529281015460c08501526006810154808416151560e08601529092610100808601939204169081111561122c57fe5b600381111561123757fe5b81526020016007820154815250509050919050565b7f9f2df0fed2c77648de5860a4cc508cd0818c85b8b8a1ab4ceeef8d981c8956a681565b6112786103eb565b600054600160a060020a039081169116146112a85760405160e560020a62461bcd02815260040161042690611d16565b600160a060020a0381166112d15760405160e560020a62461bcd02815260040161042690611b23565b60008054604051600160a060020a03808516939216917f8be0079c531659141344cd1fd0a4f28419497f9722a3daafe3b4186f6b6457e091a36000805473ffffffffffffffffffffffffffffffffffffffff1916600160a060020a0392909216919091179055565b600254600160a060020a031681565b6113d0846323b872dd60e060020a0285858560405160240161136c9392919061193a565b60408051601f198184030181529190526020810180517bffffffffffffffffffffffffffffffffffffffffffffffffffffffff167fffffffff000000000000000000000000000000000000000000000000000000009093169290921790915261149c565b50505050565b60035415611499576002546003546040517f40c10f19000000000000000000000000000000000000000000000000000000008152600160a060020a03909216916340c10f199161142b91859190600401611921565b600060405180830381600087803b15801561144557600080fd5b505af1158015611459573d6000803e3d6000fd5b505050507f619caafabdd75649b302ba8419e48cccf64f37f1983ac4727cfb38b57703ffc981600354604051611490929190611921565b60405180910390a15b50565b60606114f1826040518060400160405280602081526020017f5361666545524332303a206c6f772d6c6576656c2063616c6c206661696c656481525085600160a060020a03166115339092919063ffffffff16565b80519091501561152e578080602001905181019061150f9190611691565b61152e5760405160e560020a62461bcd02815260040161042690611e4d565b505050565b6060611542848460008561154a565b949350505050565b606061155585611614565b6115745760405160e560020a62461bcd02815260040161042690611d82565b6000606086600160a060020a0316858760405161159191906118d7565b60006040518083038185875af1925050503d80600081146115ce576040519150601f19603f3d011682016040523d82523d6000602084013e6115d3565b606091505b509150915081156115e75791506115429050565b8051156115f75780518082602001fd5b8360405160e560020a62461bcd02815260040161042691906119ff565b3b151590565b6040805161014081018252600080825260208201819052918101829052606081018290526080810182905260a0810182905260c0810182905260e08101829052906101008201908152602001600081525090565b60006020828403121561167f578081fd5b813561168a81611f58565b9392505050565b6000602082840312156116a2578081fd5b815161168a81611f6d565b600080604083850312156116bf578081fd5b82356116ca81611f58565b915060208301356116da81611f6d565b809150509250929050565b600080600080600060a086880312156116fc578081fd5b853561170781611f58565b945060208601359350604086013561171e81611f58565b925060608601359150608086013561173581611f6d565b809150509295509295909350565b60008060408385031215611755578182fd5b823561176081611f58565b946020939093013593505050565b60006020828403121561177f578081fd5b81356004811061168a578182fd5b60006020828403121561179e578081fd5b5035919050565b6000602082840312156117b6578081fd5b5051919050565b6000806000606084860312156117d1578283fd5b833592506020840135915060408401356117ea81611f58565b809150509250925092565b600080600060608486031215611809578283fd5b505081359360208301359350604090920135919050565b600160a060020a03169052565b15159052565b6004811061183d57fe5b9052565b61184c828251611820565b6020810151602083015260408101516118686040840182611820565b506060810151606083015260808101516118856080840182611820565b5060a081015161189860a084018261182d565b5060c081015160c083015260e08101516118b560e084018261182d565b50610100808201516118c982850182611833565b505061012090810151910152565b600082516118e9818460208701611f2c565b9190910192915050565b600160a060020a0391909116815260200190565b600160a060020a0392831681529116602082015260400190565b600160a060020a03929092168252602082015260400190565b600160a060020a039384168152919092166020820152604081019190915260600190565b604080825283519082018190526000906020906060840190828701845b828110156119a25761198e848351611841565b61014093909301929084019060010161197b565b50505092019290925292915050565b901515815260200190565b90815260200190565b918252600160a060020a0316602082015260400190565b600160a060020a0393841681526020810192909252909116604082015260600190565b6000602082528251806020840152611a1e816040850160208701611f2c565b601f01601f19169190910160400192915050565b60208082526034908201527f416d6f756e74206973206569746865722030206f72206772656174657220746860408201527f616e20746865206f6e6520617661696c61626c65000000000000000000000000606082015260800190565b6020808252601b908201527f4d61726b6574706c616365206973206e6f742061206d696e7465720000000000604082015260600190565b60208082526024908201527f4f726465722069732065697468657220636f6d706c65746564206f7220636c6f60408201527f7365642e00000000000000000000000000000000000000000000000000000000606082015260800190565b60208082526026908201527f4f776e61626c653a206e6577206f776e657220697320746865207a65726f206160408201527f6464726573730000000000000000000000000000000000000000000000000000606082015260800190565b60208082526014908201527f416d6f756e74732063616e206e6f742062652030000000000000000000000000604082015260600190565b60208082526023908201527f4f7264657220646f6573206e6f7420616c6c6f77207061727469616c2062757960408201527f6f75740000000000000000000000000000000000000000000000000000000000606082015260800190565b60208082526015908201527f546f6b656e20697320626c61636b6c69737465642e0000000000000000000000604082015260600190565b60208082526010908201527f5061757361626c653a2070617573656400000000000000000000000000000000604082015260600190565b60208082526025908201527f4f72646572207570646174657320616c6c6f776564206279206f726e6572732060408201527f6f6e6c7921000000000000000000000000000000000000000000000000000000606082015260800190565b6020808252601a908201527f5265656e7472616e6379206973206e6f7420616c6c6f7765642e000000000000604082015260600190565b6020808252818101527f4f776e61626c653a2063616c6c6572206973206e6f7420746865206f776e6572604082015260600190565b60208082526015908201527f4f7264657220646f6573206e6f742065786973742e0000000000000000000000604082015260600190565b6020808252601d908201527f416464726573733a2063616c6c20746f206e6f6e2d636f6e7472616374000000604082015260600190565b60208082526039908201527f4d61726b6574706c616365206e6f7420616c6c6f77656420746f207370656e6460408201527f206465736972656420616d6f756e74206f6620746f6b656e7300000000000000606082015260800190565b60208082526015908201527f496e76616c696420746f6b656e20616464726573730000000000000000000000604082015260600190565b6020808252602a908201527f5361666545524332303a204552433230206f7065726174696f6e20646964206e60408201527f6f74207375636365656400000000000000000000000000000000000000000000606082015260800190565b60208082526014908201527f4d617820706167652073697a6520697320313030000000000000000000000000604082015260600190565b6101408101611ef08284611841565b92915050565b83815260608101611f0684611f21565b6020830152611f1483611f21565b6040830152949350505050565b806004811061112157fe5b60005b83811015611f47578181015183820152602001611f2f565b838111156113d05750506000910152565b600160a060020a038116811461149957600080fd5b801515811461149957600080fdfea264697066735822122057f528fe701aec828f1809c91cdc1beeaf92b8b9e41c756bd3861e957c4c892564736f6c634300060c00338be0079c531659141344cd1fd0a4f28419497f9722a3daafe3b4186f6b6457e0",
  "immutableReferences": {},
  "source": "// SPDX-License-Identifier: MIT\npragma solidity >=0.6.0 <0.8.0;\npragma experimental ABIEncoderV2;\n\nimport \"@openzeppelin/contracts/token/ERC20/IERC20.sol\";\nimport \"@openzeppelin/contracts/token/ERC20/SafeERC20.sol\";\nimport \"@openzeppelin/contracts/access/Ownable.sol\";\nimport \"@openzeppelin/contracts/utils/Pausable.sol\";\nimport \"@openzeppelin/contracts/math/SafeMath.sol\";\nimport \"./IOrder.sol\";\nimport \"./IToken.sol\";\n\ncontract Marketplace is Ownable, Pausable {\n  using SafeMath for uint;\n  using SafeERC20 for IERC20;\n\n  bytes32 public constant MINTER_ROLE = keccak256(\"MINTER_ROLE\");\n\n  // @dev treasury wallet to forward donated eth to\n  address payable public treasury;\n\n  // @dev reward token\n  IToken public token;\n\n  // @dev amount tokens to reward for a closed order\n  uint reward;\n\n  // @dev order if incrementer\n  uint lastOrderId;\n\n  // @dev orders book\n  mapping (uint => IOrder.Order) orders;\n\n  mapping (IOrder.Status => uint) ordersStats;\n\n  // @dev token addresses that are blacklisted\n  mapping (IERC20 => bool) blacklistedTokens;\n\n  /**\n   * @dev Emitted when the donation of `value` received from `account`.\n   */\n  event Donated(address account, uint value);\n\n  /**\n   * @dev Emitted when a `token` gets blacklisted by `who`.\n   */\n  event BlacklistedToken(IERC20 token, address who);\n\n  /**\n   * @dev Emitted when a `token` gets un-blacklisted by `who`.\n   */\n  event UnblacklistedToken(IERC20 token, address who);\n\n  /**\n   * @dev Emitted when reward `token` and a `reward` amount apecified by `who`.\n   */\n  event RewardUpdated(IERC20 token, uint reward, address who);\n\n  /**\n   * @dev Emitted when `receiver` rewarded with `reward` amount of tokens.\n   */\n  event Reward(address receiver, uint reward);\n\n  /**\n   * @dev Order updated\n   */\n  event OrderCreated(uint orderId);\n\n  /**\n   * @dev Order updated\n   */\n  event OrderUpdated(uint orderId, IOrder.Status fromStatus, IOrder.Status toStatus);\n\n  /**\n   * @dev check if `token` is not blacklisted\n   */\n  modifier isNotBlacklisted(IERC20 _token) {\n    require(\n      isTokenBlacklisted(_token) == false,\n      \"Token is blacklisted.\"\n    );\n    _;\n  }\n\n  modifier orderReentrancyGuard(uint orderId) {\n    require(\n      orders[orderId].transacting == false,\n      \"Reentrancy is not allowed.\"\n    );\n    orders[orderId].transacting = true;\n    _;\n    orders[orderId].transacting = false;\n  }\n\n  modifier orderOpen(uint orderId) {\n    require(\n      orders[orderId].id > 0,\n      \"Order does not exist.\"\n    );\n    require(\n      orders[orderId].status != IOrder.Status.Completed\n        && orders[orderId].status != IOrder.Status.Closed,\n      \"Order is either completed or closed.\"\n    );\n    _;\n  }\n\n  constructor(\n    address _owner,\n    address payable _treasury\n  ) public {\n    require(_treasury != address(0), \"Invalid treasury wallet address\");\n    require(_owner != address(0), \"Invalid owner address\");\n\n    treasury = _treasury;\n    transferOwnership(_owner);\n  }\n\n  function orderExists(uint orderId) public view returns (bool) {\n    return orders[orderId].id > 0;\n  }\n\n  function isTokenBlacklisted(IERC20 _token) public view returns (bool) {\n    return blacklistedTokens[_token];\n  }\n\n  function stats(IOrder.Status status) public view returns (uint) {\n    return ordersStats[status];\n  }\n\n  function getOrder(uint orderId) public view returns (IOrder.Order memory) {\n    return orders[orderId];\n  }\n\n  function listOrders(uint orderId, uint offset, uint size) public view\n  returns (IOrder.Order[] memory page, uint entries) {\n    require(size <= 100, \"Max page size is 100\");\n    page = new IOrder.Order[](size);\n\n    for (uint i = 0; i < size; i++) {\n      uint y = offset + size;\n\n      if (y >= lastOrderId) {\n        break;\n      }\n\n      entries++;\n      page[i] = getOrder(lastOrderId - y);\n    }\n  }\n\n  function createOrder(\n    IERC20 from,\n    uint fromAmount,\n    IERC20 to,\n    uint toAmount,\n    bool allowPartial\n  ) public\n  whenNotPaused isNotBlacklisted(from) isNotBlacklisted(to)\n  returns (uint orderId) {\n    require(fromAmount > 0 && toAmount > 0, \"Amounts can not be 0\");\n    require(\n      from.allowance(_msgSender(), address(this)) >= fromAmount,\n      \"Marketplace not allowed to spend desired amount of tokens\"\n    );\n\n    orderId = lastOrderId++;\n    IOrder.Order memory order = IOrder.Order(\n      from,\n      fromAmount,\n      to,\n      toAmount,\n      _msgSender(),\n      allowPartial,\n      orderId, // id\n      false, // transacting\n      IOrder.Status.Open, // status\n      0 // completedAmount\n    );\n    orders[orderId] = order;\n  }\n\n  function closeOrder(uint orderId) public\n  orderReentrancyGuard(orderId) orderOpen(orderId) {\n    require(orders[orderId].owner == _msgSender(), \"Order updates allowed by orners only!\");\n\n    IOrder.Status oldStatus = orders[orderId].status;\n    orders[orderId].status = IOrder.Status.Closed;\n\n    emit OrderUpdated(orderId, oldStatus, IOrder.Status.Closed);\n  }\n\n  function claimOrder(uint orderId, uint amount, address wallet) public\n  whenNotPaused orderReentrancyGuard(orderId) orderOpen(orderId)\n  returns (bool) {\n    IOrder.Order memory order = orders[orderId];\n    IOrder.Status oldStatus = order.status;\n\n    require(\n      amount > 0 && amount <= (order.fromAmount - order.completedAmount),\n      \"Amount is either 0 or greater than the one available\"\n    );\n    require(order.allowPartial || amount == order.fromAmount, \"Order does not allow partial buyout\");\n\n    uint payoffAmount = order.toAmount * order.fromAmount * amount / 10**4;\n\n    require(\n      order.to.allowance(_msgSender(), address(this)) >= payoffAmount,\n      \"Marketplace not allowed to spend desired amount of tokens\"\n    );\n\n    // Effect\n    orders[orderId].completedAmount += amount;\n    orders[orderId].status = order.completedAmount == order.fromAmount\n      ? IOrder.Status.Completed\n      : IOrder.Status.PartiallyCompleted;\n\n    // Interaction\n    order.to.safeTransferFrom(_msgSender(), order.owner, payoffAmount);\n    order.from.safeTransferFrom(order.owner, wallet, amount);\n\n    _reward(wallet);\n    emit OrderUpdated(orderId, oldStatus, orders[orderId].status);\n    return true;\n  }\n\n  /**\n   * @dev Update closed order reward\n   */\n  function updateReward(IToken _token, uint _reward) public onlyOwner {\n    require(address(_token) != address(0), \"Invalid token address\");\n    require(_token.hasRole(MINTER_ROLE, address(this)), \"Marketplace is not a minter\");\n\n    token = _token;\n    reward = _reward;\n\n    emit RewardUpdated(_token, _reward, _msgSender());\n  }\n\n  /**\n   * @dev Blacklist a token\n   */\n  function blacklistToken(IERC20 _token, bool state) public onlyOwner {\n    blacklistedTokens[_token] = state;\n\n    if (state) {\n      emit BlacklistedToken(_token, _msgSender());\n    } else {\n      emit UnblacklistedToken(_token, _msgSender());\n    }\n  }\n\n  /**\n   * @dev transfer reward for a closed order\n   */\n  function _reward(address receiver) internal {\n    if (reward > 0) {\n      token.mint(receiver, reward);\n      emit Reward(receiver, reward);\n    }\n  }\n\n  /**\n   * @dev This function is called for all messages sent to\n   * this contract, except plain Ether transfers\n   * (there is no other function except the receive function).\n   * Any call with non-empty calldata to this contract will execute\n   * the fallback function (even if Ether is sent along with the call).\n   */\n  fallback() external payable {\n    treasury.transfer(msg.value);\n    emit Donated(_msgSender(), msg.value);\n  }\n\n  /**\n   * @dev This function is called for plain Ether transfers, i.e.\n   * for every call with empty calldata.\n   */\n  receive() external payable {\n    treasury.transfer(msg.value);\n    emit Donated(_msgSender(), msg.value);\n  }\n}\n",
  "sourcePath": "/home/alex/Projects/erc.money-app/contracts/Marketplace.sol",
  "compiler": {
    "name": "solc",
    "version": "0.6.12+commit.27d51765.Emscripten.clang"
  },
  "schemaVersion": "3.3.1",
  "updatedAt": "2020-11-10T17:51:37.755Z",
  "networkType": "ethereum",
  "devdoc": {
    "events": {
      "BlacklistedToken(address,address)": {
        "details": "Emitted when a `token` gets blacklisted by `who`."
      },
      "Donated(address,uint256)": {
        "details": "Emitted when the donation of `value` received from `account`."
      },
      "OrderCreated(uint256)": {
        "details": "Order updated"
      },
      "OrderUpdated(uint256,uint8,uint8)": {
        "details": "Order updated"
      },
      "Reward(address,uint256)": {
        "details": "Emitted when `receiver` rewarded with `reward` amount of tokens."
      },
      "RewardUpdated(address,uint256,address)": {
        "details": "Emitted when reward `token` and a `reward` amount apecified by `who`."
      },
      "UnblacklistedToken(address,address)": {
        "details": "Emitted when a `token` gets un-blacklisted by `who`."
      }
    },
    "kind": "dev",
    "methods": {
      "blacklistToken(address,bool)": {
        "details": "Blacklist a token"
      },
      "owner()": {
        "details": "Returns the address of the current owner."
      },
      "paused()": {
        "details": "Returns true if the contract is paused, and false otherwise."
      },
      "renounceOwnership()": {
        "details": "Leaves the contract without owner. It will not be possible to call `onlyOwner` functions anymore. Can only be called by the current owner. NOTE: Renouncing ownership will leave the contract without an owner, thereby removing any functionality that is only available to the owner."
      },
      "transferOwnership(address)": {
        "details": "Transfers ownership of the contract to a new account (`newOwner`). Can only be called by the current owner."
      },
      "updateReward(address,uint256)": {
        "details": "Update closed order reward"
      }
    },
    "version": 1
  },
  "userdoc": {
    "kind": "user",
    "methods": {},
    "version": 1
  }
}